{"contracts/AgentNFTCollection.sol":{"AgentNFTCollection":{"abi":[{"inputs":[{"internalType":"string","name":"name","type":"string"},{"internalType":"string","name":"symbol","type":"string"},{"internalType":"string","name":"_collectionURI","type":"string"},{"internalType":"address","name":"_agentWallet","type":"address"},{"internalType":"uint96","name":"_royaltyFee","type":"uint96"}],"stateMutability":"nonpayable","type":"constructor"},{"inputs":[{"internalType":"uint256","name":"numerator","type":"uint256"},{"internalType":"uint256","name":"denominator","type":"uint256"}],"name":"ERC2981InvalidDefaultRoyalty","type":"error"},{"inputs":[{"internalType":"address","name":"receiver","type":"address"}],"name":"ERC2981InvalidDefaultRoyaltyReceiver","type":"error"},{"inputs":[{"internalType":"uint256","name":"tokenId","type":"uint256"},{"internalType":"uint256","name":"numerator","type":"uint256"},{"internalType":"uint256","name":"denominator","type":"uint256"}],"name":"ERC2981InvalidTokenRoyalty","type":"error"},{"inputs":[{"internalType":"uint256","name":"tokenId","type":"uint256"},{"internalType":"address","name":"receiver","type":"address"}],"name":"ERC2981InvalidTokenRoyaltyReceiver","type":"error"},{"inputs":[{"internalType":"address","name":"sender","type":"address"},{"internalType":"uint256","name":"tokenId","type":"uint256"},{"internalType":"address","name":"owner","type":"address"}],"name":"ERC721IncorrectOwner","type":"error"},{"inputs":[{"internalType":"address","name":"operator","type":"address"},{"internalType":"uint256","name":"tokenId","type":"uint256"}],"name":"ERC721InsufficientApproval","type":"error"},{"inputs":[{"internalType":"address","name":"approver","type":"address"}],"name":"ERC721InvalidApprover","type":"error"},{"inputs":[{"internalType":"address","name":"operator","type":"address"}],"name":"ERC721InvalidOperator","type":"error"},{"inputs":[{"internalType":"address","name":"owner","type":"address"}],"name":"ERC721InvalidOwner","type":"error"},{"inputs":[{"internalType":"address","name":"receiver","type":"address"}],"name":"ERC721InvalidReceiver","type":"error"},{"inputs":[{"internalType":"address","name":"sender","type":"address"}],"name":"ERC721InvalidSender","type":"error"},{"inputs":[{"internalType":"uint256","name":"tokenId","type":"uint256"}],"name":"ERC721NonexistentToken","type":"error"},{"inputs":[],"name":"EnforcedPause","type":"error"},{"inputs":[],"name":"ExpectedPause","type":"error"},{"inputs":[{"internalType":"address","name":"owner","type":"address"}],"name":"OwnableInvalidOwner","type":"error"},{"inputs":[{"internalType":"address","name":"account","type":"address"}],"name":"OwnableUnauthorizedAccount","type":"error"},{"anonymous":false,"inputs":[{"indexed":true,"internalType":"address","name":"owner","type":"address"},{"indexed":true,"internalType":"address","name":"approved","type":"address"},{"indexed":true,"internalType":"uint256","name":"tokenId","type":"uint256"}],"name":"Approval","type":"event"},{"anonymous":false,"inputs":[{"indexed":true,"internalType":"address","name":"owner","type":"address"},{"indexed":true,"internalType":"address","name":"operator","type":"address"},{"indexed":false,"internalType":"bool","name":"approved","type":"bool"}],"name":"ApprovalForAll","type":"event"},{"anonymous":false,"inputs":[{"indexed":false,"internalType":"uint256","name":"_fromTokenId","type":"uint256"},{"indexed":false,"internalType":"uint256","name":"_toTokenId","type":"uint256"}],"name":"BatchMetadataUpdate","type":"event"},{"anonymous":false,"inputs":[{"indexed":false,"internalType":"string","name":"newURI","type":"string"}],"name":"CollectionURIUpdated","type":"event"},{"anonymous":false,"inputs":[{"indexed":false,"internalType":"uint256","name":"_tokenId","type":"uint256"}],"name":"MetadataUpdate","type":"event"},{"anonymous":false,"inputs":[{"indexed":true,"internalType":"uint256","name":"tokenId","type":"uint256"},{"indexed":true,"internalType":"address","name":"to","type":"address"},{"indexed":false,"internalType":"string","name":"tokenURI","type":"string"}],"name":"NFTMinted","type":"event"},{"anonymous":false,"inputs":[{"indexed":true,"internalType":"address","name":"previousOwner","type":"address"},{"indexed":true,"internalType":"address","name":"newOwner","type":"address"}],"name":"OwnershipTransferred","type":"event"},{"anonymous":false,"inputs":[{"indexed":false,"internalType":"address","name":"account","type":"address"}],"name":"Paused","type":"event"},{"anonymous":false,"inputs":[{"indexed":true,"internalType":"address","name":"receiver","type":"address"},{"indexed":false,"internalType":"uint96","name":"feeNumerator","type":"uint96"}],"name":"RoyaltyUpdated","type":"event"},{"anonymous":false,"inputs":[{"indexed":true,"internalType":"address","name":"from","type":"address"},{"indexed":true,"internalType":"address","name":"to","type":"address"},{"indexed":true,"internalType":"uint256","name":"tokenId","type":"uint256"}],"name":"Transfer","type":"event"},{"anonymous":false,"inputs":[{"indexed":false,"internalType":"address","name":"account","type":"address"}],"name":"Unpaused","type":"event"},{"inputs":[],"name":"agentWallet","outputs":[{"internalType":"address","name":"","type":"address"}],"stateMutability":"view","type":"function"},{"inputs":[{"internalType":"address","name":"to","type":"address"},{"internalType":"uint256","name":"tokenId","type":"uint256"}],"name":"approve","outputs":[],"stateMutability":"nonpayable","type":"function"},{"inputs":[{"internalType":"address","name":"owner","type":"address"}],"name":"balanceOf","outputs":[{"internalType":"uint256","name":"","type":"uint256"}],"stateMutability":"view","type":"function"},{"inputs":[{"internalType":"address[]","name":"recipients","type":"address[]"},{"internalType":"string[]","name":"uris","type":"string[]"}],"name":"batchMint","outputs":[{"internalType":"uint256[]","name":"","type":"uint256[]"}],"stateMutability":"nonpayable","type":"function"},{"inputs":[],"name":"collectionURI","outputs":[{"internalType":"string","name":"","type":"string"}],"stateMutability":"view","type":"function"},{"inputs":[{"internalType":"uint256","name":"tokenId","type":"uint256"}],"name":"getApproved","outputs":[{"internalType":"address","name":"","type":"address"}],"stateMutability":"view","type":"function"},{"inputs":[{"internalType":"address","name":"owner","type":"address"},{"internalType":"address","name":"operator","type":"address"}],"name":"isApprovedForAll","outputs":[{"internalType":"bool","name":"","type":"bool"}],"stateMutability":"view","type":"function"},{"inputs":[{"internalType":"address","name":"to","type":"address"},{"internalType":"string","name":"uri","type":"string"}],"name":"mint","outputs":[{"internalType":"uint256","name":"","type":"uint256"}],"stateMutability":"nonpayable","type":"function"},{"inputs":[],"name":"name","outputs":[{"internalType":"string","name":"","type":"string"}],"stateMutability":"view","type":"function"},{"inputs":[],"name":"owner","outputs":[{"internalType":"address","name":"","type":"address"}],"stateMutability":"view","type":"function"},{"inputs":[{"internalType":"uint256","name":"tokenId","type":"uint256"}],"name":"ownerOf","outputs":[{"internalType":"address","name":"","type":"address"}],"stateMutability":"view","type":"function"},{"inputs":[],"name":"pause","outputs":[],"stateMutability":"nonpayable","type":"function"},{"inputs":[],"name":"paused","outputs":[{"internalType":"bool","name":"","type":"bool"}],"stateMutability":"view","type":"function"},{"inputs":[],"name":"renounceOwnership","outputs":[],"stateMutability":"nonpayable","type":"function"},{"inputs":[],"name":"royaltyFee","outputs":[{"internalType":"uint96","name":"","type":"uint96"}],"stateMutability":"view","type":"function"},{"inputs":[{"internalType":"uint256","name":"tokenId","type":"uint256"},{"internalType":"uint256","name":"salePrice","type":"uint256"}],"name":"royaltyInfo","outputs":[{"internalType":"address","name":"receiver","type":"address"},{"internalType":"uint256","name":"amount","type":"uint256"}],"stateMutability":"view","type":"function"},{"inputs":[{"internalType":"address","name":"from","type":"address"},{"internalType":"address","name":"to","type":"address"},{"internalType":"uint256","name":"tokenId","type":"uint256"}],"name":"safeTransferFrom","outputs":[],"stateMutability":"nonpayable","type":"function"},{"inputs":[{"internalType":"address","name":"from","type":"address"},{"internalType":"address","name":"to","type":"address"},{"internalType":"uint256","name":"tokenId","type":"uint256"},{"internalType":"bytes","name":"data","type":"bytes"}],"name":"safeTransferFrom","outputs":[],"stateMutability":"nonpayable","type":"function"},{"inputs":[{"internalType":"address","name":"operator","type":"address"},{"internalType":"bool","name":"approved","type":"bool"}],"name":"setApprovalForAll","outputs":[],"stateMutability":"nonpayable","type":"function"},{"inputs":[{"internalType":"bytes4","name":"interfaceId","type":"bytes4"}],"name":"supportsInterface","outputs":[{"internalType":"bool","name":"","type":"bool"}],"stateMutability":"view","type":"function"},{"inputs":[],"name":"symbol","outputs":[{"internalType":"string","name":"","type":"string"}],"stateMutability":"view","type":"function"},{"inputs":[{"internalType":"uint256","name":"tokenId","type":"uint256"}],"name":"tokenURI","outputs":[{"internalType":"string","name":"","type":"string"}],"stateMutability":"view","type":"function"},{"inputs":[],"name":"totalSupply","outputs":[{"internalType":"uint256","name":"","type":"uint256"}],"stateMutability":"view","type":"function"},{"inputs":[{"internalType":"address","name":"from","type":"address"},{"internalType":"address","name":"to","type":"address"},{"internalType":"uint256","name":"tokenId","type":"uint256"}],"name":"transferFrom","outputs":[],"stateMutability":"nonpayable","type":"function"},{"inputs":[{"internalType":"address","name":"newOwner","type":"address"}],"name":"transferOwnership","outputs":[],"stateMutability":"nonpayable","type":"function"},{"inputs":[],"name":"unpause","outputs":[],"stateMutability":"nonpayable","type":"function"},{"inputs":[{"internalType":"string","name":"newURI","type":"string"}],"name":"updateCollectionURI","outputs":[],"stateMutability":"nonpayable","type":"function"},{"inputs":[{"internalType":"address","name":"receiver","type":"address"},{"internalType":"uint96","name":"feeNumerator","type":"uint96"}],"name":"updateRoyalty","outputs":[],"stateMutability":"nonpayable","type":"function"}],"evm":{"bytecode":{"linkReferences":{},"object":"60406080815234620005c257620021e4803803806200001e81620005c7565b92833981019060a081830312620005c25780516001600160401b039290838111620005c2578162000051918401620005ed565b9060209182840151858111620005c257826200006f918601620005ed565b918685015190868211620005c2576200008a918601620005ed565b9360608101519160018060a01b0391828416809403620005c257608001516001600160601b03811696909190878303620005c2578151898111620005ac576000968754916001948584811c94168015620005a1575b8b851014620004a75781908b601f958681116200054b575b50508b90858311600114620004e6578b92620004da575b5050600019600383901b1c191690851b1788555b8051908b8211620004c65784548581811c91168015620004bb575b8b821014620004a75790818484931162000454575b508a90848311600114620003ef578a92620003e3575b5050600019600383901b1c191690841b1783555b8515620003cb57600980546001600160a01b0319808216891790925590958791167f8be0079c531659141344cd1fd0a4f28419497f9722a3daafe3b4186f6b6457e08980a36103e8891162000387578151918a83116200037357600b548481811c9116801562000368575b8a82101462000354578281116200030b575b5088918311600114620002a557928293918392899462000299575b50501b916000199060031b1c191617600b555b60a01b1681179485600c556127108086116200027c57508651928388019182118483101762000268575086528152015260075551611b849081620006608239f35b634e487b7160e01b81526041600452602490fd5b85604491895191636f483d0960e01b835260048301526024820152fd5b01519250388062000214565b600b8852888820919083601f1981168a5b8c88838310620002f35750505010620002d9575b505050811b01600b5562000227565b015160001960f88460031b161c19169055388080620002ca565b868601518855909601959485019487935001620002b6565b600b89528989208380860160051c8201928c87106200034a575b0160051c019085905b8281106200033e575050620001f9565b8a81550185906200032e565b9250819262000325565b634e487b7160e01b89526022600452602489fd5b90607f1690620001e7565b634e487b7160e01b88526041600452602488fd5b8a5162461bcd60e51b815260048101899052601460248201527f526f79616c74792066656520746f6f20686967680000000000000000000000006044820152606490fd5b8a51631e4fbdf760e01b815260048101889052602490fd5b01519050388062000168565b868b528b8b208794509190601f1984168c8e5b8282106200043c575050841162000422575b505050811b0183556200017c565b015160001960f88460031b161c1916905538808062000414565b8385015186558a979095019493840193018e62000402565b909150858a528a8a208480850160051c8201928d86106200049d575b918891869594930160051c01915b8281106200048e57505062000152565b8c81558594508891016200047e565b9250819262000470565b634e487b7160e01b8a52602260045260248afd5b90607f16906200013d565b634e487b7160e01b89526041600452602489fd5b0151905038806200010e565b8b80528c8c208894509190601f1984168d8f5b82821062000533575050841162000519575b505050811b01885562000122565b015160001960f88460031b161c191690553880806200050b565b8385015186558b979095019493840193018f620004f9565b909192508b805285828d209181860160051c830193861062000597575b918991869594930160051c01915b8281106200058857508d9150620000f7565b8d815585945089910162000576565b9250819262000568565b93607f1693620000df565b634e487b7160e01b600052604160045260246000fd5b600080fd5b6040519190601f01601f191682016001600160401b03811183821017620005ac57604052565b919080601f84011215620005c25782516001600160401b038111620005ac5760209062000623601f8201601f19168301620005c7565b92818452828287010111620005c25760005b8181106200064b57508260009394955001015290565b85810183015184820184015282016200063556fe6080604081815260048036101561001557600080fd5b600092833560e01c90816301ffc9a71461110f5750806306fdde0314611067578063081812fc1461102c578063095ea7b314610f5057806318160ddd14610f3157806323b872dd14610f195780632a55205a14610e785780633f4ba83a14610e095780633f6dfdbc14610de057806342842e0e14610db15780635c975abb14610d8a5780636352211e14610d5957806364ba144e14610ab857806370a0823114610a63578063715018a614610a065780637910af6f1461081c5780638456cb59146107bb5780638da5cb5b1461079257806395d89b41146106ea578063a22cb46514610649578063a5097ebf14610564578063b88d4fde146104f5578063b8997a97146104d3578063c87b56dd146103de578063d0def5211461038d578063daa83c6d14610236578063e985e9c5146101e45763f2fde38b1461015757600080fd5b346101e05760203660031901126101e0576101706111ef565b9061017961136c565b6001600160a01b039182169283156101ca575050600954826001600160601b0360a01b821617600955167f8be0079c531659141344cd1fd0a4f28419497f9722a3daafe3b4186f6b6457e08380a380f35b51631e4fbdf760e01b8152908101849052602490fd5b8280fd5b50503461023257806003193601126102325760ff816020936102046111ef565b61020c61120a565b6001600160a01b0391821683526005875283832091168252855220549151911615158152f35b5080fd5b5090346101e057806003193601126101e0576102506111ef565b90602435916001600160601b038316928381036103895761026f61136c565b6103e8841161034f5761271080851161033357506001600160a01b0391821694851561031c578351908482019082821067ffffffffffffffff8311176103095750918560207f8039bd6e4e7dba001c8840eb2e118d9d131246faa7d0d04335f7305127ec0b10979593879582985289815201526001600160601b0360a01b9060a01b1690818717600755600c541617600c5551908152a280f35b634e487b7160e01b895260419052602488fd5b8351635b6cc80560e11b8152908101879052602490fd5b8560449186865192636f483d0960e01b84528301526024820152fd5b825162461bcd60e51b815260208187015260146024820152730a4def2c2d8e8f240cccaca40e8dede40d0d2ced60631b6044820152606490fd5b8580fd5b50346101e057816003193601126101e0576103a66111ef565b926024359067ffffffffffffffff82116103db5750926103ce6103d492602095369101611314565b906116bf565b9051908152f35b80fd5b5090346101e057602091826003193601126104cf57356103fd8161153a565b5083526006825280832092815180948290805461041981611332565b918285526001918883821691826000146104a857505060011461046a575b50505061046693929161044b910386611287565b815161045681611255565b52519282849384528301906111af565b0390f35b8552868520879350859291905b828410610490575050508201018161044b610466610437565b8054848b018601528995508894909301928101610477565b60ff19168782015293151560051b8601909301935084925061044b91506104669050610437565b8380fd5b505034610232578160031936011261023257602090600c5460a01c9051908152f35b838234610232576080366003190112610232576105106111ef565b61051861120a565b6044359060643567ffffffffffffffff81116103895736602382011215610389576105619481602461054f933693013591016112dd565b9261055b838383611398565b33611575565b80f35b50503461023257816003193601126102325780519082600b5461058681611332565b8085529160019180831690811561062157506001146105c4575b5050506105b282610466940383611287565b519182916020835260208301906111af565b9450600b85527f0175b7a638427703f0dbe7bb9bbf987a2551717b34e79f33b5b1008d1fa01db95b828610610609575050506105b282602061046695820101946105a0565b805460208787018101919091529095019481016105ec565b6104669750869350602092506105b294915060ff191682840152151560051b820101946105a0565b5090346101e057806003193601126101e0576106636111ef565b90602435918215158093036106e6576001600160a01b03169283156106d15750338452600560205280842083855260205280842060ff1981541660ff8416179055519081527f17307eab39ab6107e8899845ad3d59bd9653f200f220920489ca2b5937696c3160203392a380f35b836024925191630b61174360e31b8352820152fd5b8480fd5b50503461023257816003193601126102325780519082600180549161070e83611332565b808652928281169081156106215750600114610736575050506105b282610466940383611287565b94508085527fb10e2d527612073b26eecdfd717e6a320cf44b4afac2b0732d9fcbe2b7fa0cf65b82861061077a575050506105b282602061046695820101946105a0565b8054602087870181019190915290950194810161075d565b50503461023257816003193601126102325760095490516001600160a01b039091168152602090f35b50503461023257816003193601126102325760207f62e78cea01bee320cd4e420270b5ea74000d11b0c9f74754ebdbfc544b05a258916107f961136c565b610801611b03565b6009805460ff60a01b1916600160a01b17905551338152a180f35b5082903461023257602092836003193601126101e05767ffffffffffffffff82358181116106e6576108519036908501611314565b9261085a61136c565b83519182116109f3575061086f600b54611332565b601f8111610991575b5084601f82116001146108eb5791816108da928697947f88200832d1fe27eee076bea36a10a1eb73b9d27d9e6e5e2626a83d62ffc9ae5c97916108e0575b508160011b916000199060031b1c191617600b555b519282849384528301906111af565b0390a180f35b9050850151886108b6565b600b85527f0175b7a638427703f0dbe7bb9bbf987a2551717b34e79f33b5b1008d1fa01db990601f198316865b81811061097a5750927f88200832d1fe27eee076bea36a10a1eb73b9d27d9e6e5e2626a83d62ffc9ae5c96979492600192826108da9610610961575b5050811b01600b556108cb565b87015160001960f88460031b161c191690558880610954565b91928860018192868a015181550194019201610918565b600b85527f0175b7a638427703f0dbe7bb9bbf987a2551717b34e79f33b5b1008d1fa01db9601f830160051c8101918784106109e9575b601f0160051c01905b8181106109de5750610878565b8581556001016109d1565b90915081906109c8565b634e487b7160e01b855260419052602484fd5b83346103db57806003193601126103db57610a1f61136c565b600980546001600160a01b0319811690915581906001600160a01b03167f8be0079c531659141344cd1fd0a4f28419497f9722a3daafe3b4186f6b6457e08280a380f35b5091346103db5760203660031901126103db576001600160a01b03610a866111ef565b16928315610aa35750806020938392526003845220549051908152f35b91516322718ad960e21b815291820152602490fd5b5082903461023257826003193601126102325780359067ffffffffffffffff938483116104cf57366023840112156104cf578282013591610af8836112a9565b92610b0583519485611287565b8084526020948585016024809360051b83010191368311610d55578301905b828210610d3657505050803596808811610d325736602389011215610d325787830135610b50816112a9565b98610b5d86519a8b611287565b818a5283888b019260051b82010192368411610d2e57848201925b848410610d04575050505050610b8c61136c565b610b94611b03565b8351875103610ccc57835115610c9d576064845111610c6b575050815192610bd3610bbe856112a9565b94610bcb84519687611287565b8086526112a9565b8482019190601f1901368337855b8451811015610c2b57610c2690610c166001600160a01b03610c038389611b24565b5116610c0f838c611b24565b51906116bf565b610c208289611b24565b52611ade565b610be1565b509190858583519485948186019282875251809352850193925b828110610c5457505050500390f35b835185528695509381019392810192600101610c45565b600f9085606494519362461bcd60e51b85528401528201526e426174636820746f6f206c6172676560881b6044820152fd5b600c9085606494519362461bcd60e51b85528401528201526b456d7074792061727261797360a01b6044820152fd5b60159085606494519362461bcd60e51b855284015282015274082e4e4c2f240d8cadccee8d040dad2e6dac2e8c6d605b1b6044820152fd5b8335828111610d2a578a91610d1f8392893691880101611314565b815201930192610b78565b8b80fd5b8980fd5b8680fd5b81356001600160a01b0381168103610d2e578152908701908701610b24565b8880fd5b5091346103db5760203660031901126103db5750610d796020923561153a565b90516001600160a01b039091168152f35b50503461023257816003193601126102325760209060ff60095460a01c1690519015158152f35b5050346102325761056190610dc536611220565b91925192610dd284611255565b85845261055b838383611398565b505034610232578160031936011261023257600c5490516001600160a01b039091168152602090f35b50346101e057826003193601126101e057610e2261136c565b6009549060ff8260a01c1615610e6a575060ff60a01b1916600955513381527f5db9ee0a495bf2e6ff9c91a7834c1ba4fdd244a5e8aa4e537bd38aeae4b073aa90602090a180f35b8251638dfc202b60e01b8152fd5b5091346103db57816003193601126103db5782358152600860205281812054602435926001600160a01b0380831693919260a01c908415610eff575b506001600160601b031693848102948186041490151715610eec5781516001600160a01b038416815261271085046020820152604090f35b634e487b7160e01b815260118552602490fd5b600754908116945060a01c90506001600160601b03610eb4565b83346103db57610561610f2b36611220565b91611398565b505034610232578160031936011261023257602090600a549051908152f35b5090346101e057806003193601126101e057610f6a6111ef565b91602435610f778161153a565b33151580611019575b80610ff0575b610fda576001600160a01b039485169482918691167f8c5be1e5ebec7d5bd14f71427d1e84f3dd0314c0f7b2291e5b200ac8c7c3b9258880a48452602052822080546001600160a01b031916909117905580f35b835163a9fbf51f60e01b81523381850152602490fd5b506001600160a01b03811686526005602090815284872033885290528386205460ff1615610f86565b506001600160a01b038116331415610f80565b50346101e05760203660031901126101e05791826020933561104d8161153a565b50825283528190205490516001600160a01b039091168152f35b50503461023257816003193601126102325780519082805461108881611332565b8085529160019180831690811561062157506001146110b3575050506105b282610466940383611287565b80809650527f290decd9548b62a8d60345a988386fc84ba6bc95484008f6362f93160ef3e5635b8286106110f7575050506105b282602061046695820101946105a0565b805460208787018101919091529095019481016110da565b925050346101e05760203660031901126101e0573563ffffffff60e01b81168091036101e0576020925063152a902d60e11b8114908115611152575b5015158152f35b632483248360e11b81149150811561116c575b503861114b565b6380ac58cd60e01b81149150811561119e575b811561118d575b5038611165565b6301ffc9a760e01b14905038611186565b635b5e139f60e01b8114915061117f565b919082519283825260005b8481106111db575050826000602080949584010152601f8019910116010190565b6020818301810151848301820152016111ba565b600435906001600160a01b038216820361120557565b600080fd5b602435906001600160a01b038216820361120557565b6060906003190112611205576001600160a01b0390600435828116810361120557916024359081168103611205579060443590565b6020810190811067ffffffffffffffff82111761127157604052565b634e487b7160e01b600052604160045260246000fd5b90601f8019910116810190811067ffffffffffffffff82111761127157604052565b67ffffffffffffffff81116112715760051b60200190565b67ffffffffffffffff811161127157601f01601f191660200190565b9291926112e9826112c1565b916112f76040519384611287565b829481845281830111611205578281602093846000960137010152565b9080601f830112156112055781602061132f933591016112dd565b90565b90600182811c92168015611362575b602083101461134c57565b634e487b7160e01b600052602260045260246000fd5b91607f1691611341565b6009546001600160a01b0316330361138057565b60405163118cdaa760e01b8152336004820152602490fd5b6001600160a01b03918216929091831561152157600092828452826020956002875260409684888820541696879133151580611488575b509060027fddf252ad1be2c89b69c2b068fc378daa952ba7f163c4a11628f55a4df523b3ef9284611455575b858352600381528b8320805460010190558683525289812080546001600160a01b0319168517905580a416928383036114345750505050565b6064945051926364283d7b60e01b8452600484015260248301526044820152fd5b600087815260046020526040902080546001600160a01b0319169055848352600381528b832080546000190190556113fb565b919394509150806114e0575b156114a4578592918791386113cf565b8786886114c1576024915190637e27328960e01b82526004820152fd5b905163177e802f60e01b81523360048201526024810191909152604490fd5b503387148015611505575b806114945750858252600481523385898420541614611494565b5086825260058152878220338352815260ff88832054166114eb565b604051633250574960e11b815260006004820152602490fd5b6000818152600260205260409020546001600160a01b031690811561155d575090565b60249060405190637e27328960e01b82526004820152fd5b90939192833b611587575b5050505050565b604051630a85bd0160e11b8082526001600160a01b0393841660048301529583166024820152604481019190915260806064820152949216926020929185906115d49060848301906111af565b039483816000978189895af186918161167f575b50611649575050503d600014611640573d611602816112c1565b906116106040519283611287565b81528093823d92013e5b8251928361163b57604051633250574960e11b815260048101849052602490fd5b019050fd5b6060925061161a565b919450915063ffffffff60e01b160361166757503880808080611580565b60249060405190633250574960e11b82526004820152fd5b9091508481813d83116116b8575b6116978183611287565b81010312610d3257516001600160e01b031981168103610d325790386115e8565b503d61168d565b9190916116ca61136c565b6116d2611b03565b600a54906116df82611ade565b600a5560409384516116f081611255565b6000808252956001600160a01b03848116949092908515611ac65790889493929187865260209360028552838720541688888215159283611a93575b818a52600388527fddf252ad1be2c89b69c2b068fc378daa952ba7f163c4a11628f55a4df523b3ef878b209a60019b8c815401905584815260028a52888120846001600160601b0360a01b82541617905580a4611a7b579089913b611950575b50869052600682528088209383519067ffffffffffffffff821161193c578798996117ba8798999754611332565b601f81116118e5575b508490601f841160011461185d5792807f06becd955c918828f6e985541acbf49cc842c9e9bd569fffc7698e721ef13575989993819361184c979693611852575b501b916000199060031b1c19161790555b7ff8e1a15aba9398e019f0b49df1a4fde98ee17ae345cb5f6b5e2c27f5033e8ce7838251888152a1519282849384528301906111af565b0390a390565b890151925038611804565b979290601f198216848a52868a20995b8181106118cd575098829161184c969594937f06becd955c918828f6e985541acbf49cc842c9e9bd569fffc7698e721ef135759a9b106118b4575b5050811b019055611815565b88015160001960f88460031b161c1916905538806118a8565b828901518b55998401998c995091870191870161186d565b9091929394959650878252858220601f850160051c810191878610611932575b90601f8c99989796959493920160051c01905b81811061192557506117c3565b8281558b98508301611918565b9091508190611905565b634e487b7160e01b8a52604160045260248afd5b8361199191849996949a9795989a5180938192630a85bd0160e11b9687845233600485015260248401528960448401526080606484015260848301906111af565b03818d8d5af18a9181611a37575b50611a02575050505050503d6000146119f9573d6119bc816112c1565b906119c984519283611287565b81528094823d92013e5b835193846119f3578251633250574960e11b815260048101859052602490fd5b84925001fd5b606093506119d3565b63ffffffff60e09997949699989395981b1603611a2057873861178c565b51633250574960e11b815260048101859052602490fd5b9091508781813d8311611a74575b611a4f8183611287565b81010312611a7057516001600160e01b031981168103611a7057903861199f565b8a80fd5b503d611a45565b82516339e3563760e11b8152600481018b9052602490fd5b600083815260046020526040902080546001600160a01b0319169055808a5260038852868a20805460001901905561172c565b8251633250574960e11b8152600481018a9052602490fd5b6000198114611aed5760010190565b634e487b7160e01b600052601160045260246000fd5b60ff60095460a01c16611b1257565b60405163d93c066560e01b8152600490fd5b8051821015611b385760209160051b010190565b634e487b7160e01b600052603260045260246000fdfea26469706673582212203ef4abd3e64ed1049d806cc39b548c3ff90bf913bcc80d8a3b5dcbdeca7385ed64736f6c63430008140033","opcodes":"PUSH1 0x40 PUSH1 0x80 DUP2 MSTORE CALLVALUE PUSH3 0x5C2 JUMPI PUSH3 0x21E4 DUP1 CODESIZE SUB DUP1 PUSH3 0x1E DUP2 PUSH3 0x5C7 JUMP JUMPDEST SWAP3 DUP4 CODECOPY DUP2 ADD SWAP1 PUSH1 0xA0 DUP2 DUP4 SUB SLT PUSH3 0x5C2 JUMPI DUP1 MLOAD PUSH1 0x1 PUSH1 0x1 PUSH1 0x40 SHL SUB SWAP3 SWAP1 DUP4 DUP2 GT PUSH3 0x5C2 JUMPI DUP2 PUSH3 0x51 SWAP2 DUP5 ADD PUSH3 0x5ED JUMP JUMPDEST SWAP1 PUSH1 0x20 SWAP2 DUP3 DUP5 ADD MLOAD DUP6 DUP2 GT PUSH3 0x5C2 JUMPI DUP3 PUSH3 0x6F SWAP2 DUP7 ADD PUSH3 0x5ED JUMP JUMPDEST SWAP2 DUP7 DUP6 ADD MLOAD SWAP1 DUP7 DUP3 GT PUSH3 0x5C2 JUMPI PUSH3 0x8A SWAP2 DUP7 ADD PUSH3 0x5ED JUMP JUMPDEST SWAP4 PUSH1 0x60 DUP2 ADD MLOAD SWAP2 PUSH1 0x1 DUP1 PUSH1 0xA0 SHL SUB SWAP2 DUP3 DUP5 AND DUP1 SWAP5 SUB PUSH3 0x5C2 JUMPI PUSH1 0x80 ADD MLOAD PUSH1 0x1 PUSH1 0x1 PUSH1 0x60 SHL SUB DUP2 AND SWAP7 SWAP1 SWAP2 SWAP1 DUP8 DUP4 SUB PUSH3 0x5C2 JUMPI DUP2 MLOAD DUP10 DUP2 GT PUSH3 0x5AC JUMPI PUSH1 0x0 SWAP7 DUP8 SLOAD SWAP2 PUSH1 0x1 SWAP5 DUP6 DUP5 DUP2 SHR SWAP5 AND DUP1 ISZERO PUSH3 0x5A1 JUMPI JUMPDEST DUP12 DUP6 LT EQ PUSH3 0x4A7 JUMPI DUP2 SWAP1 DUP12 PUSH1 0x1F SWAP6 DUP7 DUP2 GT PUSH3 0x54B JUMPI JUMPDEST POP POP DUP12 SWAP1 DUP6 DUP4 GT PUSH1 0x1 EQ PUSH3 0x4E6 JUMPI DUP12 SWAP3 PUSH3 0x4DA JUMPI JUMPDEST POP POP PUSH1 0x0 NOT PUSH1 0x3 DUP4 SWAP1 SHL SHR NOT AND SWAP1 DUP6 SHL OR DUP9 SSTORE JUMPDEST DUP1 MLOAD SWAP1 DUP12 DUP3 GT PUSH3 0x4C6 JUMPI DUP5 SLOAD DUP6 DUP2 DUP2 SHR SWAP2 AND DUP1 ISZERO PUSH3 0x4BB JUMPI JUMPDEST DUP12 DUP3 LT EQ PUSH3 0x4A7 JUMPI SWAP1 DUP2 DUP5 DUP5 SWAP4 GT PUSH3 0x454 JUMPI JUMPDEST POP DUP11 SWAP1 DUP5 DUP4 GT PUSH1 0x1 EQ PUSH3 0x3EF JUMPI DUP11 SWAP3 PUSH3 0x3E3 JUMPI JUMPDEST POP POP PUSH1 0x0 NOT PUSH1 0x3 DUP4 SWAP1 SHL SHR NOT AND SWAP1 DUP5 SHL OR DUP4 SSTORE JUMPDEST DUP6 ISZERO PUSH3 0x3CB JUMPI PUSH1 0x9 DUP1 SLOAD PUSH1 0x1 PUSH1 0x1 PUSH1 0xA0 SHL SUB NOT DUP1 DUP3 AND DUP10 OR SWAP1 SWAP3 SSTORE SWAP1 SWAP6 DUP8 SWAP2 AND PUSH32 0x8BE0079C531659141344CD1FD0A4F28419497F9722A3DAAFE3B4186F6B6457E0 DUP10 DUP1 LOG3 PUSH2 0x3E8 DUP10 GT PUSH3 0x387 JUMPI DUP2 MLOAD SWAP2 DUP11 DUP4 GT PUSH3 0x373 JUMPI PUSH1 0xB SLOAD DUP5 DUP2 DUP2 SHR SWAP2 AND DUP1 ISZERO PUSH3 0x368 JUMPI JUMPDEST DUP11 DUP3 LT EQ PUSH3 0x354 JUMPI DUP3 DUP2 GT PUSH3 0x30B JUMPI JUMPDEST POP DUP9 SWAP2 DUP4 GT PUSH1 0x1 EQ PUSH3 0x2A5 JUMPI SWAP3 DUP3 SWAP4 SWAP2 DUP4 SWAP3 DUP10 SWAP5 PUSH3 0x299 JUMPI JUMPDEST POP POP SHL SWAP2 PUSH1 0x0 NOT SWAP1 PUSH1 0x3 SHL SHR NOT AND OR PUSH1 0xB SSTORE JUMPDEST PUSH1 0xA0 SHL AND DUP2 OR SWAP5 DUP6 PUSH1 0xC SSTORE PUSH2 0x2710 DUP1 DUP7 GT PUSH3 0x27C JUMPI POP DUP7 MLOAD SWAP3 DUP4 DUP9 ADD SWAP2 DUP3 GT DUP5 DUP4 LT OR PUSH3 0x268 JUMPI POP DUP7 MSTORE DUP2 MSTORE ADD MSTORE PUSH1 0x7 SSTORE MLOAD PUSH2 0x1B84 SWAP1 DUP2 PUSH3 0x660 DUP3 CODECOPY RETURN JUMPDEST PUSH4 0x4E487B71 PUSH1 0xE0 SHL DUP2 MSTORE PUSH1 0x41 PUSH1 0x4 MSTORE PUSH1 0x24 SWAP1 REVERT JUMPDEST DUP6 PUSH1 0x44 SWAP2 DUP10 MLOAD SWAP2 PUSH4 0x6F483D09 PUSH1 0xE0 SHL DUP4 MSTORE PUSH1 0x4 DUP4 ADD MSTORE PUSH1 0x24 DUP3 ADD MSTORE REVERT JUMPDEST ADD MLOAD SWAP3 POP CODESIZE DUP1 PUSH3 0x214 JUMP JUMPDEST PUSH1 0xB DUP9 MSTORE DUP9 DUP9 KECCAK256 SWAP2 SWAP1 DUP4 PUSH1 0x1F NOT DUP2 AND DUP11 JUMPDEST DUP13 DUP9 DUP4 DUP4 LT PUSH3 0x2F3 JUMPI POP POP POP LT PUSH3 0x2D9 JUMPI JUMPDEST POP POP POP DUP2 SHL ADD PUSH1 0xB SSTORE PUSH3 0x227 JUMP JUMPDEST ADD MLOAD PUSH1 0x0 NOT PUSH1 0xF8 DUP5 PUSH1 0x3 SHL AND SHR NOT AND SWAP1 SSTORE CODESIZE DUP1 DUP1 PUSH3 0x2CA JUMP JUMPDEST DUP7 DUP7 ADD MLOAD DUP9 SSTORE SWAP1 SWAP7 ADD SWAP6 SWAP5 DUP6 ADD SWAP5 DUP8 SWAP4 POP ADD PUSH3 0x2B6 JUMP JUMPDEST PUSH1 0xB DUP10 MSTORE DUP10 DUP10 KECCAK256 DUP4 DUP1 DUP7 ADD PUSH1 0x5 SHR DUP3 ADD SWAP3 DUP13 DUP8 LT PUSH3 0x34A JUMPI JUMPDEST ADD PUSH1 0x5 SHR ADD SWAP1 DUP6 SWAP1 JUMPDEST DUP3 DUP2 LT PUSH3 0x33E JUMPI POP POP PUSH3 0x1F9 JUMP JUMPDEST DUP11 DUP2 SSTORE ADD DUP6 SWAP1 PUSH3 0x32E JUMP JUMPDEST SWAP3 POP DUP2 SWAP3 PUSH3 0x325 JUMP JUMPDEST PUSH4 0x4E487B71 PUSH1 0xE0 SHL DUP10 MSTORE PUSH1 0x22 PUSH1 0x4 MSTORE PUSH1 0x24 DUP10 REVERT JUMPDEST SWAP1 PUSH1 0x7F AND SWAP1 PUSH3 0x1E7 JUMP JUMPDEST PUSH4 0x4E487B71 PUSH1 0xE0 SHL DUP9 MSTORE PUSH1 0x41 PUSH1 0x4 MSTORE PUSH1 0x24 DUP9 REVERT JUMPDEST DUP11 MLOAD PUSH3 0x461BCD PUSH1 0xE5 SHL DUP2 MSTORE PUSH1 0x4 DUP2 ADD DUP10 SWAP1 MSTORE PUSH1 0x14 PUSH1 0x24 DUP3 ADD MSTORE PUSH32 0x526F79616C74792066656520746F6F2068696768000000000000000000000000 PUSH1 0x44 DUP3 ADD MSTORE PUSH1 0x64 SWAP1 REVERT JUMPDEST DUP11 MLOAD PUSH4 0x1E4FBDF7 PUSH1 0xE0 SHL DUP2 MSTORE PUSH1 0x4 DUP2 ADD DUP9 SWAP1 MSTORE PUSH1 0x24 SWAP1 REVERT JUMPDEST ADD MLOAD SWAP1 POP CODESIZE DUP1 PUSH3 0x168 JUMP JUMPDEST DUP7 DUP12 MSTORE DUP12 DUP12 KECCAK256 DUP8 SWAP5 POP SWAP2 SWAP1 PUSH1 0x1F NOT DUP5 AND DUP13 DUP15 JUMPDEST DUP3 DUP3 LT PUSH3 0x43C JUMPI POP POP DUP5 GT PUSH3 0x422 JUMPI JUMPDEST POP POP POP DUP2 SHL ADD DUP4 SSTORE PUSH3 0x17C JUMP JUMPDEST ADD MLOAD PUSH1 0x0 NOT PUSH1 0xF8 DUP5 PUSH1 0x3 SHL AND SHR NOT AND SWAP1 SSTORE CODESIZE DUP1 DUP1 PUSH3 0x414 JUMP JUMPDEST DUP4 DUP6 ADD MLOAD DUP7 SSTORE DUP11 SWAP8 SWAP1 SWAP6 ADD SWAP5 SWAP4 DUP5 ADD SWAP4 ADD DUP15 PUSH3 0x402 JUMP JUMPDEST SWAP1 SWAP2 POP DUP6 DUP11 MSTORE DUP11 DUP11 KECCAK256 DUP5 DUP1 DUP6 ADD PUSH1 0x5 SHR DUP3 ADD SWAP3 DUP14 DUP7 LT PUSH3 0x49D JUMPI JUMPDEST SWAP2 DUP9 SWAP2 DUP7 SWAP6 SWAP5 SWAP4 ADD PUSH1 0x5 SHR ADD SWAP2 JUMPDEST DUP3 DUP2 LT PUSH3 0x48E JUMPI POP POP PUSH3 0x152 JUMP JUMPDEST DUP13 DUP2 SSTORE DUP6 SWAP5 POP DUP9 SWAP2 ADD PUSH3 0x47E JUMP JUMPDEST SWAP3 POP DUP2 SWAP3 PUSH3 0x470 JUMP JUMPDEST PUSH4 0x4E487B71 PUSH1 0xE0 SHL DUP11 MSTORE PUSH1 0x22 PUSH1 0x4 MSTORE PUSH1 0x24 DUP11 REVERT JUMPDEST SWAP1 PUSH1 0x7F AND SWAP1 PUSH3 0x13D JUMP JUMPDEST PUSH4 0x4E487B71 PUSH1 0xE0 SHL DUP10 MSTORE PUSH1 0x41 PUSH1 0x4 MSTORE PUSH1 0x24 DUP10 REVERT JUMPDEST ADD MLOAD SWAP1 POP CODESIZE DUP1 PUSH3 0x10E JUMP JUMPDEST DUP12 DUP1 MSTORE DUP13 DUP13 KECCAK256 DUP9 SWAP5 POP SWAP2 SWAP1 PUSH1 0x1F NOT DUP5 AND DUP14 DUP16 JUMPDEST DUP3 DUP3 LT PUSH3 0x533 JUMPI POP POP DUP5 GT PUSH3 0x519 JUMPI JUMPDEST POP POP POP DUP2 SHL ADD DUP9 SSTORE PUSH3 0x122 JUMP JUMPDEST ADD MLOAD PUSH1 0x0 NOT PUSH1 0xF8 DUP5 PUSH1 0x3 SHL AND SHR NOT AND SWAP1 SSTORE CODESIZE DUP1 DUP1 PUSH3 0x50B JUMP JUMPDEST DUP4 DUP6 ADD MLOAD DUP7 SSTORE DUP12 SWAP8 SWAP1 SWAP6 ADD SWAP5 SWAP4 DUP5 ADD SWAP4 ADD DUP16 PUSH3 0x4F9 JUMP JUMPDEST SWAP1 SWAP2 SWAP3 POP DUP12 DUP1 MSTORE DUP6 DUP3 DUP14 KECCAK256 SWAP2 DUP2 DUP7 ADD PUSH1 0x5 SHR DUP4 ADD SWAP4 DUP7 LT PUSH3 0x597 JUMPI JUMPDEST SWAP2 DUP10 SWAP2 DUP7 SWAP6 SWAP5 SWAP4 ADD PUSH1 0x5 SHR ADD SWAP2 JUMPDEST DUP3 DUP2 LT PUSH3 0x588 JUMPI POP DUP14 SWAP2 POP PUSH3 0xF7 JUMP JUMPDEST DUP14 DUP2 SSTORE DUP6 SWAP5 POP DUP10 SWAP2 ADD PUSH3 0x576 JUMP JUMPDEST SWAP3 POP DUP2 SWAP3 PUSH3 0x568 JUMP JUMPDEST SWAP4 PUSH1 0x7F AND SWAP4 PUSH3 0xDF JUMP JUMPDEST PUSH4 0x4E487B71 PUSH1 0xE0 SHL PUSH1 0x0 MSTORE PUSH1 0x41 PUSH1 0x4 MSTORE PUSH1 0x24 PUSH1 0x0 REVERT JUMPDEST PUSH1 0x0 DUP1 REVERT JUMPDEST PUSH1 0x40 MLOAD SWAP2 SWAP1 PUSH1 0x1F ADD PUSH1 0x1F NOT AND DUP3 ADD PUSH1 0x1 PUSH1 0x1 PUSH1 0x40 SHL SUB DUP2 GT DUP4 DUP3 LT OR PUSH3 0x5AC JUMPI PUSH1 0x40 MSTORE JUMP JUMPDEST SWAP2 SWAP1 DUP1 PUSH1 0x1F DUP5 ADD SLT ISZERO PUSH3 0x5C2 JUMPI DUP3 MLOAD PUSH1 0x1 PUSH1 0x1 PUSH1 0x40 SHL SUB DUP2 GT PUSH3 0x5AC JUMPI PUSH1 0x20 SWAP1 PUSH3 0x623 PUSH1 0x1F DUP3 ADD PUSH1 0x1F NOT AND DUP4 ADD PUSH3 0x5C7 JUMP JUMPDEST SWAP3 DUP2 DUP5 MSTORE DUP3 DUP3 DUP8 ADD ADD GT PUSH3 0x5C2 JUMPI PUSH1 0x0 JUMPDEST DUP2 DUP2 LT PUSH3 0x64B JUMPI POP DUP3 PUSH1 0x0 SWAP4 SWAP5 SWAP6 POP ADD ADD MSTORE SWAP1 JUMP JUMPDEST DUP6 DUP2 ADD DUP4 ADD MLOAD DUP5 DUP3 ADD DUP5 ADD MSTORE DUP3 ADD PUSH3 0x635 JUMP INVALID PUSH1 0x80 PUSH1 0x40 DUP2 DUP2 MSTORE PUSH1 0x4 DUP1 CALLDATASIZE LT ISZERO PUSH2 0x15 JUMPI PUSH1 0x0 DUP1 REVERT JUMPDEST PUSH1 0x0 SWAP3 DUP4 CALLDATALOAD PUSH1 0xE0 SHR SWAP1 DUP2 PUSH4 0x1FFC9A7 EQ PUSH2 0x110F JUMPI POP DUP1 PUSH4 0x6FDDE03 EQ PUSH2 0x1067 JUMPI DUP1 PUSH4 0x81812FC EQ PUSH2 0x102C JUMPI DUP1 PUSH4 0x95EA7B3 EQ PUSH2 0xF50 JUMPI DUP1 PUSH4 0x18160DDD EQ PUSH2 0xF31 JUMPI DUP1 PUSH4 0x23B872DD EQ PUSH2 0xF19 JUMPI DUP1 PUSH4 0x2A55205A EQ PUSH2 0xE78 JUMPI DUP1 PUSH4 0x3F4BA83A EQ PUSH2 0xE09 JUMPI DUP1 PUSH4 0x3F6DFDBC EQ PUSH2 0xDE0 JUMPI DUP1 PUSH4 0x42842E0E EQ PUSH2 0xDB1 JUMPI DUP1 PUSH4 0x5C975ABB EQ PUSH2 0xD8A JUMPI DUP1 PUSH4 0x6352211E EQ PUSH2 0xD59 JUMPI DUP1 PUSH4 0x64BA144E EQ PUSH2 0xAB8 JUMPI DUP1 PUSH4 0x70A08231 EQ PUSH2 0xA63 JUMPI DUP1 PUSH4 0x715018A6 EQ PUSH2 0xA06 JUMPI DUP1 PUSH4 0x7910AF6F EQ PUSH2 0x81C JUMPI DUP1 PUSH4 0x8456CB59 EQ PUSH2 0x7BB JUMPI DUP1 PUSH4 0x8DA5CB5B EQ PUSH2 0x792 JUMPI DUP1 PUSH4 0x95D89B41 EQ PUSH2 0x6EA JUMPI DUP1 PUSH4 0xA22CB465 EQ PUSH2 0x649 JUMPI DUP1 PUSH4 0xA5097EBF EQ PUSH2 0x564 JUMPI DUP1 PUSH4 0xB88D4FDE EQ PUSH2 0x4F5 JUMPI DUP1 PUSH4 0xB8997A97 EQ PUSH2 0x4D3 JUMPI DUP1 PUSH4 0xC87B56DD EQ PUSH2 0x3DE JUMPI DUP1 PUSH4 0xD0DEF521 EQ PUSH2 0x38D JUMPI DUP1 PUSH4 0xDAA83C6D EQ PUSH2 0x236 JUMPI DUP1 PUSH4 0xE985E9C5 EQ PUSH2 0x1E4 JUMPI PUSH4 0xF2FDE38B EQ PUSH2 0x157 JUMPI PUSH1 0x0 DUP1 REVERT JUMPDEST CALLVALUE PUSH2 0x1E0 JUMPI PUSH1 0x20 CALLDATASIZE PUSH1 0x3 NOT ADD SLT PUSH2 0x1E0 JUMPI PUSH2 0x170 PUSH2 0x11EF JUMP JUMPDEST SWAP1 PUSH2 0x179 PUSH2 0x136C JUMP JUMPDEST PUSH1 0x1 PUSH1 0x1 PUSH1 0xA0 SHL SUB SWAP2 DUP3 AND SWAP3 DUP4 ISZERO PUSH2 0x1CA JUMPI POP POP PUSH1 0x9 SLOAD DUP3 PUSH1 0x1 PUSH1 0x1 PUSH1 0x60 SHL SUB PUSH1 0xA0 SHL DUP3 AND OR PUSH1 0x9 SSTORE AND PUSH32 0x8BE0079C531659141344CD1FD0A4F28419497F9722A3DAAFE3B4186F6B6457E0 DUP4 DUP1 LOG3 DUP1 RETURN JUMPDEST MLOAD PUSH4 0x1E4FBDF7 PUSH1 0xE0 SHL DUP2 MSTORE SWAP1 DUP2 ADD DUP5 SWAP1 MSTORE PUSH1 0x24 SWAP1 REVERT JUMPDEST DUP3 DUP1 REVERT JUMPDEST POP POP CALLVALUE PUSH2 0x232 JUMPI DUP1 PUSH1 0x3 NOT CALLDATASIZE ADD SLT PUSH2 0x232 JUMPI PUSH1 0xFF DUP2 PUSH1 0x20 SWAP4 PUSH2 0x204 PUSH2 0x11EF JUMP JUMPDEST PUSH2 0x20C PUSH2 0x120A JUMP JUMPDEST PUSH1 0x1 PUSH1 0x1 PUSH1 0xA0 SHL SUB SWAP2 DUP3 AND DUP4 MSTORE PUSH1 0x5 DUP8 MSTORE DUP4 DUP4 KECCAK256 SWAP2 AND DUP3 MSTORE DUP6 MSTORE KECCAK256 SLOAD SWAP2 MLOAD SWAP2 AND ISZERO ISZERO DUP2 MSTORE RETURN JUMPDEST POP DUP1 REVERT JUMPDEST POP SWAP1 CALLVALUE PUSH2 0x1E0 JUMPI DUP1 PUSH1 0x3 NOT CALLDATASIZE ADD SLT PUSH2 0x1E0 JUMPI PUSH2 0x250 PUSH2 0x11EF JUMP JUMPDEST SWAP1 PUSH1 0x24 CALLDATALOAD SWAP2 PUSH1 0x1 PUSH1 0x1 PUSH1 0x60 SHL SUB DUP4 AND SWAP3 DUP4 DUP2 SUB PUSH2 0x389 JUMPI PUSH2 0x26F PUSH2 0x136C JUMP JUMPDEST PUSH2 0x3E8 DUP5 GT PUSH2 0x34F JUMPI PUSH2 0x2710 DUP1 DUP6 GT PUSH2 0x333 JUMPI POP PUSH1 0x1 PUSH1 0x1 PUSH1 0xA0 SHL SUB SWAP2 DUP3 AND SWAP5 DUP6 ISZERO PUSH2 0x31C JUMPI DUP4 MLOAD SWAP1 DUP5 DUP3 ADD SWAP1 DUP3 DUP3 LT PUSH8 0xFFFFFFFFFFFFFFFF DUP4 GT OR PUSH2 0x309 JUMPI POP SWAP2 DUP6 PUSH1 0x20 PUSH32 0x8039BD6E4E7DBA001C8840EB2E118D9D131246FAA7D0D04335F7305127EC0B10 SWAP8 SWAP6 SWAP4 DUP8 SWAP6 DUP3 SWAP9 MSTORE DUP10 DUP2 MSTORE ADD MSTORE PUSH1 0x1 PUSH1 0x1 PUSH1 0x60 SHL SUB PUSH1 0xA0 SHL SWAP1 PUSH1 0xA0 SHL AND SWAP1 DUP2 DUP8 OR PUSH1 0x7 SSTORE PUSH1 0xC SLOAD AND OR PUSH1 0xC SSTORE MLOAD SWAP1 DUP2 MSTORE LOG2 DUP1 RETURN JUMPDEST PUSH4 0x4E487B71 PUSH1 0xE0 SHL DUP10 MSTORE PUSH1 0x41 SWAP1 MSTORE PUSH1 0x24 DUP9 REVERT JUMPDEST DUP4 MLOAD PUSH4 0x5B6CC805 PUSH1 0xE1 SHL DUP2 MSTORE SWAP1 DUP2 ADD DUP8 SWAP1 MSTORE PUSH1 0x24 SWAP1 REVERT JUMPDEST DUP6 PUSH1 0x44 SWAP2 DUP7 DUP7 MLOAD SWAP3 PUSH4 0x6F483D09 PUSH1 0xE0 SHL DUP5 MSTORE DUP4 ADD MSTORE PUSH1 0x24 DUP3 ADD MSTORE REVERT JUMPDEST DUP3 MLOAD PUSH3 0x461BCD PUSH1 0xE5 SHL DUP2 MSTORE PUSH1 0x20 DUP2 DUP8 ADD MSTORE PUSH1 0x14 PUSH1 0x24 DUP3 ADD MSTORE PUSH20 0xA4DEF2C2D8E8F240CCCACA40E8DEDE40D0D2CED PUSH1 0x63 SHL PUSH1 0x44 DUP3 ADD MSTORE PUSH1 0x64 SWAP1 REVERT JUMPDEST DUP6 DUP1 REVERT JUMPDEST POP CALLVALUE PUSH2 0x1E0 JUMPI DUP2 PUSH1 0x3 NOT CALLDATASIZE ADD SLT PUSH2 0x1E0 JUMPI PUSH2 0x3A6 PUSH2 0x11EF JUMP JUMPDEST SWAP3 PUSH1 0x24 CALLDATALOAD SWAP1 PUSH8 0xFFFFFFFFFFFFFFFF DUP3 GT PUSH2 0x3DB JUMPI POP SWAP3 PUSH2 0x3CE PUSH2 0x3D4 SWAP3 PUSH1 0x20 SWAP6 CALLDATASIZE SWAP2 ADD PUSH2 0x1314 JUMP JUMPDEST SWAP1 PUSH2 0x16BF JUMP JUMPDEST SWAP1 MLOAD SWAP1 DUP2 MSTORE RETURN JUMPDEST DUP1 REVERT JUMPDEST POP SWAP1 CALLVALUE PUSH2 0x1E0 JUMPI PUSH1 0x20 SWAP2 DUP3 PUSH1 0x3 NOT CALLDATASIZE ADD SLT PUSH2 0x4CF JUMPI CALLDATALOAD PUSH2 0x3FD DUP2 PUSH2 0x153A JUMP JUMPDEST POP DUP4 MSTORE PUSH1 0x6 DUP3 MSTORE DUP1 DUP4 KECCAK256 SWAP3 DUP2 MLOAD DUP1 SWAP5 DUP3 SWAP1 DUP1 SLOAD PUSH2 0x419 DUP2 PUSH2 0x1332 JUMP JUMPDEST SWAP2 DUP3 DUP6 MSTORE PUSH1 0x1 SWAP2 DUP9 DUP4 DUP3 AND SWAP2 DUP3 PUSH1 0x0 EQ PUSH2 0x4A8 JUMPI POP POP PUSH1 0x1 EQ PUSH2 0x46A JUMPI JUMPDEST POP POP POP PUSH2 0x466 SWAP4 SWAP3 SWAP2 PUSH2 0x44B SWAP2 SUB DUP7 PUSH2 0x1287 JUMP JUMPDEST DUP2 MLOAD PUSH2 0x456 DUP2 PUSH2 0x1255 JUMP JUMPDEST MSTORE MLOAD SWAP3 DUP3 DUP5 SWAP4 DUP5 MSTORE DUP4 ADD SWAP1 PUSH2 0x11AF JUMP JUMPDEST SUB SWAP1 RETURN JUMPDEST DUP6 MSTORE DUP7 DUP6 KECCAK256 DUP8 SWAP4 POP DUP6 SWAP3 SWAP2 SWAP1 JUMPDEST DUP3 DUP5 LT PUSH2 0x490 JUMPI POP POP POP DUP3 ADD ADD DUP2 PUSH2 0x44B PUSH2 0x466 PUSH2 0x437 JUMP JUMPDEST DUP1 SLOAD DUP5 DUP12 ADD DUP7 ADD MSTORE DUP10 SWAP6 POP DUP9 SWAP5 SWAP1 SWAP4 ADD SWAP3 DUP2 ADD PUSH2 0x477 JUMP JUMPDEST PUSH1 0xFF NOT AND DUP8 DUP3 ADD MSTORE SWAP4 ISZERO ISZERO PUSH1 0x5 SHL DUP7 ADD SWAP1 SWAP4 ADD SWAP4 POP DUP5 SWAP3 POP PUSH2 0x44B SWAP2 POP PUSH2 0x466 SWAP1 POP PUSH2 0x437 JUMP JUMPDEST DUP4 DUP1 REVERT JUMPDEST POP POP CALLVALUE PUSH2 0x232 JUMPI DUP2 PUSH1 0x3 NOT CALLDATASIZE ADD SLT PUSH2 0x232 JUMPI PUSH1 0x20 SWAP1 PUSH1 0xC SLOAD PUSH1 0xA0 SHR SWAP1 MLOAD SWAP1 DUP2 MSTORE RETURN JUMPDEST DUP4 DUP3 CALLVALUE PUSH2 0x232 JUMPI PUSH1 0x80 CALLDATASIZE PUSH1 0x3 NOT ADD SLT PUSH2 0x232 JUMPI PUSH2 0x510 PUSH2 0x11EF JUMP JUMPDEST PUSH2 0x518 PUSH2 0x120A JUMP JUMPDEST PUSH1 0x44 CALLDATALOAD SWAP1 PUSH1 0x64 CALLDATALOAD PUSH8 0xFFFFFFFFFFFFFFFF DUP2 GT PUSH2 0x389 JUMPI CALLDATASIZE PUSH1 0x23 DUP3 ADD SLT ISZERO PUSH2 0x389 JUMPI PUSH2 0x561 SWAP5 DUP2 PUSH1 0x24 PUSH2 0x54F SWAP4 CALLDATASIZE SWAP4 ADD CALLDATALOAD SWAP2 ADD PUSH2 0x12DD JUMP JUMPDEST SWAP3 PUSH2 0x55B DUP4 DUP4 DUP4 PUSH2 0x1398 JUMP JUMPDEST CALLER PUSH2 0x1575 JUMP JUMPDEST DUP1 RETURN JUMPDEST POP POP CALLVALUE PUSH2 0x232 JUMPI DUP2 PUSH1 0x3 NOT CALLDATASIZE ADD SLT PUSH2 0x232 JUMPI DUP1 MLOAD SWAP1 DUP3 PUSH1 0xB SLOAD PUSH2 0x586 DUP2 PUSH2 0x1332 JUMP JUMPDEST DUP1 DUP6 MSTORE SWAP2 PUSH1 0x1 SWAP2 DUP1 DUP4 AND SWAP1 DUP2 ISZERO PUSH2 0x621 JUMPI POP PUSH1 0x1 EQ PUSH2 0x5C4 JUMPI JUMPDEST POP POP POP PUSH2 0x5B2 DUP3 PUSH2 0x466 SWAP5 SUB DUP4 PUSH2 0x1287 JUMP JUMPDEST MLOAD SWAP2 DUP3 SWAP2 PUSH1 0x20 DUP4 MSTORE PUSH1 0x20 DUP4 ADD SWAP1 PUSH2 0x11AF JUMP JUMPDEST SWAP5 POP PUSH1 0xB DUP6 MSTORE PUSH32 0x175B7A638427703F0DBE7BB9BBF987A2551717B34E79F33B5B1008D1FA01DB9 JUMPDEST DUP3 DUP7 LT PUSH2 0x609 JUMPI POP POP POP PUSH2 0x5B2 DUP3 PUSH1 0x20 PUSH2 0x466 SWAP6 DUP3 ADD ADD SWAP5 PUSH2 0x5A0 JUMP JUMPDEST DUP1 SLOAD PUSH1 0x20 DUP8 DUP8 ADD DUP2 ADD SWAP2 SWAP1 SWAP2 MSTORE SWAP1 SWAP6 ADD SWAP5 DUP2 ADD PUSH2 0x5EC JUMP JUMPDEST PUSH2 0x466 SWAP8 POP DUP7 SWAP4 POP PUSH1 0x20 SWAP3 POP PUSH2 0x5B2 SWAP5 SWAP2 POP PUSH1 0xFF NOT AND DUP3 DUP5 ADD MSTORE ISZERO ISZERO PUSH1 0x5 SHL DUP3 ADD ADD SWAP5 PUSH2 0x5A0 JUMP JUMPDEST POP SWAP1 CALLVALUE PUSH2 0x1E0 JUMPI DUP1 PUSH1 0x3 NOT CALLDATASIZE ADD SLT PUSH2 0x1E0 JUMPI PUSH2 0x663 PUSH2 0x11EF JUMP JUMPDEST SWAP1 PUSH1 0x24 CALLDATALOAD SWAP2 DUP3 ISZERO ISZERO DUP1 SWAP4 SUB PUSH2 0x6E6 JUMPI PUSH1 0x1 PUSH1 0x1 PUSH1 0xA0 SHL SUB AND SWAP3 DUP4 ISZERO PUSH2 0x6D1 JUMPI POP CALLER DUP5 MSTORE PUSH1 0x5 PUSH1 0x20 MSTORE DUP1 DUP5 KECCAK256 DUP4 DUP6 MSTORE PUSH1 0x20 MSTORE DUP1 DUP5 KECCAK256 PUSH1 0xFF NOT DUP2 SLOAD AND PUSH1 0xFF DUP5 AND OR SWAP1 SSTORE MLOAD SWAP1 DUP2 MSTORE PUSH32 0x17307EAB39AB6107E8899845AD3D59BD9653F200F220920489CA2B5937696C31 PUSH1 0x20 CALLER SWAP3 LOG3 DUP1 RETURN JUMPDEST DUP4 PUSH1 0x24 SWAP3 MLOAD SWAP2 PUSH4 0xB611743 PUSH1 0xE3 SHL DUP4 MSTORE DUP3 ADD MSTORE REVERT JUMPDEST DUP5 DUP1 REVERT JUMPDEST POP POP CALLVALUE PUSH2 0x232 JUMPI DUP2 PUSH1 0x3 NOT CALLDATASIZE ADD SLT PUSH2 0x232 JUMPI DUP1 MLOAD SWAP1 DUP3 PUSH1 0x1 DUP1 SLOAD SWAP2 PUSH2 0x70E DUP4 PUSH2 0x1332 JUMP JUMPDEST DUP1 DUP7 MSTORE SWAP3 DUP3 DUP2 AND SWAP1 DUP2 ISZERO PUSH2 0x621 JUMPI POP PUSH1 0x1 EQ PUSH2 0x736 JUMPI POP POP POP PUSH2 0x5B2 DUP3 PUSH2 0x466 SWAP5 SUB DUP4 PUSH2 0x1287 JUMP JUMPDEST SWAP5 POP DUP1 DUP6 MSTORE PUSH32 0xB10E2D527612073B26EECDFD717E6A320CF44B4AFAC2B0732D9FCBE2B7FA0CF6 JUMPDEST DUP3 DUP7 LT PUSH2 0x77A JUMPI POP POP POP PUSH2 0x5B2 DUP3 PUSH1 0x20 PUSH2 0x466 SWAP6 DUP3 ADD ADD SWAP5 PUSH2 0x5A0 JUMP JUMPDEST DUP1 SLOAD PUSH1 0x20 DUP8 DUP8 ADD DUP2 ADD SWAP2 SWAP1 SWAP2 MSTORE SWAP1 SWAP6 ADD SWAP5 DUP2 ADD PUSH2 0x75D JUMP JUMPDEST POP POP CALLVALUE PUSH2 0x232 JUMPI DUP2 PUSH1 0x3 NOT CALLDATASIZE ADD SLT PUSH2 0x232 JUMPI PUSH1 0x9 SLOAD SWAP1 MLOAD PUSH1 0x1 PUSH1 0x1 PUSH1 0xA0 SHL SUB SWAP1 SWAP2 AND DUP2 MSTORE PUSH1 0x20 SWAP1 RETURN JUMPDEST POP POP CALLVALUE PUSH2 0x232 JUMPI DUP2 PUSH1 0x3 NOT CALLDATASIZE ADD SLT PUSH2 0x232 JUMPI PUSH1 0x20 PUSH32 0x62E78CEA01BEE320CD4E420270B5EA74000D11B0C9F74754EBDBFC544B05A258 SWAP2 PUSH2 0x7F9 PUSH2 0x136C JUMP JUMPDEST PUSH2 0x801 PUSH2 0x1B03 JUMP JUMPDEST PUSH1 0x9 DUP1 SLOAD PUSH1 0xFF PUSH1 0xA0 SHL NOT AND PUSH1 0x1 PUSH1 0xA0 SHL OR SWAP1 SSTORE MLOAD CALLER DUP2 MSTORE LOG1 DUP1 RETURN JUMPDEST POP DUP3 SWAP1 CALLVALUE PUSH2 0x232 JUMPI PUSH1 0x20 SWAP3 DUP4 PUSH1 0x3 NOT CALLDATASIZE ADD SLT PUSH2 0x1E0 JUMPI PUSH8 0xFFFFFFFFFFFFFFFF DUP3 CALLDATALOAD DUP2 DUP2 GT PUSH2 0x6E6 JUMPI PUSH2 0x851 SWAP1 CALLDATASIZE SWAP1 DUP6 ADD PUSH2 0x1314 JUMP JUMPDEST SWAP3 PUSH2 0x85A PUSH2 0x136C JUMP JUMPDEST DUP4 MLOAD SWAP2 DUP3 GT PUSH2 0x9F3 JUMPI POP PUSH2 0x86F PUSH1 0xB SLOAD PUSH2 0x1332 JUMP JUMPDEST PUSH1 0x1F DUP2 GT PUSH2 0x991 JUMPI JUMPDEST POP DUP5 PUSH1 0x1F DUP3 GT PUSH1 0x1 EQ PUSH2 0x8EB JUMPI SWAP2 DUP2 PUSH2 0x8DA SWAP3 DUP7 SWAP8 SWAP5 PUSH32 0x88200832D1FE27EEE076BEA36A10A1EB73B9D27D9E6E5E2626A83D62FFC9AE5C SWAP8 SWAP2 PUSH2 0x8E0 JUMPI JUMPDEST POP DUP2 PUSH1 0x1 SHL SWAP2 PUSH1 0x0 NOT SWAP1 PUSH1 0x3 SHL SHR NOT AND OR PUSH1 0xB SSTORE JUMPDEST MLOAD SWAP3 DUP3 DUP5 SWAP4 DUP5 MSTORE DUP4 ADD SWAP1 PUSH2 0x11AF JUMP JUMPDEST SUB SWAP1 LOG1 DUP1 RETURN JUMPDEST SWAP1 POP DUP6 ADD MLOAD DUP9 PUSH2 0x8B6 JUMP JUMPDEST PUSH1 0xB DUP6 MSTORE PUSH32 0x175B7A638427703F0DBE7BB9BBF987A2551717B34E79F33B5B1008D1FA01DB9 SWAP1 PUSH1 0x1F NOT DUP4 AND DUP7 JUMPDEST DUP2 DUP2 LT PUSH2 0x97A JUMPI POP SWAP3 PUSH32 0x88200832D1FE27EEE076BEA36A10A1EB73B9D27D9E6E5E2626A83D62FFC9AE5C SWAP7 SWAP8 SWAP5 SWAP3 PUSH1 0x1 SWAP3 DUP3 PUSH2 0x8DA SWAP7 LT PUSH2 0x961 JUMPI JUMPDEST POP POP DUP2 SHL ADD PUSH1 0xB SSTORE PUSH2 0x8CB JUMP JUMPDEST DUP8 ADD MLOAD PUSH1 0x0 NOT PUSH1 0xF8 DUP5 PUSH1 0x3 SHL AND SHR NOT AND SWAP1 SSTORE DUP9 DUP1 PUSH2 0x954 JUMP JUMPDEST SWAP2 SWAP3 DUP9 PUSH1 0x1 DUP2 SWAP3 DUP7 DUP11 ADD MLOAD DUP2 SSTORE ADD SWAP5 ADD SWAP3 ADD PUSH2 0x918 JUMP JUMPDEST PUSH1 0xB DUP6 MSTORE PUSH32 0x175B7A638427703F0DBE7BB9BBF987A2551717B34E79F33B5B1008D1FA01DB9 PUSH1 0x1F DUP4 ADD PUSH1 0x5 SHR DUP2 ADD SWAP2 DUP8 DUP5 LT PUSH2 0x9E9 JUMPI JUMPDEST PUSH1 0x1F ADD PUSH1 0x5 SHR ADD SWAP1 JUMPDEST DUP2 DUP2 LT PUSH2 0x9DE JUMPI POP PUSH2 0x878 JUMP JUMPDEST DUP6 DUP2 SSTORE PUSH1 0x1 ADD PUSH2 0x9D1 JUMP JUMPDEST SWAP1 SWAP2 POP DUP2 SWAP1 PUSH2 0x9C8 JUMP JUMPDEST PUSH4 0x4E487B71 PUSH1 0xE0 SHL DUP6 MSTORE PUSH1 0x41 SWAP1 MSTORE PUSH1 0x24 DUP5 REVERT JUMPDEST DUP4 CALLVALUE PUSH2 0x3DB JUMPI DUP1 PUSH1 0x3 NOT CALLDATASIZE ADD SLT PUSH2 0x3DB JUMPI PUSH2 0xA1F PUSH2 0x136C JUMP JUMPDEST PUSH1 0x9 DUP1 SLOAD PUSH1 0x1 PUSH1 0x1 PUSH1 0xA0 SHL SUB NOT DUP2 AND SWAP1 SWAP2 SSTORE DUP2 SWAP1 PUSH1 0x1 PUSH1 0x1 PUSH1 0xA0 SHL SUB AND PUSH32 0x8BE0079C531659141344CD1FD0A4F28419497F9722A3DAAFE3B4186F6B6457E0 DUP3 DUP1 LOG3 DUP1 RETURN JUMPDEST POP SWAP2 CALLVALUE PUSH2 0x3DB JUMPI PUSH1 0x20 CALLDATASIZE PUSH1 0x3 NOT ADD SLT PUSH2 0x3DB JUMPI PUSH1 0x1 PUSH1 0x1 PUSH1 0xA0 SHL SUB PUSH2 0xA86 PUSH2 0x11EF JUMP JUMPDEST AND SWAP3 DUP4 ISZERO PUSH2 0xAA3 JUMPI POP DUP1 PUSH1 0x20 SWAP4 DUP4 SWAP3 MSTORE PUSH1 0x3 DUP5 MSTORE KECCAK256 SLOAD SWAP1 MLOAD SWAP1 DUP2 MSTORE RETURN JUMPDEST SWAP2 MLOAD PUSH4 0x22718AD9 PUSH1 0xE2 SHL DUP2 MSTORE SWAP2 DUP3 ADD MSTORE PUSH1 0x24 SWAP1 REVERT JUMPDEST POP DUP3 SWAP1 CALLVALUE PUSH2 0x232 JUMPI DUP3 PUSH1 0x3 NOT CALLDATASIZE ADD SLT PUSH2 0x232 JUMPI DUP1 CALLDATALOAD SWAP1 PUSH8 0xFFFFFFFFFFFFFFFF SWAP4 DUP5 DUP4 GT PUSH2 0x4CF JUMPI CALLDATASIZE PUSH1 0x23 DUP5 ADD SLT ISZERO PUSH2 0x4CF JUMPI DUP3 DUP3 ADD CALLDATALOAD SWAP2 PUSH2 0xAF8 DUP4 PUSH2 0x12A9 JUMP JUMPDEST SWAP3 PUSH2 0xB05 DUP4 MLOAD SWAP5 DUP6 PUSH2 0x1287 JUMP JUMPDEST DUP1 DUP5 MSTORE PUSH1 0x20 SWAP5 DUP6 DUP6 ADD PUSH1 0x24 DUP1 SWAP4 PUSH1 0x5 SHL DUP4 ADD ADD SWAP2 CALLDATASIZE DUP4 GT PUSH2 0xD55 JUMPI DUP4 ADD SWAP1 JUMPDEST DUP3 DUP3 LT PUSH2 0xD36 JUMPI POP POP POP DUP1 CALLDATALOAD SWAP7 DUP1 DUP9 GT PUSH2 0xD32 JUMPI CALLDATASIZE PUSH1 0x23 DUP10 ADD SLT ISZERO PUSH2 0xD32 JUMPI DUP8 DUP4 ADD CALLDATALOAD PUSH2 0xB50 DUP2 PUSH2 0x12A9 JUMP JUMPDEST SWAP9 PUSH2 0xB5D DUP7 MLOAD SWAP11 DUP12 PUSH2 0x1287 JUMP JUMPDEST DUP2 DUP11 MSTORE DUP4 DUP9 DUP12 ADD SWAP3 PUSH1 0x5 SHL DUP3 ADD ADD SWAP3 CALLDATASIZE DUP5 GT PUSH2 0xD2E JUMPI DUP5 DUP3 ADD SWAP3 JUMPDEST DUP5 DUP5 LT PUSH2 0xD04 JUMPI POP POP POP POP POP PUSH2 0xB8C PUSH2 0x136C JUMP JUMPDEST PUSH2 0xB94 PUSH2 0x1B03 JUMP JUMPDEST DUP4 MLOAD DUP8 MLOAD SUB PUSH2 0xCCC JUMPI DUP4 MLOAD ISZERO PUSH2 0xC9D JUMPI PUSH1 0x64 DUP5 MLOAD GT PUSH2 0xC6B JUMPI POP POP DUP2 MLOAD SWAP3 PUSH2 0xBD3 PUSH2 0xBBE DUP6 PUSH2 0x12A9 JUMP JUMPDEST SWAP5 PUSH2 0xBCB DUP5 MLOAD SWAP7 DUP8 PUSH2 0x1287 JUMP JUMPDEST DUP1 DUP7 MSTORE PUSH2 0x12A9 JUMP JUMPDEST DUP5 DUP3 ADD SWAP2 SWAP1 PUSH1 0x1F NOT ADD CALLDATASIZE DUP4 CALLDATACOPY DUP6 JUMPDEST DUP5 MLOAD DUP2 LT ISZERO PUSH2 0xC2B JUMPI PUSH2 0xC26 SWAP1 PUSH2 0xC16 PUSH1 0x1 PUSH1 0x1 PUSH1 0xA0 SHL SUB PUSH2 0xC03 DUP4 DUP10 PUSH2 0x1B24 JUMP JUMPDEST MLOAD AND PUSH2 0xC0F DUP4 DUP13 PUSH2 0x1B24 JUMP JUMPDEST MLOAD SWAP1 PUSH2 0x16BF JUMP JUMPDEST PUSH2 0xC20 DUP3 DUP10 PUSH2 0x1B24 JUMP JUMPDEST MSTORE PUSH2 0x1ADE JUMP JUMPDEST PUSH2 0xBE1 JUMP JUMPDEST POP SWAP2 SWAP1 DUP6 DUP6 DUP4 MLOAD SWAP5 DUP6 SWAP5 DUP2 DUP7 ADD SWAP3 DUP3 DUP8 MSTORE MLOAD DUP1 SWAP4 MSTORE DUP6 ADD SWAP4 SWAP3 JUMPDEST DUP3 DUP2 LT PUSH2 0xC54 JUMPI POP POP POP POP SUB SWAP1 RETURN JUMPDEST DUP4 MLOAD DUP6 MSTORE DUP7 SWAP6 POP SWAP4 DUP2 ADD SWAP4 SWAP3 DUP2 ADD SWAP3 PUSH1 0x1 ADD PUSH2 0xC45 JUMP JUMPDEST PUSH1 0xF SWAP1 DUP6 PUSH1 0x64 SWAP5 MLOAD SWAP4 PUSH3 0x461BCD PUSH1 0xE5 SHL DUP6 MSTORE DUP5 ADD MSTORE DUP3 ADD MSTORE PUSH15 0x426174636820746F6F206C61726765 PUSH1 0x88 SHL PUSH1 0x44 DUP3 ADD MSTORE REVERT JUMPDEST PUSH1 0xC SWAP1 DUP6 PUSH1 0x64 SWAP5 MLOAD SWAP4 PUSH3 0x461BCD PUSH1 0xE5 SHL DUP6 MSTORE DUP5 ADD MSTORE DUP3 ADD MSTORE PUSH12 0x456D70747920617272617973 PUSH1 0xA0 SHL PUSH1 0x44 DUP3 ADD MSTORE REVERT JUMPDEST PUSH1 0x15 SWAP1 DUP6 PUSH1 0x64 SWAP5 MLOAD SWAP4 PUSH3 0x461BCD PUSH1 0xE5 SHL DUP6 MSTORE DUP5 ADD MSTORE DUP3 ADD MSTORE PUSH21 0x82E4E4C2F240D8CADCCEE8D040DAD2E6DAC2E8C6D PUSH1 0x5B SHL PUSH1 0x44 DUP3 ADD MSTORE REVERT JUMPDEST DUP4 CALLDATALOAD DUP3 DUP2 GT PUSH2 0xD2A JUMPI DUP11 SWAP2 PUSH2 0xD1F DUP4 SWAP3 DUP10 CALLDATASIZE SWAP2 DUP9 ADD ADD PUSH2 0x1314 JUMP JUMPDEST DUP2 MSTORE ADD SWAP4 ADD SWAP3 PUSH2 0xB78 JUMP JUMPDEST DUP12 DUP1 REVERT JUMPDEST DUP10 DUP1 REVERT JUMPDEST DUP7 DUP1 REVERT JUMPDEST DUP2 CALLDATALOAD PUSH1 0x1 PUSH1 0x1 PUSH1 0xA0 SHL SUB DUP2 AND DUP2 SUB PUSH2 0xD2E JUMPI DUP2 MSTORE SWAP1 DUP8 ADD SWAP1 DUP8 ADD PUSH2 0xB24 JUMP JUMPDEST DUP9 DUP1 REVERT JUMPDEST POP SWAP2 CALLVALUE PUSH2 0x3DB JUMPI PUSH1 0x20 CALLDATASIZE PUSH1 0x3 NOT ADD SLT PUSH2 0x3DB JUMPI POP PUSH2 0xD79 PUSH1 0x20 SWAP3 CALLDATALOAD PUSH2 0x153A JUMP JUMPDEST SWAP1 MLOAD PUSH1 0x1 PUSH1 0x1 PUSH1 0xA0 SHL SUB SWAP1 SWAP2 AND DUP2 MSTORE RETURN JUMPDEST POP POP CALLVALUE PUSH2 0x232 JUMPI DUP2 PUSH1 0x3 NOT CALLDATASIZE ADD SLT PUSH2 0x232 JUMPI PUSH1 0x20 SWAP1 PUSH1 0xFF PUSH1 0x9 SLOAD PUSH1 0xA0 SHR AND SWAP1 MLOAD SWAP1 ISZERO ISZERO DUP2 MSTORE RETURN JUMPDEST POP POP CALLVALUE PUSH2 0x232 JUMPI PUSH2 0x561 SWAP1 PUSH2 0xDC5 CALLDATASIZE PUSH2 0x1220 JUMP JUMPDEST SWAP2 SWAP3 MLOAD SWAP3 PUSH2 0xDD2 DUP5 PUSH2 0x1255 JUMP JUMPDEST DUP6 DUP5 MSTORE PUSH2 0x55B DUP4 DUP4 DUP4 PUSH2 0x1398 JUMP JUMPDEST POP POP CALLVALUE PUSH2 0x232 JUMPI DUP2 PUSH1 0x3 NOT CALLDATASIZE ADD SLT PUSH2 0x232 JUMPI PUSH1 0xC SLOAD SWAP1 MLOAD PUSH1 0x1 PUSH1 0x1 PUSH1 0xA0 SHL SUB SWAP1 SWAP2 AND DUP2 MSTORE PUSH1 0x20 SWAP1 RETURN JUMPDEST POP CALLVALUE PUSH2 0x1E0 JUMPI DUP3 PUSH1 0x3 NOT CALLDATASIZE ADD SLT PUSH2 0x1E0 JUMPI PUSH2 0xE22 PUSH2 0x136C JUMP JUMPDEST PUSH1 0x9 SLOAD SWAP1 PUSH1 0xFF DUP3 PUSH1 0xA0 SHR AND ISZERO PUSH2 0xE6A JUMPI POP PUSH1 0xFF PUSH1 0xA0 SHL NOT AND PUSH1 0x9 SSTORE MLOAD CALLER DUP2 MSTORE PUSH32 0x5DB9EE0A495BF2E6FF9C91A7834C1BA4FDD244A5E8AA4E537BD38AEAE4B073AA SWAP1 PUSH1 0x20 SWAP1 LOG1 DUP1 RETURN JUMPDEST DUP3 MLOAD PUSH4 0x8DFC202B PUSH1 0xE0 SHL DUP2 MSTORE REVERT JUMPDEST POP SWAP2 CALLVALUE PUSH2 0x3DB JUMPI DUP2 PUSH1 0x3 NOT CALLDATASIZE ADD SLT PUSH2 0x3DB JUMPI DUP3 CALLDATALOAD DUP2 MSTORE PUSH1 0x8 PUSH1 0x20 MSTORE DUP2 DUP2 KECCAK256 SLOAD PUSH1 0x24 CALLDATALOAD SWAP3 PUSH1 0x1 PUSH1 0x1 PUSH1 0xA0 SHL SUB DUP1 DUP4 AND SWAP4 SWAP2 SWAP3 PUSH1 0xA0 SHR SWAP1 DUP5 ISZERO PUSH2 0xEFF JUMPI JUMPDEST POP PUSH1 0x1 PUSH1 0x1 PUSH1 0x60 SHL SUB AND SWAP4 DUP5 DUP2 MUL SWAP5 DUP2 DUP7 DIV EQ SWAP1 ISZERO OR ISZERO PUSH2 0xEEC JUMPI DUP2 MLOAD PUSH1 0x1 PUSH1 0x1 PUSH1 0xA0 SHL SUB DUP5 AND DUP2 MSTORE PUSH2 0x2710 DUP6 DIV PUSH1 0x20 DUP3 ADD MSTORE PUSH1 0x40 SWAP1 RETURN JUMPDEST PUSH4 0x4E487B71 PUSH1 0xE0 SHL DUP2 MSTORE PUSH1 0x11 DUP6 MSTORE PUSH1 0x24 SWAP1 REVERT JUMPDEST PUSH1 0x7 SLOAD SWAP1 DUP2 AND SWAP5 POP PUSH1 0xA0 SHR SWAP1 POP PUSH1 0x1 PUSH1 0x1 PUSH1 0x60 SHL SUB PUSH2 0xEB4 JUMP JUMPDEST DUP4 CALLVALUE PUSH2 0x3DB JUMPI PUSH2 0x561 PUSH2 0xF2B CALLDATASIZE PUSH2 0x1220 JUMP JUMPDEST SWAP2 PUSH2 0x1398 JUMP JUMPDEST POP POP CALLVALUE PUSH2 0x232 JUMPI DUP2 PUSH1 0x3 NOT CALLDATASIZE ADD SLT PUSH2 0x232 JUMPI PUSH1 0x20 SWAP1 PUSH1 0xA SLOAD SWAP1 MLOAD SWAP1 DUP2 MSTORE RETURN JUMPDEST POP SWAP1 CALLVALUE PUSH2 0x1E0 JUMPI DUP1 PUSH1 0x3 NOT CALLDATASIZE ADD SLT PUSH2 0x1E0 JUMPI PUSH2 0xF6A PUSH2 0x11EF JUMP JUMPDEST SWAP2 PUSH1 0x24 CALLDATALOAD PUSH2 0xF77 DUP2 PUSH2 0x153A JUMP JUMPDEST CALLER ISZERO ISZERO DUP1 PUSH2 0x1019 JUMPI JUMPDEST DUP1 PUSH2 0xFF0 JUMPI JUMPDEST PUSH2 0xFDA JUMPI PUSH1 0x1 PUSH1 0x1 PUSH1 0xA0 SHL SUB SWAP5 DUP6 AND SWAP5 DUP3 SWAP2 DUP7 SWAP2 AND PUSH32 0x8C5BE1E5EBEC7D5BD14F71427D1E84F3DD0314C0F7B2291E5B200AC8C7C3B925 DUP9 DUP1 LOG4 DUP5 MSTORE PUSH1 0x20 MSTORE DUP3 KECCAK256 DUP1 SLOAD PUSH1 0x1 PUSH1 0x1 PUSH1 0xA0 SHL SUB NOT AND SWAP1 SWAP2 OR SWAP1 SSTORE DUP1 RETURN JUMPDEST DUP4 MLOAD PUSH4 0xA9FBF51F PUSH1 0xE0 SHL DUP2 MSTORE CALLER DUP2 DUP6 ADD MSTORE PUSH1 0x24 SWAP1 REVERT JUMPDEST POP PUSH1 0x1 PUSH1 0x1 PUSH1 0xA0 SHL SUB DUP2 AND DUP7 MSTORE PUSH1 0x5 PUSH1 0x20 SWAP1 DUP2 MSTORE DUP5 DUP8 KECCAK256 CALLER DUP9 MSTORE SWAP1 MSTORE DUP4 DUP7 KECCAK256 SLOAD PUSH1 0xFF AND ISZERO PUSH2 0xF86 JUMP JUMPDEST POP PUSH1 0x1 PUSH1 0x1 PUSH1 0xA0 SHL SUB DUP2 AND CALLER EQ ISZERO PUSH2 0xF80 JUMP JUMPDEST POP CALLVALUE PUSH2 0x1E0 JUMPI PUSH1 0x20 CALLDATASIZE PUSH1 0x3 NOT ADD SLT PUSH2 0x1E0 JUMPI SWAP2 DUP3 PUSH1 0x20 SWAP4 CALLDATALOAD PUSH2 0x104D DUP2 PUSH2 0x153A JUMP JUMPDEST POP DUP3 MSTORE DUP4 MSTORE DUP2 SWAP1 KECCAK256 SLOAD SWAP1 MLOAD PUSH1 0x1 PUSH1 0x1 PUSH1 0xA0 SHL SUB SWAP1 SWAP2 AND DUP2 MSTORE RETURN JUMPDEST POP POP CALLVALUE PUSH2 0x232 JUMPI DUP2 PUSH1 0x3 NOT CALLDATASIZE ADD SLT PUSH2 0x232 JUMPI DUP1 MLOAD SWAP1 DUP3 DUP1 SLOAD PUSH2 0x1088 DUP2 PUSH2 0x1332 JUMP JUMPDEST DUP1 DUP6 MSTORE SWAP2 PUSH1 0x1 SWAP2 DUP1 DUP4 AND SWAP1 DUP2 ISZERO PUSH2 0x621 JUMPI POP PUSH1 0x1 EQ PUSH2 0x10B3 JUMPI POP POP POP PUSH2 0x5B2 DUP3 PUSH2 0x466 SWAP5 SUB DUP4 PUSH2 0x1287 JUMP JUMPDEST DUP1 DUP1 SWAP7 POP MSTORE PUSH32 0x290DECD9548B62A8D60345A988386FC84BA6BC95484008F6362F93160EF3E563 JUMPDEST DUP3 DUP7 LT PUSH2 0x10F7 JUMPI POP POP POP PUSH2 0x5B2 DUP3 PUSH1 0x20 PUSH2 0x466 SWAP6 DUP3 ADD ADD SWAP5 PUSH2 0x5A0 JUMP JUMPDEST DUP1 SLOAD PUSH1 0x20 DUP8 DUP8 ADD DUP2 ADD SWAP2 SWAP1 SWAP2 MSTORE SWAP1 SWAP6 ADD SWAP5 DUP2 ADD PUSH2 0x10DA JUMP JUMPDEST SWAP3 POP POP CALLVALUE PUSH2 0x1E0 JUMPI PUSH1 0x20 CALLDATASIZE PUSH1 0x3 NOT ADD SLT PUSH2 0x1E0 JUMPI CALLDATALOAD PUSH4 0xFFFFFFFF PUSH1 0xE0 SHL DUP2 AND DUP1 SWAP2 SUB PUSH2 0x1E0 JUMPI PUSH1 0x20 SWAP3 POP PUSH4 0x152A902D PUSH1 0xE1 SHL DUP2 EQ SWAP1 DUP2 ISZERO PUSH2 0x1152 JUMPI JUMPDEST POP ISZERO ISZERO DUP2 MSTORE RETURN JUMPDEST PUSH4 0x24832483 PUSH1 0xE1 SHL DUP2 EQ SWAP2 POP DUP2 ISZERO PUSH2 0x116C JUMPI JUMPDEST POP CODESIZE PUSH2 0x114B JUMP JUMPDEST PUSH4 0x80AC58CD PUSH1 0xE0 SHL DUP2 EQ SWAP2 POP DUP2 ISZERO PUSH2 0x119E JUMPI JUMPDEST DUP2 ISZERO PUSH2 0x118D JUMPI JUMPDEST POP CODESIZE PUSH2 0x1165 JUMP JUMPDEST PUSH4 0x1FFC9A7 PUSH1 0xE0 SHL EQ SWAP1 POP CODESIZE PUSH2 0x1186 JUMP JUMPDEST PUSH4 0x5B5E139F PUSH1 0xE0 SHL DUP2 EQ SWAP2 POP PUSH2 0x117F JUMP JUMPDEST SWAP2 SWAP1 DUP3 MLOAD SWAP3 DUP4 DUP3 MSTORE PUSH1 0x0 JUMPDEST DUP5 DUP2 LT PUSH2 0x11DB JUMPI POP POP DUP3 PUSH1 0x0 PUSH1 0x20 DUP1 SWAP5 SWAP6 DUP5 ADD ADD MSTORE PUSH1 0x1F DUP1 NOT SWAP2 ADD AND ADD ADD SWAP1 JUMP JUMPDEST PUSH1 0x20 DUP2 DUP4 ADD DUP2 ADD MLOAD DUP5 DUP4 ADD DUP3 ADD MSTORE ADD PUSH2 0x11BA JUMP JUMPDEST PUSH1 0x4 CALLDATALOAD SWAP1 PUSH1 0x1 PUSH1 0x1 PUSH1 0xA0 SHL SUB DUP3 AND DUP3 SUB PUSH2 0x1205 JUMPI JUMP JUMPDEST PUSH1 0x0 DUP1 REVERT JUMPDEST PUSH1 0x24 CALLDATALOAD SWAP1 PUSH1 0x1 PUSH1 0x1 PUSH1 0xA0 SHL SUB DUP3 AND DUP3 SUB PUSH2 0x1205 JUMPI JUMP JUMPDEST PUSH1 0x60 SWAP1 PUSH1 0x3 NOT ADD SLT PUSH2 0x1205 JUMPI PUSH1 0x1 PUSH1 0x1 PUSH1 0xA0 SHL SUB SWAP1 PUSH1 0x4 CALLDATALOAD DUP3 DUP2 AND DUP2 SUB PUSH2 0x1205 JUMPI SWAP2 PUSH1 0x24 CALLDATALOAD SWAP1 DUP2 AND DUP2 SUB PUSH2 0x1205 JUMPI SWAP1 PUSH1 0x44 CALLDATALOAD SWAP1 JUMP JUMPDEST PUSH1 0x20 DUP2 ADD SWAP1 DUP2 LT PUSH8 0xFFFFFFFFFFFFFFFF DUP3 GT OR PUSH2 0x1271 JUMPI PUSH1 0x40 MSTORE JUMP JUMPDEST PUSH4 0x4E487B71 PUSH1 0xE0 SHL PUSH1 0x0 MSTORE PUSH1 0x41 PUSH1 0x4 MSTORE PUSH1 0x24 PUSH1 0x0 REVERT JUMPDEST SWAP1 PUSH1 0x1F DUP1 NOT SWAP2 ADD AND DUP2 ADD SWAP1 DUP2 LT PUSH8 0xFFFFFFFFFFFFFFFF DUP3 GT OR PUSH2 0x1271 JUMPI PUSH1 0x40 MSTORE JUMP JUMPDEST PUSH8 0xFFFFFFFFFFFFFFFF DUP2 GT PUSH2 0x1271 JUMPI PUSH1 0x5 SHL PUSH1 0x20 ADD SWAP1 JUMP JUMPDEST PUSH8 0xFFFFFFFFFFFFFFFF DUP2 GT PUSH2 0x1271 JUMPI PUSH1 0x1F ADD PUSH1 0x1F NOT AND PUSH1 0x20 ADD SWAP1 JUMP JUMPDEST SWAP3 SWAP2 SWAP3 PUSH2 0x12E9 DUP3 PUSH2 0x12C1 JUMP JUMPDEST SWAP2 PUSH2 0x12F7 PUSH1 0x40 MLOAD SWAP4 DUP5 PUSH2 0x1287 JUMP JUMPDEST DUP3 SWAP5 DUP2 DUP5 MSTORE DUP2 DUP4 ADD GT PUSH2 0x1205 JUMPI DUP3 DUP2 PUSH1 0x20 SWAP4 DUP5 PUSH1 0x0 SWAP7 ADD CALLDATACOPY ADD ADD MSTORE JUMP JUMPDEST SWAP1 DUP1 PUSH1 0x1F DUP4 ADD SLT ISZERO PUSH2 0x1205 JUMPI DUP2 PUSH1 0x20 PUSH2 0x132F SWAP4 CALLDATALOAD SWAP2 ADD PUSH2 0x12DD JUMP JUMPDEST SWAP1 JUMP JUMPDEST SWAP1 PUSH1 0x1 DUP3 DUP2 SHR SWAP3 AND DUP1 ISZERO PUSH2 0x1362 JUMPI JUMPDEST PUSH1 0x20 DUP4 LT EQ PUSH2 0x134C JUMPI JUMP JUMPDEST PUSH4 0x4E487B71 PUSH1 0xE0 SHL PUSH1 0x0 MSTORE PUSH1 0x22 PUSH1 0x4 MSTORE PUSH1 0x24 PUSH1 0x0 REVERT JUMPDEST SWAP2 PUSH1 0x7F AND SWAP2 PUSH2 0x1341 JUMP JUMPDEST PUSH1 0x9 SLOAD PUSH1 0x1 PUSH1 0x1 PUSH1 0xA0 SHL SUB AND CALLER SUB PUSH2 0x1380 JUMPI JUMP JUMPDEST PUSH1 0x40 MLOAD PUSH4 0x118CDAA7 PUSH1 0xE0 SHL DUP2 MSTORE CALLER PUSH1 0x4 DUP3 ADD MSTORE PUSH1 0x24 SWAP1 REVERT JUMPDEST PUSH1 0x1 PUSH1 0x1 PUSH1 0xA0 SHL SUB SWAP2 DUP3 AND SWAP3 SWAP1 SWAP2 DUP4 ISZERO PUSH2 0x1521 JUMPI PUSH1 0x0 SWAP3 DUP3 DUP5 MSTORE DUP3 PUSH1 0x20 SWAP6 PUSH1 0x2 DUP8 MSTORE PUSH1 0x40 SWAP7 DUP5 DUP9 DUP9 KECCAK256 SLOAD AND SWAP7 DUP8 SWAP2 CALLER ISZERO ISZERO DUP1 PUSH2 0x1488 JUMPI JUMPDEST POP SWAP1 PUSH1 0x2 PUSH32 0xDDF252AD1BE2C89B69C2B068FC378DAA952BA7F163C4A11628F55A4DF523B3EF SWAP3 DUP5 PUSH2 0x1455 JUMPI JUMPDEST DUP6 DUP4 MSTORE PUSH1 0x3 DUP2 MSTORE DUP12 DUP4 KECCAK256 DUP1 SLOAD PUSH1 0x1 ADD SWAP1 SSTORE DUP7 DUP4 MSTORE MSTORE DUP10 DUP2 KECCAK256 DUP1 SLOAD PUSH1 0x1 PUSH1 0x1 PUSH1 0xA0 SHL SUB NOT AND DUP6 OR SWAP1 SSTORE DUP1 LOG4 AND SWAP3 DUP4 DUP4 SUB PUSH2 0x1434 JUMPI POP POP POP POP JUMP JUMPDEST PUSH1 0x64 SWAP5 POP MLOAD SWAP3 PUSH4 0x64283D7B PUSH1 0xE0 SHL DUP5 MSTORE PUSH1 0x4 DUP5 ADD MSTORE PUSH1 0x24 DUP4 ADD MSTORE PUSH1 0x44 DUP3 ADD MSTORE REVERT JUMPDEST PUSH1 0x0 DUP8 DUP2 MSTORE PUSH1 0x4 PUSH1 0x20 MSTORE PUSH1 0x40 SWAP1 KECCAK256 DUP1 SLOAD PUSH1 0x1 PUSH1 0x1 PUSH1 0xA0 SHL SUB NOT AND SWAP1 SSTORE DUP5 DUP4 MSTORE PUSH1 0x3 DUP2 MSTORE DUP12 DUP4 KECCAK256 DUP1 SLOAD PUSH1 0x0 NOT ADD SWAP1 SSTORE PUSH2 0x13FB JUMP JUMPDEST SWAP2 SWAP4 SWAP5 POP SWAP2 POP DUP1 PUSH2 0x14E0 JUMPI JUMPDEST ISZERO PUSH2 0x14A4 JUMPI DUP6 SWAP3 SWAP2 DUP8 SWAP2 CODESIZE PUSH2 0x13CF JUMP JUMPDEST DUP8 DUP7 DUP9 PUSH2 0x14C1 JUMPI PUSH1 0x24 SWAP2 MLOAD SWAP1 PUSH4 0x7E273289 PUSH1 0xE0 SHL DUP3 MSTORE PUSH1 0x4 DUP3 ADD MSTORE REVERT JUMPDEST SWAP1 MLOAD PUSH4 0x177E802F PUSH1 0xE0 SHL DUP2 MSTORE CALLER PUSH1 0x4 DUP3 ADD MSTORE PUSH1 0x24 DUP2 ADD SWAP2 SWAP1 SWAP2 MSTORE PUSH1 0x44 SWAP1 REVERT JUMPDEST POP CALLER DUP8 EQ DUP1 ISZERO PUSH2 0x1505 JUMPI JUMPDEST DUP1 PUSH2 0x1494 JUMPI POP DUP6 DUP3 MSTORE PUSH1 0x4 DUP2 MSTORE CALLER DUP6 DUP10 DUP5 KECCAK256 SLOAD AND EQ PUSH2 0x1494 JUMP JUMPDEST POP DUP7 DUP3 MSTORE PUSH1 0x5 DUP2 MSTORE DUP8 DUP3 KECCAK256 CALLER DUP4 MSTORE DUP2 MSTORE PUSH1 0xFF DUP9 DUP4 KECCAK256 SLOAD AND PUSH2 0x14EB JUMP JUMPDEST PUSH1 0x40 MLOAD PUSH4 0x32505749 PUSH1 0xE1 SHL DUP2 MSTORE PUSH1 0x0 PUSH1 0x4 DUP3 ADD MSTORE PUSH1 0x24 SWAP1 REVERT JUMPDEST PUSH1 0x0 DUP2 DUP2 MSTORE PUSH1 0x2 PUSH1 0x20 MSTORE PUSH1 0x40 SWAP1 KECCAK256 SLOAD PUSH1 0x1 PUSH1 0x1 PUSH1 0xA0 SHL SUB AND SWAP1 DUP2 ISZERO PUSH2 0x155D JUMPI POP SWAP1 JUMP JUMPDEST PUSH1 0x24 SWAP1 PUSH1 0x40 MLOAD SWAP1 PUSH4 0x7E273289 PUSH1 0xE0 SHL DUP3 MSTORE PUSH1 0x4 DUP3 ADD MSTORE REVERT JUMPDEST SWAP1 SWAP4 SWAP2 SWAP3 DUP4 EXTCODESIZE PUSH2 0x1587 JUMPI JUMPDEST POP POP POP POP POP JUMP JUMPDEST PUSH1 0x40 MLOAD PUSH4 0xA85BD01 PUSH1 0xE1 SHL DUP1 DUP3 MSTORE PUSH1 0x1 PUSH1 0x1 PUSH1 0xA0 SHL SUB SWAP4 DUP5 AND PUSH1 0x4 DUP4 ADD MSTORE SWAP6 DUP4 AND PUSH1 0x24 DUP3 ADD MSTORE PUSH1 0x44 DUP2 ADD SWAP2 SWAP1 SWAP2 MSTORE PUSH1 0x80 PUSH1 0x64 DUP3 ADD MSTORE SWAP5 SWAP3 AND SWAP3 PUSH1 0x20 SWAP3 SWAP2 DUP6 SWAP1 PUSH2 0x15D4 SWAP1 PUSH1 0x84 DUP4 ADD SWAP1 PUSH2 0x11AF JUMP JUMPDEST SUB SWAP5 DUP4 DUP2 PUSH1 0x0 SWAP8 DUP2 DUP10 DUP10 GAS CALL DUP7 SWAP2 DUP2 PUSH2 0x167F JUMPI JUMPDEST POP PUSH2 0x1649 JUMPI POP POP POP RETURNDATASIZE PUSH1 0x0 EQ PUSH2 0x1640 JUMPI RETURNDATASIZE PUSH2 0x1602 DUP2 PUSH2 0x12C1 JUMP JUMPDEST SWAP1 PUSH2 0x1610 PUSH1 0x40 MLOAD SWAP3 DUP4 PUSH2 0x1287 JUMP JUMPDEST DUP2 MSTORE DUP1 SWAP4 DUP3 RETURNDATASIZE SWAP3 ADD RETURNDATACOPY JUMPDEST DUP3 MLOAD SWAP3 DUP4 PUSH2 0x163B JUMPI PUSH1 0x40 MLOAD PUSH4 0x32505749 PUSH1 0xE1 SHL DUP2 MSTORE PUSH1 0x4 DUP2 ADD DUP5 SWAP1 MSTORE PUSH1 0x24 SWAP1 REVERT JUMPDEST ADD SWAP1 POP REVERT JUMPDEST PUSH1 0x60 SWAP3 POP PUSH2 0x161A JUMP JUMPDEST SWAP2 SWAP5 POP SWAP2 POP PUSH4 0xFFFFFFFF PUSH1 0xE0 SHL AND SUB PUSH2 0x1667 JUMPI POP CODESIZE DUP1 DUP1 DUP1 DUP1 PUSH2 0x1580 JUMP JUMPDEST PUSH1 0x24 SWAP1 PUSH1 0x40 MLOAD SWAP1 PUSH4 0x32505749 PUSH1 0xE1 SHL DUP3 MSTORE PUSH1 0x4 DUP3 ADD MSTORE REVERT JUMPDEST SWAP1 SWAP2 POP DUP5 DUP2 DUP2 RETURNDATASIZE DUP4 GT PUSH2 0x16B8 JUMPI JUMPDEST PUSH2 0x1697 DUP2 DUP4 PUSH2 0x1287 JUMP JUMPDEST DUP2 ADD SUB SLT PUSH2 0xD32 JUMPI MLOAD PUSH1 0x1 PUSH1 0x1 PUSH1 0xE0 SHL SUB NOT DUP2 AND DUP2 SUB PUSH2 0xD32 JUMPI SWAP1 CODESIZE PUSH2 0x15E8 JUMP JUMPDEST POP RETURNDATASIZE PUSH2 0x168D JUMP JUMPDEST SWAP2 SWAP1 SWAP2 PUSH2 0x16CA PUSH2 0x136C JUMP JUMPDEST PUSH2 0x16D2 PUSH2 0x1B03 JUMP JUMPDEST PUSH1 0xA SLOAD SWAP1 PUSH2 0x16DF DUP3 PUSH2 0x1ADE JUMP JUMPDEST PUSH1 0xA SSTORE PUSH1 0x40 SWAP4 DUP5 MLOAD PUSH2 0x16F0 DUP2 PUSH2 0x1255 JUMP JUMPDEST PUSH1 0x0 DUP1 DUP3 MSTORE SWAP6 PUSH1 0x1 PUSH1 0x1 PUSH1 0xA0 SHL SUB DUP5 DUP2 AND SWAP5 SWAP1 SWAP3 SWAP1 DUP6 ISZERO PUSH2 0x1AC6 JUMPI SWAP1 DUP9 SWAP5 SWAP4 SWAP3 SWAP2 DUP8 DUP7 MSTORE PUSH1 0x20 SWAP4 PUSH1 0x2 DUP6 MSTORE DUP4 DUP8 KECCAK256 SLOAD AND DUP9 DUP9 DUP3 ISZERO ISZERO SWAP3 DUP4 PUSH2 0x1A93 JUMPI JUMPDEST DUP2 DUP11 MSTORE PUSH1 0x3 DUP9 MSTORE PUSH32 0xDDF252AD1BE2C89B69C2B068FC378DAA952BA7F163C4A11628F55A4DF523B3EF DUP8 DUP12 KECCAK256 SWAP11 PUSH1 0x1 SWAP12 DUP13 DUP2 SLOAD ADD SWAP1 SSTORE DUP5 DUP2 MSTORE PUSH1 0x2 DUP11 MSTORE DUP9 DUP2 KECCAK256 DUP5 PUSH1 0x1 PUSH1 0x1 PUSH1 0x60 SHL SUB PUSH1 0xA0 SHL DUP3 SLOAD AND OR SWAP1 SSTORE DUP1 LOG4 PUSH2 0x1A7B JUMPI SWAP1 DUP10 SWAP2 EXTCODESIZE PUSH2 0x1950 JUMPI JUMPDEST POP DUP7 SWAP1 MSTORE PUSH1 0x6 DUP3 MSTORE DUP1 DUP9 KECCAK256 SWAP4 DUP4 MLOAD SWAP1 PUSH8 0xFFFFFFFFFFFFFFFF DUP3 GT PUSH2 0x193C JUMPI DUP8 SWAP9 SWAP10 PUSH2 0x17BA DUP8 SWAP9 SWAP10 SWAP8 SLOAD PUSH2 0x1332 JUMP JUMPDEST PUSH1 0x1F DUP2 GT PUSH2 0x18E5 JUMPI JUMPDEST POP DUP5 SWAP1 PUSH1 0x1F DUP5 GT PUSH1 0x1 EQ PUSH2 0x185D JUMPI SWAP3 DUP1 PUSH32 0x6BECD955C918828F6E985541ACBF49CC842C9E9BD569FFFC7698E721EF13575 SWAP9 SWAP10 SWAP4 DUP2 SWAP4 PUSH2 0x184C SWAP8 SWAP7 SWAP4 PUSH2 0x1852 JUMPI JUMPDEST POP SHL SWAP2 PUSH1 0x0 NOT SWAP1 PUSH1 0x3 SHL SHR NOT AND OR SWAP1 SSTORE JUMPDEST PUSH32 0xF8E1A15ABA9398E019F0B49DF1A4FDE98EE17AE345CB5F6B5E2C27F5033E8CE7 DUP4 DUP3 MLOAD DUP9 DUP2 MSTORE LOG1 MLOAD SWAP3 DUP3 DUP5 SWAP4 DUP5 MSTORE DUP4 ADD SWAP1 PUSH2 0x11AF JUMP JUMPDEST SUB SWAP1 LOG3 SWAP1 JUMP JUMPDEST DUP10 ADD MLOAD SWAP3 POP CODESIZE PUSH2 0x1804 JUMP JUMPDEST SWAP8 SWAP3 SWAP1 PUSH1 0x1F NOT DUP3 AND DUP5 DUP11 MSTORE DUP7 DUP11 KECCAK256 SWAP10 JUMPDEST DUP2 DUP2 LT PUSH2 0x18CD JUMPI POP SWAP9 DUP3 SWAP2 PUSH2 0x184C SWAP7 SWAP6 SWAP5 SWAP4 PUSH32 0x6BECD955C918828F6E985541ACBF49CC842C9E9BD569FFFC7698E721EF13575 SWAP11 SWAP12 LT PUSH2 0x18B4 JUMPI JUMPDEST POP POP DUP2 SHL ADD SWAP1 SSTORE PUSH2 0x1815 JUMP JUMPDEST DUP9 ADD MLOAD PUSH1 0x0 NOT PUSH1 0xF8 DUP5 PUSH1 0x3 SHL AND SHR NOT AND SWAP1 SSTORE CODESIZE DUP1 PUSH2 0x18A8 JUMP JUMPDEST DUP3 DUP10 ADD MLOAD DUP12 SSTORE SWAP10 DUP5 ADD SWAP10 DUP13 SWAP10 POP SWAP2 DUP8 ADD SWAP2 DUP8 ADD PUSH2 0x186D JUMP JUMPDEST SWAP1 SWAP2 SWAP3 SWAP4 SWAP5 SWAP6 SWAP7 POP DUP8 DUP3 MSTORE DUP6 DUP3 KECCAK256 PUSH1 0x1F DUP6 ADD PUSH1 0x5 SHR DUP2 ADD SWAP2 DUP8 DUP7 LT PUSH2 0x1932 JUMPI JUMPDEST SWAP1 PUSH1 0x1F DUP13 SWAP10 SWAP9 SWAP8 SWAP7 SWAP6 SWAP5 SWAP4 SWAP3 ADD PUSH1 0x5 SHR ADD SWAP1 JUMPDEST DUP2 DUP2 LT PUSH2 0x1925 JUMPI POP PUSH2 0x17C3 JUMP JUMPDEST DUP3 DUP2 SSTORE DUP12 SWAP9 POP DUP4 ADD PUSH2 0x1918 JUMP JUMPDEST SWAP1 SWAP2 POP DUP2 SWAP1 PUSH2 0x1905 JUMP JUMPDEST PUSH4 0x4E487B71 PUSH1 0xE0 SHL DUP11 MSTORE PUSH1 0x41 PUSH1 0x4 MSTORE PUSH1 0x24 DUP11 REVERT JUMPDEST DUP4 PUSH2 0x1991 SWAP2 DUP5 SWAP10 SWAP7 SWAP5 SWAP11 SWAP8 SWAP6 SWAP9 SWAP11 MLOAD DUP1 SWAP4 DUP2 SWAP3 PUSH4 0xA85BD01 PUSH1 0xE1 SHL SWAP7 DUP8 DUP5 MSTORE CALLER PUSH1 0x4 DUP6 ADD MSTORE PUSH1 0x24 DUP5 ADD MSTORE DUP10 PUSH1 0x44 DUP5 ADD MSTORE PUSH1 0x80 PUSH1 0x64 DUP5 ADD MSTORE PUSH1 0x84 DUP4 ADD SWAP1 PUSH2 0x11AF JUMP JUMPDEST SUB DUP2 DUP14 DUP14 GAS CALL DUP11 SWAP2 DUP2 PUSH2 0x1A37 JUMPI JUMPDEST POP PUSH2 0x1A02 JUMPI POP POP POP POP POP POP RETURNDATASIZE PUSH1 0x0 EQ PUSH2 0x19F9 JUMPI RETURNDATASIZE PUSH2 0x19BC DUP2 PUSH2 0x12C1 JUMP JUMPDEST SWAP1 PUSH2 0x19C9 DUP5 MLOAD SWAP3 DUP4 PUSH2 0x1287 JUMP JUMPDEST DUP2 MSTORE DUP1 SWAP5 DUP3 RETURNDATASIZE SWAP3 ADD RETURNDATACOPY JUMPDEST DUP4 MLOAD SWAP4 DUP5 PUSH2 0x19F3 JUMPI DUP3 MLOAD PUSH4 0x32505749 PUSH1 0xE1 SHL DUP2 MSTORE PUSH1 0x4 DUP2 ADD DUP6 SWAP1 MSTORE PUSH1 0x24 SWAP1 REVERT JUMPDEST DUP5 SWAP3 POP ADD REVERT JUMPDEST PUSH1 0x60 SWAP4 POP PUSH2 0x19D3 JUMP JUMPDEST PUSH4 0xFFFFFFFF PUSH1 0xE0 SWAP10 SWAP8 SWAP5 SWAP7 SWAP10 SWAP9 SWAP4 SWAP6 SWAP9 SHL AND SUB PUSH2 0x1A20 JUMPI DUP8 CODESIZE PUSH2 0x178C JUMP JUMPDEST MLOAD PUSH4 0x32505749 PUSH1 0xE1 SHL DUP2 MSTORE PUSH1 0x4 DUP2 ADD DUP6 SWAP1 MSTORE PUSH1 0x24 SWAP1 REVERT JUMPDEST SWAP1 SWAP2 POP DUP8 DUP2 DUP2 RETURNDATASIZE DUP4 GT PUSH2 0x1A74 JUMPI JUMPDEST PUSH2 0x1A4F DUP2 DUP4 PUSH2 0x1287 JUMP JUMPDEST DUP2 ADD SUB SLT PUSH2 0x1A70 JUMPI MLOAD PUSH1 0x1 PUSH1 0x1 PUSH1 0xE0 SHL SUB NOT DUP2 AND DUP2 SUB PUSH2 0x1A70 JUMPI SWAP1 CODESIZE PUSH2 0x199F JUMP JUMPDEST DUP11 DUP1 REVERT JUMPDEST POP RETURNDATASIZE PUSH2 0x1A45 JUMP JUMPDEST DUP3 MLOAD PUSH4 0x39E35637 PUSH1 0xE1 SHL DUP2 MSTORE PUSH1 0x4 DUP2 ADD DUP12 SWAP1 MSTORE PUSH1 0x24 SWAP1 REVERT JUMPDEST PUSH1 0x0 DUP4 DUP2 MSTORE PUSH1 0x4 PUSH1 0x20 MSTORE PUSH1 0x40 SWAP1 KECCAK256 DUP1 SLOAD PUSH1 0x1 PUSH1 0x1 PUSH1 0xA0 SHL SUB NOT AND SWAP1 SSTORE DUP1 DUP11 MSTORE PUSH1 0x3 DUP9 MSTORE DUP7 DUP11 KECCAK256 DUP1 SLOAD PUSH1 0x0 NOT ADD SWAP1 SSTORE PUSH2 0x172C JUMP JUMPDEST DUP3 MLOAD PUSH4 0x32505749 PUSH1 0xE1 SHL DUP2 MSTORE PUSH1 0x4 DUP2 ADD DUP11 SWAP1 MSTORE PUSH1 0x24 SWAP1 REVERT JUMPDEST PUSH1 0x0 NOT DUP2 EQ PUSH2 0x1AED JUMPI PUSH1 0x1 ADD SWAP1 JUMP JUMPDEST PUSH4 0x4E487B71 PUSH1 0xE0 SHL PUSH1 0x0 MSTORE PUSH1 0x11 PUSH1 0x4 MSTORE PUSH1 0x24 PUSH1 0x0 REVERT JUMPDEST PUSH1 0xFF PUSH1 0x9 SLOAD PUSH1 0xA0 SHR AND PUSH2 0x1B12 JUMPI JUMP JUMPDEST PUSH1 0x40 MLOAD PUSH4 0xD93C0665 PUSH1 0xE0 SHL DUP2 MSTORE PUSH1 0x4 SWAP1 REVERT JUMPDEST DUP1 MLOAD DUP3 LT ISZERO PUSH2 0x1B38 JUMPI PUSH1 0x20 SWAP2 PUSH1 0x5 SHL ADD ADD SWAP1 JUMP JUMPDEST PUSH4 0x4E487B71 PUSH1 0xE0 SHL PUSH1 0x0 MSTORE PUSH1 0x32 PUSH1 0x4 MSTORE PUSH1 0x24 PUSH1 0x0 REVERT INVALID LOG2 PUSH5 0x6970667358 0x22 SLT KECCAK256 RETURNDATACOPY DELEGATECALL 0xAB 0xD3 0xE6 0x4E 0xD1 DIV SWAP14 DUP1 PUSH13 0xC39B548C3FF90BF913BCC80D8A EXTCODESIZE 0x5D 0xCB 0xDE 0xCA PUSH20 0x85ED64736F6C6343000814003300000000000000 "},"methodIdentifiers":{"agentWallet()":"3f6dfdbc","approve(address,uint256)":"095ea7b3","balanceOf(address)":"70a08231","batchMint(address[],string[])":"64ba144e","collectionURI()":"a5097ebf","getApproved(uint256)":"081812fc","isApprovedForAll(address,address)":"e985e9c5","mint(address,string)":"d0def521","name()":"06fdde03","owner()":"8da5cb5b","ownerOf(uint256)":"6352211e","pause()":"8456cb59","paused()":"5c975abb","renounceOwnership()":"715018a6","royaltyFee()":"b8997a97","royaltyInfo(uint256,uint256)":"2a55205a","safeTransferFrom(address,address,uint256)":"42842e0e","safeTransferFrom(address,address,uint256,bytes)":"b88d4fde","setApprovalForAll(address,bool)":"a22cb465","supportsInterface(bytes4)":"01ffc9a7","symbol()":"95d89b41","tokenURI(uint256)":"c87b56dd","totalSupply()":"18160ddd","transferFrom(address,address,uint256)":"23b872dd","transferOwnership(address)":"f2fde38b","unpause()":"3f4ba83a","updateCollectionURI(string)":"7910af6f","updateRoyalty(address,uint96)":"daa83c6d"}}}}}