{"contracts/AgentMarketplace.sol":{"AgentMarketplace":{"abi":[{"inputs":[{"internalType":"address","name":"_platformWallet","type":"address"},{"internalType":"uint256","name":"_platformFee","type":"uint256"},{"internalType":"uint256","name":"_agentFee","type":"uint256"}],"stateMutability":"nonpayable","type":"constructor"},{"inputs":[],"name":"EnforcedPause","type":"error"},{"inputs":[],"name":"ExpectedPause","type":"error"},{"inputs":[],"name":"ReentrancyGuardReentrantCall","type":"error"},{"anonymous":false,"inputs":[{"indexed":true,"internalType":"address","name":"nftContract","type":"address"},{"indexed":true,"internalType":"uint256","name":"tokenId","type":"uint256"},{"indexed":true,"internalType":"address","name":"seller","type":"address"}],"name":"ListingCancelled","type":"event"},{"anonymous":false,"inputs":[{"indexed":true,"internalType":"address","name":"nftContract","type":"address"},{"indexed":true,"internalType":"uint256","name":"tokenId","type":"uint256"},{"indexed":true,"internalType":"address","name":"seller","type":"address"},{"indexed":false,"internalType":"uint256","name":"price","type":"uint256"},{"indexed":false,"internalType":"uint256","name":"timestamp","type":"uint256"}],"name":"NFTListed","type":"event"},{"anonymous":false,"inputs":[{"indexed":true,"internalType":"address","name":"nftContract","type":"address"},{"indexed":true,"internalType":"uint256","name":"tokenId","type":"uint256"},{"indexed":true,"internalType":"address","name":"seller","type":"address"},{"indexed":false,"internalType":"address","name":"buyer","type":"address"},{"indexed":false,"internalType":"uint256","name":"price","type":"uint256"},{"indexed":false,"internalType":"uint256","name":"timestamp","type":"uint256"}],"name":"NFTSold","type":"event"},{"anonymous":false,"inputs":[{"indexed":true,"internalType":"address","name":"nftContract","type":"address"},{"indexed":true,"internalType":"uint256","name":"tokenId","type":"uint256"},{"indexed":true,"internalType":"address","name":"seller","type":"address"},{"indexed":false,"internalType":"address","name":"buyer","type":"address"},{"indexed":false,"internalType":"uint256","name":"price","type":"uint256"}],"name":"OfferAccepted","type":"event"},{"anonymous":false,"inputs":[{"indexed":true,"internalType":"address","name":"nftContract","type":"address"},{"indexed":true,"internalType":"uint256","name":"tokenId","type":"uint256"},{"indexed":true,"internalType":"address","name":"offerer","type":"address"},{"indexed":false,"internalType":"uint256","name":"price","type":"uint256"},{"indexed":false,"internalType":"uint256","name":"expiresAt","type":"uint256"}],"name":"OfferMade","type":"event"},{"anonymous":false,"inputs":[{"indexed":false,"internalType":"address","name":"account","type":"address"}],"name":"Paused","type":"event"},{"anonymous":false,"inputs":[{"indexed":true,"internalType":"address","name":"nftContract","type":"address"},{"indexed":true,"internalType":"uint256","name":"tokenId","type":"uint256"},{"indexed":false,"internalType":"uint256","name":"oldPrice","type":"uint256"},{"indexed":false,"internalType":"uint256","name":"newPrice","type":"uint256"}],"name":"PriceUpdated","type":"event"},{"anonymous":false,"inputs":[{"indexed":false,"internalType":"address","name":"account","type":"address"}],"name":"Unpaused","type":"event"},{"inputs":[{"internalType":"address","name":"nftContract","type":"address"},{"internalType":"uint256","name":"tokenId","type":"uint256"},{"internalType":"uint256","name":"offerIndex","type":"uint256"}],"name":"acceptOffer","outputs":[],"stateMutability":"nonpayable","type":"function"},{"inputs":[],"name":"agentFee","outputs":[{"internalType":"uint256","name":"","type":"uint256"}],"stateMutability":"view","type":"function"},{"inputs":[{"internalType":"address","name":"nftContract","type":"address"},{"internalType":"uint256","name":"tokenId","type":"uint256"}],"name":"buyNFT","outputs":[],"stateMutability":"payable","type":"function"},{"inputs":[{"internalType":"address","name":"nftContract","type":"address"},{"internalType":"uint256","name":"tokenId","type":"uint256"}],"name":"cancelListing","outputs":[],"stateMutability":"nonpayable","type":"function"},{"inputs":[{"internalType":"address","name":"","type":"address"}],"name":"collectionAgents","outputs":[{"internalType":"address","name":"","type":"address"}],"stateMutability":"view","type":"function"},{"inputs":[{"internalType":"address","name":"nftContract","type":"address"},{"internalType":"uint256","name":"tokenId","type":"uint256"}],"name":"getOffers","outputs":[{"components":[{"internalType":"address","name":"offerer","type":"address"},{"internalType":"uint256","name":"price","type":"uint256"},{"internalType":"uint256","name":"expiresAt","type":"uint256"},{"internalType":"bool","name":"isActive","type":"bool"}],"internalType":"struct AgentMarketplace.Offer[]","name":"","type":"tuple[]"}],"stateMutability":"view","type":"function"},{"inputs":[{"internalType":"address","name":"nftContract","type":"address"},{"internalType":"uint256","name":"tokenId","type":"uint256"},{"internalType":"uint256","name":"price","type":"uint256"}],"name":"listNFT","outputs":[],"stateMutability":"nonpayable","type":"function"},{"inputs":[{"internalType":"address","name":"","type":"address"},{"internalType":"uint256","name":"","type":"uint256"}],"name":"listings","outputs":[{"internalType":"address","name":"seller","type":"address"},{"internalType":"address","name":"nftContract","type":"address"},{"internalType":"uint256","name":"tokenId","type":"uint256"},{"internalType":"uint256","name":"price","type":"uint256"},{"internalType":"bool","name":"isActive","type":"bool"},{"internalType":"uint256","name":"listedAt","type":"uint256"}],"stateMutability":"view","type":"function"},{"inputs":[{"internalType":"address","name":"nftContract","type":"address"},{"internalType":"uint256","name":"tokenId","type":"uint256"},{"internalType":"uint256","name":"expiresAt","type":"uint256"}],"name":"makeOffer","outputs":[],"stateMutability":"payable","type":"function"},{"inputs":[{"internalType":"address","name":"","type":"address"},{"internalType":"uint256","name":"","type":"uint256"},{"internalType":"uint256","name":"","type":"uint256"}],"name":"offers","outputs":[{"internalType":"address","name":"offerer","type":"address"},{"internalType":"uint256","name":"price","type":"uint256"},{"internalType":"uint256","name":"expiresAt","type":"uint256"},{"internalType":"bool","name":"isActive","type":"bool"}],"stateMutability":"view","type":"function"},{"inputs":[],"name":"pause","outputs":[],"stateMutability":"nonpayable","type":"function"},{"inputs":[],"name":"paused","outputs":[{"internalType":"bool","name":"","type":"bool"}],"stateMutability":"view","type":"function"},{"inputs":[],"name":"platformFee","outputs":[{"internalType":"uint256","name":"","type":"uint256"}],"stateMutability":"view","type":"function"},{"inputs":[],"name":"platformWallet","outputs":[{"internalType":"address","name":"","type":"address"}],"stateMutability":"view","type":"function"},{"inputs":[{"internalType":"address","name":"nftContract","type":"address"},{"internalType":"address","name":"agentWallet","type":"address"}],"name":"registerCollectionAgent","outputs":[],"stateMutability":"nonpayable","type":"function"},{"inputs":[],"name":"unpause","outputs":[],"stateMutability":"nonpayable","type":"function"},{"inputs":[{"internalType":"uint256","name":"newFee","type":"uint256"}],"name":"updateAgentFee","outputs":[],"stateMutability":"nonpayable","type":"function"},{"inputs":[{"internalType":"uint256","name":"newFee","type":"uint256"}],"name":"updatePlatformFee","outputs":[],"stateMutability":"nonpayable","type":"function"},{"inputs":[{"internalType":"address","name":"nftContract","type":"address"},{"internalType":"uint256","name":"tokenId","type":"uint256"},{"internalType":"uint256","name":"newPrice","type":"uint256"}],"name":"updatePrice","outputs":[],"stateMutability":"nonpayable","type":"function"}],"evm":{"bytecode":{"linkReferences":{},"object":"60803461014457601f611a1038819003918201601f19168301916001600160401b03831184841017610149578084926060946040528339810103126101445780516001600160a01b0381169190829003610144576040602082015191015191600160005580156100ff578282018083116100e9576103e8106100a457600680546001600160a01b0319169190911790556004556005556040516118b090816101608239f35b60405162461bcd60e51b815260206004820152601360248201527f546f74616c206665657320746f6f2068696768000000000000000000000000006044820152606490fd5b634e487b7160e01b600052601160045260246000fd5b60405162461bcd60e51b815260206004820152601760248201527f496e76616c696420706c6174666f726d2077616c6c65740000000000000000006044820152606490fd5b600080fd5b634e487b7160e01b600052604160045260246000fdfe608060408181526004918236101561001657600080fd5b600092833560e01c91826207df30146112105750816326232a2e146111f257816334a4cb8f146111d35781633a2d126d1461112e5781633c6fc81714610e9c5781633f4ba83a14610e255781635c975abb14610e015781636097ff9014610dc05781637de3bd0714610b5e57816382580e9014610b235781638456cb5914610abc578163a82ba76f146107fe578163aa0b5988146107b6578163ad05f1b414610488578163b2ddee06146103a6578163e3b436771461032b578163e57d6fb714610263578163ea98a95014610120575063fa2af9da146100f557600080fd5b3461011c578160031936011261011c5760065490516001600160a01b039091168152602090f35b5080fd5b8391503461011c578260031936011261011c576001600160a01b03918261014561128f565b168152600390602090828252858120602435825282528581209384549067ffffffffffffffff82116102505787949392945193610187848460051b0186611368565b82855283850190819787528487209087925b8a8c878610610204579650505050505050519481860192828752518093528686019493905b8382106101cb5786860387f35b845180518216875280840151878501528881015189880152606090810151151590870152608090950194938201936001909101906101be565b9760019287928a839c9d9b519161021a83611330565b8854168252858801548483015260028801549082015260ff86880154161515606082015281520193019301929197969597610199565b634e487b7160e01b835260419052602482fd5b90503461032757610273366112aa565b90939160018060a01b038091169384875260026020528387208688526020526102b2848820926102a860ff8486015416611480565b83541633146114b9565b82156102f457509060037f40a2e1011bc4b63fe019abc98ce43b9ae4a22f2072b84f3d14941dc1675979c293920190808254925582519182526020820152a380f35b606490602085519162461bcd60e51b8352820152600d60248201526c496e76616c696420707269636560981b6044820152fd5b8280fd5b8284346103a35761033b366112aa565b9391929060018060a01b03809416825260036020528282209082526020528181209081548510156103a35750608093610373916112d4565b50918254169160018101549160ff6003600284015493015416928151948552602085015283015215156060820152f35b80fd5b919050346103275780600319360112610327576103c161128f565b916024359161044360018060a01b0380951694858752600260205282872085885260205282872061043a8451916103f78361134c565b83815416835283600182015416602084015260028101548684015260038101546060840152600560ff8883015416151591826080860152015460a0840152611480565b511633146114b9565b838552600260205280852083865260205284200160ff19815416905533917f8526cb6d400b8a551983c99e6d6fb1775b7a0deeb5d1e39d3ee65bc59e5eac278480a480f35b9190503461032757610499366112aa565b93916104a69391936113dc565b81516331a9108f60e11b81528084018590526001600160a01b03918216936020929091602490848183818a5afa8015610741578a90610780575b6104ee91508316331461139e565b845163020604bf60e21b8152838101889052848183818a5afa908115610741578a9161074b575b508216301480156106d4575b156106935787156106525785895260028452848920878a52845260ff83868b2001541661062057509260058561060c85948b8b86988c8b7f902e543cfa5843dd67ad404742ff059a71d0a7349e01f2bf410b6f20c62986209c8a519a8b966105888861134c565b338852858801948b86528289019681885260608a0198895260a060808b019a60018c52019c8d42905283526002815283832091835252209a5116906bffffffffffffffffffffffff60a01b91828c5416178b5560018b01925116908254161790555160028801555160038701555115159085019060ff801983541691151516179055565b51910155815195865242908601523394a480f35b600e915060649385519362461bcd60e51b85528401528201526d105b1c9958591e481b1a5cdd195960921b6044820152fd5b601c915060649385519362461bcd60e51b85528401528201527f5072696365206d7573742062652067726561746572207468616e2030000000006044820152fd5b6018915060649385519362461bcd60e51b85528401528201527f4d61726b6574706c616365206e6f7420617070726f76656400000000000000006044820152fd5b50845163e985e9c560e01b81523384820152308282015284816044818a5afa908115610741578a91610707575b50610521565b90508481813d831161073a575b61071e8183611368565b81010312610736575180151581036107365738610701565b8980fd5b503d610714565b86513d8c823e3d90fd5b90508481813d8311610779575b6107628183611368565b81010312610736576107739061138a565b38610515565b503d610758565b508481813d83116107af575b6107968183611368565b81010312610736576107aa6104ee9161138a565b6104e0565b503d61078c565b83903461011c57602036600319011261011c578035906107e160018060a01b036006541633146117ef565b6107fa6103e86107f36005548561182b565b1115611838565b5580f35b918091506003193601126103275761081461128f565b906024359161082161145d565b6108296113dc565b60018060a01b039182821692838752602092600284528288208689528452828820968351916108578361134c565b8389541683528360018a0154168684015260028901548584015260038901549860608401998a52600560ff8483015416159182156080870152015460a0850152610a835788513410610a4957838351163314610a11578990878252600287528582208983528752828683200160ff1981541690556108d78a518a83611505565b9395898994929451168d3b1561011c57818f8f8b8f61092a9585915196879586948593632142170760e11b85523391850160409194939294606082019560018060a01b0380921683521660208201520152565b03925af18015610a07576109ef575b505061094895898951166115f6565b888851803411610997575b505050917f85d6aff492354cbf7fdd7efb2bd8bce059037aef73b968f95d32a417598cbff99391606093511696518151923384528301524290820152a46001815580f35b81806109a48193346113fa565b335af16109af61141d565b50156109bc578881610953565b835162461bcd60e51b8152908101859052600d60248201526c1499599d5b990819985a5b1959609a1b6044820152606490fd5b6109f890611306565b610a03578e38610939565b8e80fd5b8c513d84823e3d90fd5b845162461bcd60e51b8152808301879052601260248201527110d85b9b9bdd08189d5e481bdddb8813919560721b6044820152606490fd5b845162461bcd60e51b81528083018790526014602482015273125b9cdd59999a58da595b9d081c185e5b595b9d60621b6044820152606490fd5b845162461bcd60e51b815280830187905260136024820152724e6f74206c697374656420666f722073616c6560681b6044820152606490fd5b50503461011c578160031936011261011c5760207f62e78cea01bee320cd4e420270b5ea74000d11b0c9f74754ebdbfc544b05a25891610b0760018060a01b036006541633146117ef565b610b0f6113dc565b600160ff198154161760015551338152a180f35b50503461011c57602036600319011261011c576020916001600160a01b0390829082610b4d61128f565b168152600785522054169051908152f35b919050610b6a366112aa565b9391939290923415610d7d5742811115610d455781516331a9108f60e11b81528084018590526020956001600160a01b0390811694918781602481895afa908115610d3b578991610d02575b5081163314610cbf5784885260038752838820868952875283882090845190610bde82611330565b338252888201903482528683019286845260608101946001865280549068010000000000000000821015610cac5790610c1c916001820181556112d4565b969096610c9a575092600392610c8b95927ece0a712e4e277ac7b34942865f0de7a5629dffe0539b70423ad5ff1ed6ab429998979551166bffffffffffffffffffffffff60a01b86541617855551600185015551600284015551151591019060ff801983541691151516179055565b8151953487528601523394a480f35b634e487b7160e01b8d528c905260248cfd5b634e487b7160e01b8e526041885260248efd5b835162461bcd60e51b8152808301889052601760248201527f43616e6e6f74206f66666572206f6e206f776e204e46540000000000000000006044820152606490fd5b90508781813d8311610d34575b610d198183611368565b81010312610d3057610d2a9061138a565b38610bb6565b8880fd5b503d610d0f565b85513d8b823e3d90fd5b815162461bcd60e51b8152602081850152601260248201527124b73b30b634b21032bc3834b930ba34b7b760711b6044820152606490fd5b815162461bcd60e51b8152602081850152601c60248201527f4f66666572206d7573742062652067726561746572207468616e2030000000006044820152606490fd5b83903461011c57602036600319011261011c57610dfb6103e86107f383358094610df560018060a01b036006541633146117ef565b5461182b565b60055580f35b50503461011c578160031936011261011c5760209060ff6001541690519015158152f35b905034610327578260031936011261032757610e4c60018060a01b036006541633146117ef565b6001549060ff821615610e8e575060ff1916600155513381527f5db9ee0a495bf2e6ff9c91a7834c1ba4fdd244a5e8aa4e537bd38aeae4b073aa90602090a180f35b8251638dfc202b60e01b8152fd5b83833461011c57610eac366112aa565b909192610eb761145d565b610ebf6113dc565b80516331a9108f60e11b81528681018490526001600160a01b03858116936020928381602481895afa908115610d3b5789916110f0575b5090610f09610f2092843391161461139e565b85895260038452848920878a5284528489206112d4565b506003810180549060ff8216156110ba5760028301544210156110875760ff19918216905585895260028452848920878a5284528489208a015460ff16611067575b506001810196610f7488548883611505565b939d87879492945416908b3b15610a03578a51632142170760e11b8152339181019182526001600160a01b03929092166020820152604081018d90528e90829081900360600181838f5af1801561105b57611016575b5090610fff949392917f47b97c7cbd7d3ec9d5cc511f0b698f7fe0b891454fc558e49eb656c216b445979a9b9c9d9e336115f6565b541695549082519687528601523394a46001815580f35b907f47b97c7cbd7d3ec9d5cc511f0b698f7fe0b891454fc558e49eb656c216b445979a9b9c9d61104c610fff9796959493611306565b9d9c9b9a509091929394610fca565b8e8b51903d90823e3d90fd5b85895260028452848920878a52845289858a200190815416905589610f62565b855162461bcd60e51b8152808c01869052600d60248201526c13d999995c88195e1c1a5c9959609a1b6044820152606490fd5b855162461bcd60e51b8152808c01869052601060248201526f4f66666572206e6f742061637469766560801b6044820152606490fd5b90508381813d8311611127575b6111078183611368565b81010312610d305790610f0961111f610f209361138a565b919250610ef6565b503d6110fd565b9190503461032757806003193601126103275761114961128f565b6024356001600160a01b03818116949092918590036111cf578260065416330361118c57501683526007602052822080546001600160a01b031916909117905580f35b606490602085519162461bcd60e51b8352820152601a60248201527f4f6e6c7920706c6174666f726d2063616e2072656769737465720000000000006044820152fd5b8580fd5b50503461011c578160031936011261011c576020906005549051908152f35b90503461032757826003193601126103275760209250549051908152f35b84843461011c578060031936011261011c5760c0936001600160a01b039282908461123961128f565b168152600260205281812060243582526020522091838354169360018401541690600284015491600560ff60038701549587015416950154958752602087015285015260608401521515608083015260a0820152f35b600435906001600160a01b03821682036112a557565b600080fd5b60609060031901126112a5576004356001600160a01b03811681036112a557906024359060443590565b80548210156112f05760005260206000209060021b0190600090565b634e487b7160e01b600052603260045260246000fd5b67ffffffffffffffff811161131a57604052565b634e487b7160e01b600052604160045260246000fd5b6080810190811067ffffffffffffffff82111761131a57604052565b60c0810190811067ffffffffffffffff82111761131a57604052565b90601f8019910116810190811067ffffffffffffffff82111761131a57604052565b51906001600160a01b03821682036112a557565b156113a557565b60405162461bcd60e51b815260206004820152600f60248201526e2737ba103a37b5b2b71037bbb732b960891b6044820152606490fd5b60ff600154166113e857565b60405163d93c066560e01b8152600490fd5b9190820391821161140757565b634e487b7160e01b600052601160045260246000fd5b3d15611458573d9067ffffffffffffffff821161131a576040519161144c601f8201601f191660200184611368565b82523d6000602084013e565b606090565b60026000541461146e576002600055565b604051633ee5aeb560e01b8152600490fd5b1561148757565b60405162461bcd60e51b815260206004820152600a602482015269139bdd081b1a5cdd195960b21b6044820152606490fd5b156114c057565b60405162461bcd60e51b815260206004820152600a6024820152692737ba1039b2b63632b960b11b6044820152606490fd5b8181029291811591840414171561140757565b92916127109260408461151a600454856114f2565b0494611528600554856114f2565b0493604482518098819363152a902d60e11b8352600483015286602483015260018060a01b03165afa8060009687926115a7575b50938596819695156000146115915750505061158a6000926115858661158560009788946113fa565b6113fa565b9493929190565b61158a92949161158561158592969788946113fa565b9091506040813d82116115ee575b816115c260409383611368565b810103126115ea57859650938460206115dc83989761138a565b91015192915096959461155c565b8680fd5b3d91506115b5565b959192909560008080809981945af161160d61141d565b50156117b257828693611744575b5080151580611724575b6116a7575b50505080151580611695575b61163f57505050565b8280929181925af161164f61141d565b501561165757565b60405162461bcd60e51b8152602060048201526016602482015275149bde585b1d1e481c185e5b595b9d0819985a5b195960521b6044820152606490fd5b506001600160a01b0382161515611636565b6001600160a01b039182168352600760205260408320548392839283929091165af16116d161141d565b50156116df5782388061162a565b60405162461bcd60e51b815260206004820152601860248201527f4167656e7420666565207061796d656e74206661696c656400000000000000006044820152606490fd5b506001600160a01b03828116845260076020526040842054161515611625565b92808080939560018060a01b03600654165af161175f61141d565b501561176d5784913861161b565b60405162461bcd60e51b815260206004820152601b60248201527f506c6174666f726d20666565207061796d656e74206661696c656400000000006044820152606490fd5b60405162461bcd60e51b815260206004820152601560248201527414d95b1b195c881c185e5b595b9d0819985a5b1959605a1b6044820152606490fd5b156117f657565b60405162461bcd60e51b815260206004820152600d60248201526c4f6e6c7920706c6174666f726d60981b6044820152606490fd5b9190820180921161140757565b1561183f57565b60405162461bcd60e51b81526020600482015260136024820152720a8dee8c2d840cccacae640e8dede40d0d2ced606b1b6044820152606490fdfea2646970667358221220d644353d83fa591b275d497392c534e893db7b2de3305159fd296e49d93df57c64736f6c63430008140033","opcodes":"PUSH1 0x80 CALLVALUE PUSH2 0x144 JUMPI PUSH1 0x1F PUSH2 0x1A10 CODESIZE DUP2 SWAP1 SUB SWAP2 DUP3 ADD PUSH1 0x1F NOT AND DUP4 ADD SWAP2 PUSH1 0x1 PUSH1 0x1 PUSH1 0x40 SHL SUB DUP4 GT DUP5 DUP5 LT OR PUSH2 0x149 JUMPI DUP1 DUP5 SWAP3 PUSH1 0x60 SWAP5 PUSH1 0x40 MSTORE DUP4 CODECOPY DUP2 ADD SUB SLT PUSH2 0x144 JUMPI DUP1 MLOAD PUSH1 0x1 PUSH1 0x1 PUSH1 0xA0 SHL SUB DUP2 AND SWAP2 SWAP1 DUP3 SWAP1 SUB PUSH2 0x144 JUMPI PUSH1 0x40 PUSH1 0x20 DUP3 ADD MLOAD SWAP2 ADD MLOAD SWAP2 PUSH1 0x1 PUSH1 0x0 SSTORE DUP1 ISZERO PUSH2 0xFF JUMPI DUP3 DUP3 ADD DUP1 DUP4 GT PUSH2 0xE9 JUMPI PUSH2 0x3E8 LT PUSH2 0xA4 JUMPI PUSH1 0x6 DUP1 SLOAD PUSH1 0x1 PUSH1 0x1 PUSH1 0xA0 SHL SUB NOT AND SWAP2 SWAP1 SWAP2 OR SWAP1 SSTORE PUSH1 0x4 SSTORE PUSH1 0x5 SSTORE PUSH1 0x40 MLOAD PUSH2 0x18B0 SWAP1 DUP2 PUSH2 0x160 DUP3 CODECOPY RETURN JUMPDEST PUSH1 0x40 MLOAD PUSH3 0x461BCD PUSH1 0xE5 SHL DUP2 MSTORE PUSH1 0x20 PUSH1 0x4 DUP3 ADD MSTORE PUSH1 0x13 PUSH1 0x24 DUP3 ADD MSTORE PUSH32 0x546F74616C206665657320746F6F206869676800000000000000000000000000 PUSH1 0x44 DUP3 ADD MSTORE PUSH1 0x64 SWAP1 REVERT JUMPDEST PUSH4 0x4E487B71 PUSH1 0xE0 SHL PUSH1 0x0 MSTORE PUSH1 0x11 PUSH1 0x4 MSTORE PUSH1 0x24 PUSH1 0x0 REVERT JUMPDEST PUSH1 0x40 MLOAD PUSH3 0x461BCD PUSH1 0xE5 SHL DUP2 MSTORE PUSH1 0x20 PUSH1 0x4 DUP3 ADD MSTORE PUSH1 0x17 PUSH1 0x24 DUP3 ADD MSTORE PUSH32 0x496E76616C696420706C6174666F726D2077616C6C6574000000000000000000 PUSH1 0x44 DUP3 ADD MSTORE PUSH1 0x64 SWAP1 REVERT JUMPDEST PUSH1 0x0 DUP1 REVERT JUMPDEST PUSH4 0x4E487B71 PUSH1 0xE0 SHL PUSH1 0x0 MSTORE PUSH1 0x41 PUSH1 0x4 MSTORE PUSH1 0x24 PUSH1 0x0 REVERT INVALID PUSH1 0x80 PUSH1 0x40 DUP2 DUP2 MSTORE PUSH1 0x4 SWAP2 DUP3 CALLDATASIZE LT ISZERO PUSH2 0x16 JUMPI PUSH1 0x0 DUP1 REVERT JUMPDEST PUSH1 0x0 SWAP3 DUP4 CALLDATALOAD PUSH1 0xE0 SHR SWAP2 DUP3 PUSH3 0x7DF30 EQ PUSH2 0x1210 JUMPI POP DUP2 PUSH4 0x26232A2E EQ PUSH2 0x11F2 JUMPI DUP2 PUSH4 0x34A4CB8F EQ PUSH2 0x11D3 JUMPI DUP2 PUSH4 0x3A2D126D EQ PUSH2 0x112E JUMPI DUP2 PUSH4 0x3C6FC817 EQ PUSH2 0xE9C JUMPI DUP2 PUSH4 0x3F4BA83A EQ PUSH2 0xE25 JUMPI DUP2 PUSH4 0x5C975ABB EQ PUSH2 0xE01 JUMPI DUP2 PUSH4 0x6097FF90 EQ PUSH2 0xDC0 JUMPI DUP2 PUSH4 0x7DE3BD07 EQ PUSH2 0xB5E JUMPI DUP2 PUSH4 0x82580E90 EQ PUSH2 0xB23 JUMPI DUP2 PUSH4 0x8456CB59 EQ PUSH2 0xABC JUMPI DUP2 PUSH4 0xA82BA76F EQ PUSH2 0x7FE JUMPI DUP2 PUSH4 0xAA0B5988 EQ PUSH2 0x7B6 JUMPI DUP2 PUSH4 0xAD05F1B4 EQ PUSH2 0x488 JUMPI DUP2 PUSH4 0xB2DDEE06 EQ PUSH2 0x3A6 JUMPI DUP2 PUSH4 0xE3B43677 EQ PUSH2 0x32B JUMPI DUP2 PUSH4 0xE57D6FB7 EQ PUSH2 0x263 JUMPI DUP2 PUSH4 0xEA98A950 EQ PUSH2 0x120 JUMPI POP PUSH4 0xFA2AF9DA EQ PUSH2 0xF5 JUMPI PUSH1 0x0 DUP1 REVERT JUMPDEST CALLVALUE PUSH2 0x11C JUMPI DUP2 PUSH1 0x3 NOT CALLDATASIZE ADD SLT PUSH2 0x11C JUMPI PUSH1 0x6 SLOAD SWAP1 MLOAD PUSH1 0x1 PUSH1 0x1 PUSH1 0xA0 SHL SUB SWAP1 SWAP2 AND DUP2 MSTORE PUSH1 0x20 SWAP1 RETURN JUMPDEST POP DUP1 REVERT JUMPDEST DUP4 SWAP2 POP CALLVALUE PUSH2 0x11C JUMPI DUP3 PUSH1 0x3 NOT CALLDATASIZE ADD SLT PUSH2 0x11C JUMPI PUSH1 0x1 PUSH1 0x1 PUSH1 0xA0 SHL SUB SWAP2 DUP3 PUSH2 0x145 PUSH2 0x128F JUMP JUMPDEST AND DUP2 MSTORE PUSH1 0x3 SWAP1 PUSH1 0x20 SWAP1 DUP3 DUP3 MSTORE DUP6 DUP2 KECCAK256 PUSH1 0x24 CALLDATALOAD DUP3 MSTORE DUP3 MSTORE DUP6 DUP2 KECCAK256 SWAP4 DUP5 SLOAD SWAP1 PUSH8 0xFFFFFFFFFFFFFFFF DUP3 GT PUSH2 0x250 JUMPI DUP8 SWAP5 SWAP4 SWAP3 SWAP5 MLOAD SWAP4 PUSH2 0x187 DUP5 DUP5 PUSH1 0x5 SHL ADD DUP7 PUSH2 0x1368 JUMP JUMPDEST DUP3 DUP6 MSTORE DUP4 DUP6 ADD SWAP1 DUP2 SWAP8 DUP8 MSTORE DUP5 DUP8 KECCAK256 SWAP1 DUP8 SWAP3 JUMPDEST DUP11 DUP13 DUP8 DUP7 LT PUSH2 0x204 JUMPI SWAP7 POP POP POP POP POP POP POP MLOAD SWAP5 DUP2 DUP7 ADD SWAP3 DUP3 DUP8 MSTORE MLOAD DUP1 SWAP4 MSTORE DUP7 DUP7 ADD SWAP5 SWAP4 SWAP1 JUMPDEST DUP4 DUP3 LT PUSH2 0x1CB JUMPI DUP7 DUP7 SUB DUP8 RETURN JUMPDEST DUP5 MLOAD DUP1 MLOAD DUP3 AND DUP8 MSTORE DUP1 DUP5 ADD MLOAD DUP8 DUP6 ADD MSTORE DUP9 DUP2 ADD MLOAD DUP10 DUP9 ADD MSTORE PUSH1 0x60 SWAP1 DUP2 ADD MLOAD ISZERO ISZERO SWAP1 DUP8 ADD MSTORE PUSH1 0x80 SWAP1 SWAP6 ADD SWAP5 SWAP4 DUP3 ADD SWAP4 PUSH1 0x1 SWAP1 SWAP2 ADD SWAP1 PUSH2 0x1BE JUMP JUMPDEST SWAP8 PUSH1 0x1 SWAP3 DUP8 SWAP3 DUP11 DUP4 SWAP13 SWAP14 SWAP12 MLOAD SWAP2 PUSH2 0x21A DUP4 PUSH2 0x1330 JUMP JUMPDEST DUP9 SLOAD AND DUP3 MSTORE DUP6 DUP9 ADD SLOAD DUP5 DUP4 ADD MSTORE PUSH1 0x2 DUP9 ADD SLOAD SWAP1 DUP3 ADD MSTORE PUSH1 0xFF DUP7 DUP9 ADD SLOAD AND ISZERO ISZERO PUSH1 0x60 DUP3 ADD MSTORE DUP2 MSTORE ADD SWAP4 ADD SWAP4 ADD SWAP3 SWAP2 SWAP8 SWAP7 SWAP6 SWAP8 PUSH2 0x199 JUMP JUMPDEST PUSH4 0x4E487B71 PUSH1 0xE0 SHL DUP4 MSTORE PUSH1 0x41 SWAP1 MSTORE PUSH1 0x24 DUP3 REVERT JUMPDEST SWAP1 POP CALLVALUE PUSH2 0x327 JUMPI PUSH2 0x273 CALLDATASIZE PUSH2 0x12AA JUMP JUMPDEST SWAP1 SWAP4 SWAP2 PUSH1 0x1 DUP1 PUSH1 0xA0 SHL SUB DUP1 SWAP2 AND SWAP4 DUP5 DUP8 MSTORE PUSH1 0x2 PUSH1 0x20 MSTORE DUP4 DUP8 KECCAK256 DUP7 DUP9 MSTORE PUSH1 0x20 MSTORE PUSH2 0x2B2 DUP5 DUP9 KECCAK256 SWAP3 PUSH2 0x2A8 PUSH1 0xFF DUP5 DUP7 ADD SLOAD AND PUSH2 0x1480 JUMP JUMPDEST DUP4 SLOAD AND CALLER EQ PUSH2 0x14B9 JUMP JUMPDEST DUP3 ISZERO PUSH2 0x2F4 JUMPI POP SWAP1 PUSH1 0x3 PUSH32 0x40A2E1011BC4B63FE019ABC98CE43B9AE4A22F2072B84F3D14941DC1675979C2 SWAP4 SWAP3 ADD SWAP1 DUP1 DUP3 SLOAD SWAP3 SSTORE DUP3 MLOAD SWAP2 DUP3 MSTORE PUSH1 0x20 DUP3 ADD MSTORE LOG3 DUP1 RETURN JUMPDEST PUSH1 0x64 SWAP1 PUSH1 0x20 DUP6 MLOAD SWAP2 PUSH3 0x461BCD PUSH1 0xE5 SHL DUP4 MSTORE DUP3 ADD MSTORE PUSH1 0xD PUSH1 0x24 DUP3 ADD MSTORE PUSH13 0x496E76616C6964207072696365 PUSH1 0x98 SHL PUSH1 0x44 DUP3 ADD MSTORE REVERT JUMPDEST DUP3 DUP1 REVERT JUMPDEST DUP3 DUP5 CALLVALUE PUSH2 0x3A3 JUMPI PUSH2 0x33B CALLDATASIZE PUSH2 0x12AA JUMP JUMPDEST SWAP4 SWAP2 SWAP3 SWAP1 PUSH1 0x1 DUP1 PUSH1 0xA0 SHL SUB DUP1 SWAP5 AND DUP3 MSTORE PUSH1 0x3 PUSH1 0x20 MSTORE DUP3 DUP3 KECCAK256 SWAP1 DUP3 MSTORE PUSH1 0x20 MSTORE DUP2 DUP2 KECCAK256 SWAP1 DUP2 SLOAD DUP6 LT ISZERO PUSH2 0x3A3 JUMPI POP PUSH1 0x80 SWAP4 PUSH2 0x373 SWAP2 PUSH2 0x12D4 JUMP JUMPDEST POP SWAP2 DUP3 SLOAD AND SWAP2 PUSH1 0x1 DUP2 ADD SLOAD SWAP2 PUSH1 0xFF PUSH1 0x3 PUSH1 0x2 DUP5 ADD SLOAD SWAP4 ADD SLOAD AND SWAP3 DUP2 MLOAD SWAP5 DUP6 MSTORE PUSH1 0x20 DUP6 ADD MSTORE DUP4 ADD MSTORE ISZERO ISZERO PUSH1 0x60 DUP3 ADD MSTORE RETURN JUMPDEST DUP1 REVERT JUMPDEST SWAP2 SWAP1 POP CALLVALUE PUSH2 0x327 JUMPI DUP1 PUSH1 0x3 NOT CALLDATASIZE ADD SLT PUSH2 0x327 JUMPI PUSH2 0x3C1 PUSH2 0x128F JUMP JUMPDEST SWAP2 PUSH1 0x24 CALLDATALOAD SWAP2 PUSH2 0x443 PUSH1 0x1 DUP1 PUSH1 0xA0 SHL SUB DUP1 SWAP6 AND SWAP5 DUP6 DUP8 MSTORE PUSH1 0x2 PUSH1 0x20 MSTORE DUP3 DUP8 KECCAK256 DUP6 DUP9 MSTORE PUSH1 0x20 MSTORE DUP3 DUP8 KECCAK256 PUSH2 0x43A DUP5 MLOAD SWAP2 PUSH2 0x3F7 DUP4 PUSH2 0x134C JUMP JUMPDEST DUP4 DUP2 SLOAD AND DUP4 MSTORE DUP4 PUSH1 0x1 DUP3 ADD SLOAD AND PUSH1 0x20 DUP5 ADD MSTORE PUSH1 0x2 DUP2 ADD SLOAD DUP7 DUP5 ADD MSTORE PUSH1 0x3 DUP2 ADD SLOAD PUSH1 0x60 DUP5 ADD MSTORE PUSH1 0x5 PUSH1 0xFF DUP9 DUP4 ADD SLOAD AND ISZERO ISZERO SWAP2 DUP3 PUSH1 0x80 DUP7 ADD MSTORE ADD SLOAD PUSH1 0xA0 DUP5 ADD MSTORE PUSH2 0x1480 JUMP JUMPDEST MLOAD AND CALLER EQ PUSH2 0x14B9 JUMP JUMPDEST DUP4 DUP6 MSTORE PUSH1 0x2 PUSH1 0x20 MSTORE DUP1 DUP6 KECCAK256 DUP4 DUP7 MSTORE PUSH1 0x20 MSTORE DUP5 KECCAK256 ADD PUSH1 0xFF NOT DUP2 SLOAD AND SWAP1 SSTORE CALLER SWAP2 PUSH32 0x8526CB6D400B8A551983C99E6D6FB1775B7A0DEEB5D1E39D3EE65BC59E5EAC27 DUP5 DUP1 LOG4 DUP1 RETURN JUMPDEST SWAP2 SWAP1 POP CALLVALUE PUSH2 0x327 JUMPI PUSH2 0x499 CALLDATASIZE PUSH2 0x12AA JUMP JUMPDEST SWAP4 SWAP2 PUSH2 0x4A6 SWAP4 SWAP2 SWAP4 PUSH2 0x13DC JUMP JUMPDEST DUP2 MLOAD PUSH4 0x31A9108F PUSH1 0xE1 SHL DUP2 MSTORE DUP1 DUP5 ADD DUP6 SWAP1 MSTORE PUSH1 0x1 PUSH1 0x1 PUSH1 0xA0 SHL SUB SWAP2 DUP3 AND SWAP4 PUSH1 0x20 SWAP3 SWAP1 SWAP2 PUSH1 0x24 SWAP1 DUP5 DUP2 DUP4 DUP2 DUP11 GAS STATICCALL DUP1 ISZERO PUSH2 0x741 JUMPI DUP11 SWAP1 PUSH2 0x780 JUMPI JUMPDEST PUSH2 0x4EE SWAP2 POP DUP4 AND CALLER EQ PUSH2 0x139E JUMP JUMPDEST DUP5 MLOAD PUSH4 0x20604BF PUSH1 0xE2 SHL DUP2 MSTORE DUP4 DUP2 ADD DUP9 SWAP1 MSTORE DUP5 DUP2 DUP4 DUP2 DUP11 GAS STATICCALL SWAP1 DUP2 ISZERO PUSH2 0x741 JUMPI DUP11 SWAP2 PUSH2 0x74B JUMPI JUMPDEST POP DUP3 AND ADDRESS EQ DUP1 ISZERO PUSH2 0x6D4 JUMPI JUMPDEST ISZERO PUSH2 0x693 JUMPI DUP8 ISZERO PUSH2 0x652 JUMPI DUP6 DUP10 MSTORE PUSH1 0x2 DUP5 MSTORE DUP5 DUP10 KECCAK256 DUP8 DUP11 MSTORE DUP5 MSTORE PUSH1 0xFF DUP4 DUP7 DUP12 KECCAK256 ADD SLOAD AND PUSH2 0x620 JUMPI POP SWAP3 PUSH1 0x5 DUP6 PUSH2 0x60C DUP6 SWAP5 DUP12 DUP12 DUP7 SWAP9 DUP13 DUP12 PUSH32 0x902E543CFA5843DD67AD404742FF059A71D0A7349E01F2BF410B6F20C6298620 SWAP13 DUP11 MLOAD SWAP11 DUP12 SWAP7 PUSH2 0x588 DUP9 PUSH2 0x134C JUMP JUMPDEST CALLER DUP9 MSTORE DUP6 DUP9 ADD SWAP5 DUP12 DUP7 MSTORE DUP3 DUP10 ADD SWAP7 DUP2 DUP9 MSTORE PUSH1 0x60 DUP11 ADD SWAP9 DUP10 MSTORE PUSH1 0xA0 PUSH1 0x80 DUP12 ADD SWAP11 PUSH1 0x1 DUP13 MSTORE ADD SWAP13 DUP14 TIMESTAMP SWAP1 MSTORE DUP4 MSTORE PUSH1 0x2 DUP2 MSTORE DUP4 DUP4 KECCAK256 SWAP2 DUP4 MSTORE MSTORE KECCAK256 SWAP11 MLOAD AND SWAP1 PUSH12 0xFFFFFFFFFFFFFFFFFFFFFFFF PUSH1 0xA0 SHL SWAP2 DUP3 DUP13 SLOAD AND OR DUP12 SSTORE PUSH1 0x1 DUP12 ADD SWAP3 MLOAD AND SWAP1 DUP3 SLOAD AND OR SWAP1 SSTORE MLOAD PUSH1 0x2 DUP9 ADD SSTORE MLOAD PUSH1 0x3 DUP8 ADD SSTORE MLOAD ISZERO ISZERO SWAP1 DUP6 ADD SWAP1 PUSH1 0xFF DUP1 NOT DUP4 SLOAD AND SWAP2 ISZERO ISZERO AND OR SWAP1 SSTORE JUMP JUMPDEST MLOAD SWAP2 ADD SSTORE DUP2 MLOAD SWAP6 DUP7 MSTORE TIMESTAMP SWAP1 DUP7 ADD MSTORE CALLER SWAP5 LOG4 DUP1 RETURN JUMPDEST PUSH1 0xE SWAP2 POP PUSH1 0x64 SWAP4 DUP6 MLOAD SWAP4 PUSH3 0x461BCD PUSH1 0xE5 SHL DUP6 MSTORE DUP5 ADD MSTORE DUP3 ADD MSTORE PUSH14 0x105B1C9958591E481B1A5CDD1959 PUSH1 0x92 SHL PUSH1 0x44 DUP3 ADD MSTORE REVERT JUMPDEST PUSH1 0x1C SWAP2 POP PUSH1 0x64 SWAP4 DUP6 MLOAD SWAP4 PUSH3 0x461BCD PUSH1 0xE5 SHL DUP6 MSTORE DUP5 ADD MSTORE DUP3 ADD MSTORE PUSH32 0x5072696365206D7573742062652067726561746572207468616E203000000000 PUSH1 0x44 DUP3 ADD MSTORE REVERT JUMPDEST PUSH1 0x18 SWAP2 POP PUSH1 0x64 SWAP4 DUP6 MLOAD SWAP4 PUSH3 0x461BCD PUSH1 0xE5 SHL DUP6 MSTORE DUP5 ADD MSTORE DUP3 ADD MSTORE PUSH32 0x4D61726B6574706C616365206E6F7420617070726F7665640000000000000000 PUSH1 0x44 DUP3 ADD MSTORE REVERT JUMPDEST POP DUP5 MLOAD PUSH4 0xE985E9C5 PUSH1 0xE0 SHL DUP2 MSTORE CALLER DUP5 DUP3 ADD MSTORE ADDRESS DUP3 DUP3 ADD MSTORE DUP5 DUP2 PUSH1 0x44 DUP2 DUP11 GAS STATICCALL SWAP1 DUP2 ISZERO PUSH2 0x741 JUMPI DUP11 SWAP2 PUSH2 0x707 JUMPI JUMPDEST POP PUSH2 0x521 JUMP JUMPDEST SWAP1 POP DUP5 DUP2 DUP2 RETURNDATASIZE DUP4 GT PUSH2 0x73A JUMPI JUMPDEST PUSH2 0x71E DUP2 DUP4 PUSH2 0x1368 JUMP JUMPDEST DUP2 ADD SUB SLT PUSH2 0x736 JUMPI MLOAD DUP1 ISZERO ISZERO DUP2 SUB PUSH2 0x736 JUMPI CODESIZE PUSH2 0x701 JUMP JUMPDEST DUP10 DUP1 REVERT JUMPDEST POP RETURNDATASIZE PUSH2 0x714 JUMP JUMPDEST DUP7 MLOAD RETURNDATASIZE DUP13 DUP3 RETURNDATACOPY RETURNDATASIZE SWAP1 REVERT JUMPDEST SWAP1 POP DUP5 DUP2 DUP2 RETURNDATASIZE DUP4 GT PUSH2 0x779 JUMPI JUMPDEST PUSH2 0x762 DUP2 DUP4 PUSH2 0x1368 JUMP JUMPDEST DUP2 ADD SUB SLT PUSH2 0x736 JUMPI PUSH2 0x773 SWAP1 PUSH2 0x138A JUMP JUMPDEST CODESIZE PUSH2 0x515 JUMP JUMPDEST POP RETURNDATASIZE PUSH2 0x758 JUMP JUMPDEST POP DUP5 DUP2 DUP2 RETURNDATASIZE DUP4 GT PUSH2 0x7AF JUMPI JUMPDEST PUSH2 0x796 DUP2 DUP4 PUSH2 0x1368 JUMP JUMPDEST DUP2 ADD SUB SLT PUSH2 0x736 JUMPI PUSH2 0x7AA PUSH2 0x4EE SWAP2 PUSH2 0x138A JUMP JUMPDEST PUSH2 0x4E0 JUMP JUMPDEST POP RETURNDATASIZE PUSH2 0x78C JUMP JUMPDEST DUP4 SWAP1 CALLVALUE PUSH2 0x11C JUMPI PUSH1 0x20 CALLDATASIZE PUSH1 0x3 NOT ADD SLT PUSH2 0x11C JUMPI DUP1 CALLDATALOAD SWAP1 PUSH2 0x7E1 PUSH1 0x1 DUP1 PUSH1 0xA0 SHL SUB PUSH1 0x6 SLOAD AND CALLER EQ PUSH2 0x17EF JUMP JUMPDEST PUSH2 0x7FA PUSH2 0x3E8 PUSH2 0x7F3 PUSH1 0x5 SLOAD DUP6 PUSH2 0x182B JUMP JUMPDEST GT ISZERO PUSH2 0x1838 JUMP JUMPDEST SSTORE DUP1 RETURN JUMPDEST SWAP2 DUP1 SWAP2 POP PUSH1 0x3 NOT CALLDATASIZE ADD SLT PUSH2 0x327 JUMPI PUSH2 0x814 PUSH2 0x128F JUMP JUMPDEST SWAP1 PUSH1 0x24 CALLDATALOAD SWAP2 PUSH2 0x821 PUSH2 0x145D JUMP JUMPDEST PUSH2 0x829 PUSH2 0x13DC JUMP JUMPDEST PUSH1 0x1 DUP1 PUSH1 0xA0 SHL SUB SWAP2 DUP3 DUP3 AND SWAP3 DUP4 DUP8 MSTORE PUSH1 0x20 SWAP3 PUSH1 0x2 DUP5 MSTORE DUP3 DUP9 KECCAK256 DUP7 DUP10 MSTORE DUP5 MSTORE DUP3 DUP9 KECCAK256 SWAP7 DUP4 MLOAD SWAP2 PUSH2 0x857 DUP4 PUSH2 0x134C JUMP JUMPDEST DUP4 DUP10 SLOAD AND DUP4 MSTORE DUP4 PUSH1 0x1 DUP11 ADD SLOAD AND DUP7 DUP5 ADD MSTORE PUSH1 0x2 DUP10 ADD SLOAD DUP6 DUP5 ADD MSTORE PUSH1 0x3 DUP10 ADD SLOAD SWAP9 PUSH1 0x60 DUP5 ADD SWAP10 DUP11 MSTORE PUSH1 0x5 PUSH1 0xFF DUP5 DUP4 ADD SLOAD AND ISZERO SWAP2 DUP3 ISZERO PUSH1 0x80 DUP8 ADD MSTORE ADD SLOAD PUSH1 0xA0 DUP6 ADD MSTORE PUSH2 0xA83 JUMPI DUP9 MLOAD CALLVALUE LT PUSH2 0xA49 JUMPI DUP4 DUP4 MLOAD AND CALLER EQ PUSH2 0xA11 JUMPI DUP10 SWAP1 DUP8 DUP3 MSTORE PUSH1 0x2 DUP8 MSTORE DUP6 DUP3 KECCAK256 DUP10 DUP4 MSTORE DUP8 MSTORE DUP3 DUP7 DUP4 KECCAK256 ADD PUSH1 0xFF NOT DUP2 SLOAD AND SWAP1 SSTORE PUSH2 0x8D7 DUP11 MLOAD DUP11 DUP4 PUSH2 0x1505 JUMP JUMPDEST SWAP4 SWAP6 DUP10 DUP10 SWAP5 SWAP3 SWAP5 MLOAD AND DUP14 EXTCODESIZE ISZERO PUSH2 0x11C JUMPI DUP2 DUP16 DUP16 DUP12 DUP16 PUSH2 0x92A SWAP6 DUP6 SWAP2 MLOAD SWAP7 DUP8 SWAP6 DUP7 SWAP5 DUP6 SWAP4 PUSH4 0x21421707 PUSH1 0xE1 SHL DUP6 MSTORE CALLER SWAP2 DUP6 ADD PUSH1 0x40 SWAP2 SWAP5 SWAP4 SWAP3 SWAP5 PUSH1 0x60 DUP3 ADD SWAP6 PUSH1 0x1 DUP1 PUSH1 0xA0 SHL SUB DUP1 SWAP3 AND DUP4 MSTORE AND PUSH1 0x20 DUP3 ADD MSTORE ADD MSTORE JUMP JUMPDEST SUB SWAP3 GAS CALL DUP1 ISZERO PUSH2 0xA07 JUMPI PUSH2 0x9EF JUMPI JUMPDEST POP POP PUSH2 0x948 SWAP6 DUP10 DUP10 MLOAD AND PUSH2 0x15F6 JUMP JUMPDEST DUP9 DUP9 MLOAD DUP1 CALLVALUE GT PUSH2 0x997 JUMPI JUMPDEST POP POP POP SWAP2 PUSH32 0x85D6AFF492354CBF7FDD7EFB2BD8BCE059037AEF73B968F95D32A417598CBFF9 SWAP4 SWAP2 PUSH1 0x60 SWAP4 MLOAD AND SWAP7 MLOAD DUP2 MLOAD SWAP3 CALLER DUP5 MSTORE DUP4 ADD MSTORE TIMESTAMP SWAP1 DUP3 ADD MSTORE LOG4 PUSH1 0x1 DUP2 SSTORE DUP1 RETURN JUMPDEST DUP2 DUP1 PUSH2 0x9A4 DUP2 SWAP4 CALLVALUE PUSH2 0x13FA JUMP JUMPDEST CALLER GAS CALL PUSH2 0x9AF PUSH2 0x141D JUMP JUMPDEST POP ISZERO PUSH2 0x9BC JUMPI DUP9 DUP2 PUSH2 0x953 JUMP JUMPDEST DUP4 MLOAD PUSH3 0x461BCD PUSH1 0xE5 SHL DUP2 MSTORE SWAP1 DUP2 ADD DUP6 SWAP1 MSTORE PUSH1 0xD PUSH1 0x24 DUP3 ADD MSTORE PUSH13 0x1499599D5B990819985A5B1959 PUSH1 0x9A SHL PUSH1 0x44 DUP3 ADD MSTORE PUSH1 0x64 SWAP1 REVERT JUMPDEST PUSH2 0x9F8 SWAP1 PUSH2 0x1306 JUMP JUMPDEST PUSH2 0xA03 JUMPI DUP15 CODESIZE PUSH2 0x939 JUMP JUMPDEST DUP15 DUP1 REVERT JUMPDEST DUP13 MLOAD RETURNDATASIZE DUP5 DUP3 RETURNDATACOPY RETURNDATASIZE SWAP1 REVERT JUMPDEST DUP5 MLOAD PUSH3 0x461BCD PUSH1 0xE5 SHL DUP2 MSTORE DUP1 DUP4 ADD DUP8 SWAP1 MSTORE PUSH1 0x12 PUSH1 0x24 DUP3 ADD MSTORE PUSH18 0x10D85B9B9BDD08189D5E481BDDDB88139195 PUSH1 0x72 SHL PUSH1 0x44 DUP3 ADD MSTORE PUSH1 0x64 SWAP1 REVERT JUMPDEST DUP5 MLOAD PUSH3 0x461BCD PUSH1 0xE5 SHL DUP2 MSTORE DUP1 DUP4 ADD DUP8 SWAP1 MSTORE PUSH1 0x14 PUSH1 0x24 DUP3 ADD MSTORE PUSH20 0x125B9CDD59999A58DA595B9D081C185E5B595B9D PUSH1 0x62 SHL PUSH1 0x44 DUP3 ADD MSTORE PUSH1 0x64 SWAP1 REVERT JUMPDEST DUP5 MLOAD PUSH3 0x461BCD PUSH1 0xE5 SHL DUP2 MSTORE DUP1 DUP4 ADD DUP8 SWAP1 MSTORE PUSH1 0x13 PUSH1 0x24 DUP3 ADD MSTORE PUSH19 0x4E6F74206C697374656420666F722073616C65 PUSH1 0x68 SHL PUSH1 0x44 DUP3 ADD MSTORE PUSH1 0x64 SWAP1 REVERT JUMPDEST POP POP CALLVALUE PUSH2 0x11C JUMPI DUP2 PUSH1 0x3 NOT CALLDATASIZE ADD SLT PUSH2 0x11C JUMPI PUSH1 0x20 PUSH32 0x62E78CEA01BEE320CD4E420270B5EA74000D11B0C9F74754EBDBFC544B05A258 SWAP2 PUSH2 0xB07 PUSH1 0x1 DUP1 PUSH1 0xA0 SHL SUB PUSH1 0x6 SLOAD AND CALLER EQ PUSH2 0x17EF JUMP JUMPDEST PUSH2 0xB0F PUSH2 0x13DC JUMP JUMPDEST PUSH1 0x1 PUSH1 0xFF NOT DUP2 SLOAD AND OR PUSH1 0x1 SSTORE MLOAD CALLER DUP2 MSTORE LOG1 DUP1 RETURN JUMPDEST POP POP CALLVALUE PUSH2 0x11C JUMPI PUSH1 0x20 CALLDATASIZE PUSH1 0x3 NOT ADD SLT PUSH2 0x11C JUMPI PUSH1 0x20 SWAP2 PUSH1 0x1 PUSH1 0x1 PUSH1 0xA0 SHL SUB SWAP1 DUP3 SWAP1 DUP3 PUSH2 0xB4D PUSH2 0x128F JUMP JUMPDEST AND DUP2 MSTORE PUSH1 0x7 DUP6 MSTORE KECCAK256 SLOAD AND SWAP1 MLOAD SWAP1 DUP2 MSTORE RETURN JUMPDEST SWAP2 SWAP1 POP PUSH2 0xB6A CALLDATASIZE PUSH2 0x12AA JUMP JUMPDEST SWAP4 SWAP2 SWAP4 SWAP3 SWAP1 SWAP3 CALLVALUE ISZERO PUSH2 0xD7D JUMPI TIMESTAMP DUP2 GT ISZERO PUSH2 0xD45 JUMPI DUP2 MLOAD PUSH4 0x31A9108F PUSH1 0xE1 SHL DUP2 MSTORE DUP1 DUP5 ADD DUP6 SWAP1 MSTORE PUSH1 0x20 SWAP6 PUSH1 0x1 PUSH1 0x1 PUSH1 0xA0 SHL SUB SWAP1 DUP2 AND SWAP5 SWAP2 DUP8 DUP2 PUSH1 0x24 DUP2 DUP10 GAS STATICCALL SWAP1 DUP2 ISZERO PUSH2 0xD3B JUMPI DUP10 SWAP2 PUSH2 0xD02 JUMPI JUMPDEST POP DUP2 AND CALLER EQ PUSH2 0xCBF JUMPI DUP5 DUP9 MSTORE PUSH1 0x3 DUP8 MSTORE DUP4 DUP9 KECCAK256 DUP7 DUP10 MSTORE DUP8 MSTORE DUP4 DUP9 KECCAK256 SWAP1 DUP5 MLOAD SWAP1 PUSH2 0xBDE DUP3 PUSH2 0x1330 JUMP JUMPDEST CALLER DUP3 MSTORE DUP9 DUP3 ADD SWAP1 CALLVALUE DUP3 MSTORE DUP7 DUP4 ADD SWAP3 DUP7 DUP5 MSTORE PUSH1 0x60 DUP2 ADD SWAP5 PUSH1 0x1 DUP7 MSTORE DUP1 SLOAD SWAP1 PUSH9 0x10000000000000000 DUP3 LT ISZERO PUSH2 0xCAC JUMPI SWAP1 PUSH2 0xC1C SWAP2 PUSH1 0x1 DUP3 ADD DUP2 SSTORE PUSH2 0x12D4 JUMP JUMPDEST SWAP7 SWAP1 SWAP7 PUSH2 0xC9A JUMPI POP SWAP3 PUSH1 0x3 SWAP3 PUSH2 0xC8B SWAP6 SWAP3 PUSH31 0xCE0A712E4E277AC7B34942865F0DE7A5629DFFE0539B70423AD5FF1ED6AB42 SWAP10 SWAP9 SWAP8 SWAP6 MLOAD AND PUSH12 0xFFFFFFFFFFFFFFFFFFFFFFFF PUSH1 0xA0 SHL DUP7 SLOAD AND OR DUP6 SSTORE MLOAD PUSH1 0x1 DUP6 ADD SSTORE MLOAD PUSH1 0x2 DUP5 ADD SSTORE MLOAD ISZERO ISZERO SWAP2 ADD SWAP1 PUSH1 0xFF DUP1 NOT DUP4 SLOAD AND SWAP2 ISZERO ISZERO AND OR SWAP1 SSTORE JUMP JUMPDEST DUP2 MLOAD SWAP6 CALLVALUE DUP8 MSTORE DUP7 ADD MSTORE CALLER SWAP5 LOG4 DUP1 RETURN JUMPDEST PUSH4 0x4E487B71 PUSH1 0xE0 SHL DUP14 MSTORE DUP13 SWAP1 MSTORE PUSH1 0x24 DUP13 REVERT JUMPDEST PUSH4 0x4E487B71 PUSH1 0xE0 SHL DUP15 MSTORE PUSH1 0x41 DUP9 MSTORE PUSH1 0x24 DUP15 REVERT JUMPDEST DUP4 MLOAD PUSH3 0x461BCD PUSH1 0xE5 SHL DUP2 MSTORE DUP1 DUP4 ADD DUP9 SWAP1 MSTORE PUSH1 0x17 PUSH1 0x24 DUP3 ADD MSTORE PUSH32 0x43616E6E6F74206F66666572206F6E206F776E204E4654000000000000000000 PUSH1 0x44 DUP3 ADD MSTORE PUSH1 0x64 SWAP1 REVERT JUMPDEST SWAP1 POP DUP8 DUP2 DUP2 RETURNDATASIZE DUP4 GT PUSH2 0xD34 JUMPI JUMPDEST PUSH2 0xD19 DUP2 DUP4 PUSH2 0x1368 JUMP JUMPDEST DUP2 ADD SUB SLT PUSH2 0xD30 JUMPI PUSH2 0xD2A SWAP1 PUSH2 0x138A JUMP JUMPDEST CODESIZE PUSH2 0xBB6 JUMP JUMPDEST DUP9 DUP1 REVERT JUMPDEST POP RETURNDATASIZE PUSH2 0xD0F JUMP JUMPDEST DUP6 MLOAD RETURNDATASIZE DUP12 DUP3 RETURNDATACOPY RETURNDATASIZE SWAP1 REVERT JUMPDEST DUP2 MLOAD PUSH3 0x461BCD PUSH1 0xE5 SHL DUP2 MSTORE PUSH1 0x20 DUP2 DUP6 ADD MSTORE PUSH1 0x12 PUSH1 0x24 DUP3 ADD MSTORE PUSH18 0x24B73B30B634B21032BC3834B930BA34B7B7 PUSH1 0x71 SHL PUSH1 0x44 DUP3 ADD MSTORE PUSH1 0x64 SWAP1 REVERT JUMPDEST DUP2 MLOAD PUSH3 0x461BCD PUSH1 0xE5 SHL DUP2 MSTORE PUSH1 0x20 DUP2 DUP6 ADD MSTORE PUSH1 0x1C PUSH1 0x24 DUP3 ADD MSTORE PUSH32 0x4F66666572206D7573742062652067726561746572207468616E203000000000 PUSH1 0x44 DUP3 ADD MSTORE PUSH1 0x64 SWAP1 REVERT JUMPDEST DUP4 SWAP1 CALLVALUE PUSH2 0x11C JUMPI PUSH1 0x20 CALLDATASIZE PUSH1 0x3 NOT ADD SLT PUSH2 0x11C JUMPI PUSH2 0xDFB PUSH2 0x3E8 PUSH2 0x7F3 DUP4 CALLDATALOAD DUP1 SWAP5 PUSH2 0xDF5 PUSH1 0x1 DUP1 PUSH1 0xA0 SHL SUB PUSH1 0x6 SLOAD AND CALLER EQ PUSH2 0x17EF JUMP JUMPDEST SLOAD PUSH2 0x182B JUMP JUMPDEST PUSH1 0x5 SSTORE DUP1 RETURN JUMPDEST POP POP CALLVALUE PUSH2 0x11C JUMPI DUP2 PUSH1 0x3 NOT CALLDATASIZE ADD SLT PUSH2 0x11C JUMPI PUSH1 0x20 SWAP1 PUSH1 0xFF PUSH1 0x1 SLOAD AND SWAP1 MLOAD SWAP1 ISZERO ISZERO DUP2 MSTORE RETURN JUMPDEST SWAP1 POP CALLVALUE PUSH2 0x327 JUMPI DUP3 PUSH1 0x3 NOT CALLDATASIZE ADD SLT PUSH2 0x327 JUMPI PUSH2 0xE4C PUSH1 0x1 DUP1 PUSH1 0xA0 SHL SUB PUSH1 0x6 SLOAD AND CALLER EQ PUSH2 0x17EF JUMP JUMPDEST PUSH1 0x1 SLOAD SWAP1 PUSH1 0xFF DUP3 AND ISZERO PUSH2 0xE8E JUMPI POP PUSH1 0xFF NOT AND PUSH1 0x1 SSTORE MLOAD CALLER DUP2 MSTORE PUSH32 0x5DB9EE0A495BF2E6FF9C91A7834C1BA4FDD244A5E8AA4E537BD38AEAE4B073AA SWAP1 PUSH1 0x20 SWAP1 LOG1 DUP1 RETURN JUMPDEST DUP3 MLOAD PUSH4 0x8DFC202B PUSH1 0xE0 SHL DUP2 MSTORE REVERT JUMPDEST DUP4 DUP4 CALLVALUE PUSH2 0x11C JUMPI PUSH2 0xEAC CALLDATASIZE PUSH2 0x12AA JUMP JUMPDEST SWAP1 SWAP2 SWAP3 PUSH2 0xEB7 PUSH2 0x145D JUMP JUMPDEST PUSH2 0xEBF PUSH2 0x13DC JUMP JUMPDEST DUP1 MLOAD PUSH4 0x31A9108F PUSH1 0xE1 SHL DUP2 MSTORE DUP7 DUP2 ADD DUP5 SWAP1 MSTORE PUSH1 0x1 PUSH1 0x1 PUSH1 0xA0 SHL SUB DUP6 DUP2 AND SWAP4 PUSH1 0x20 SWAP3 DUP4 DUP2 PUSH1 0x24 DUP2 DUP10 GAS STATICCALL SWAP1 DUP2 ISZERO PUSH2 0xD3B JUMPI DUP10 SWAP2 PUSH2 0x10F0 JUMPI JUMPDEST POP SWAP1 PUSH2 0xF09 PUSH2 0xF20 SWAP3 DUP5 CALLER SWAP2 AND EQ PUSH2 0x139E JUMP JUMPDEST DUP6 DUP10 MSTORE PUSH1 0x3 DUP5 MSTORE DUP5 DUP10 KECCAK256 DUP8 DUP11 MSTORE DUP5 MSTORE DUP5 DUP10 KECCAK256 PUSH2 0x12D4 JUMP JUMPDEST POP PUSH1 0x3 DUP2 ADD DUP1 SLOAD SWAP1 PUSH1 0xFF DUP3 AND ISZERO PUSH2 0x10BA JUMPI PUSH1 0x2 DUP4 ADD SLOAD TIMESTAMP LT ISZERO PUSH2 0x1087 JUMPI PUSH1 0xFF NOT SWAP2 DUP3 AND SWAP1 SSTORE DUP6 DUP10 MSTORE PUSH1 0x2 DUP5 MSTORE DUP5 DUP10 KECCAK256 DUP8 DUP11 MSTORE DUP5 MSTORE DUP5 DUP10 KECCAK256 DUP11 ADD SLOAD PUSH1 0xFF AND PUSH2 0x1067 JUMPI JUMPDEST POP PUSH1 0x1 DUP2 ADD SWAP7 PUSH2 0xF74 DUP9 SLOAD DUP9 DUP4 PUSH2 0x1505 JUMP JUMPDEST SWAP4 SWAP14 DUP8 DUP8 SWAP5 SWAP3 SWAP5 SLOAD AND SWAP1 DUP12 EXTCODESIZE ISZERO PUSH2 0xA03 JUMPI DUP11 MLOAD PUSH4 0x21421707 PUSH1 0xE1 SHL DUP2 MSTORE CALLER SWAP2 DUP2 ADD SWAP2 DUP3 MSTORE PUSH1 0x1 PUSH1 0x1 PUSH1 0xA0 SHL SUB SWAP3 SWAP1 SWAP3 AND PUSH1 0x20 DUP3 ADD MSTORE PUSH1 0x40 DUP2 ADD DUP14 SWAP1 MSTORE DUP15 SWAP1 DUP3 SWAP1 DUP2 SWAP1 SUB PUSH1 0x60 ADD DUP2 DUP4 DUP16 GAS CALL DUP1 ISZERO PUSH2 0x105B JUMPI PUSH2 0x1016 JUMPI JUMPDEST POP SWAP1 PUSH2 0xFFF SWAP5 SWAP4 SWAP3 SWAP2 PUSH32 0x47B97C7CBD7D3EC9D5CC511F0B698F7FE0B891454FC558E49EB656C216B44597 SWAP11 SWAP12 SWAP13 SWAP14 SWAP15 CALLER PUSH2 0x15F6 JUMP JUMPDEST SLOAD AND SWAP6 SLOAD SWAP1 DUP3 MLOAD SWAP7 DUP8 MSTORE DUP7 ADD MSTORE CALLER SWAP5 LOG4 PUSH1 0x1 DUP2 SSTORE DUP1 RETURN JUMPDEST SWAP1 PUSH32 0x47B97C7CBD7D3EC9D5CC511F0B698F7FE0B891454FC558E49EB656C216B44597 SWAP11 SWAP12 SWAP13 SWAP14 PUSH2 0x104C PUSH2 0xFFF SWAP8 SWAP7 SWAP6 SWAP5 SWAP4 PUSH2 0x1306 JUMP JUMPDEST SWAP14 SWAP13 SWAP12 SWAP11 POP SWAP1 SWAP2 SWAP3 SWAP4 SWAP5 PUSH2 0xFCA JUMP JUMPDEST DUP15 DUP12 MLOAD SWAP1 RETURNDATASIZE SWAP1 DUP3 RETURNDATACOPY RETURNDATASIZE SWAP1 REVERT JUMPDEST DUP6 DUP10 MSTORE PUSH1 0x2 DUP5 MSTORE DUP5 DUP10 KECCAK256 DUP8 DUP11 MSTORE DUP5 MSTORE DUP10 DUP6 DUP11 KECCAK256 ADD SWAP1 DUP2 SLOAD AND SWAP1 SSTORE DUP10 PUSH2 0xF62 JUMP JUMPDEST DUP6 MLOAD PUSH3 0x461BCD PUSH1 0xE5 SHL DUP2 MSTORE DUP1 DUP13 ADD DUP7 SWAP1 MSTORE PUSH1 0xD PUSH1 0x24 DUP3 ADD MSTORE PUSH13 0x13D999995C88195E1C1A5C9959 PUSH1 0x9A SHL PUSH1 0x44 DUP3 ADD MSTORE PUSH1 0x64 SWAP1 REVERT JUMPDEST DUP6 MLOAD PUSH3 0x461BCD PUSH1 0xE5 SHL DUP2 MSTORE DUP1 DUP13 ADD DUP7 SWAP1 MSTORE PUSH1 0x10 PUSH1 0x24 DUP3 ADD MSTORE PUSH16 0x4F66666572206E6F7420616374697665 PUSH1 0x80 SHL PUSH1 0x44 DUP3 ADD MSTORE PUSH1 0x64 SWAP1 REVERT JUMPDEST SWAP1 POP DUP4 DUP2 DUP2 RETURNDATASIZE DUP4 GT PUSH2 0x1127 JUMPI JUMPDEST PUSH2 0x1107 DUP2 DUP4 PUSH2 0x1368 JUMP JUMPDEST DUP2 ADD SUB SLT PUSH2 0xD30 JUMPI SWAP1 PUSH2 0xF09 PUSH2 0x111F PUSH2 0xF20 SWAP4 PUSH2 0x138A JUMP JUMPDEST SWAP2 SWAP3 POP PUSH2 0xEF6 JUMP JUMPDEST POP RETURNDATASIZE PUSH2 0x10FD JUMP JUMPDEST SWAP2 SWAP1 POP CALLVALUE PUSH2 0x327 JUMPI DUP1 PUSH1 0x3 NOT CALLDATASIZE ADD SLT PUSH2 0x327 JUMPI PUSH2 0x1149 PUSH2 0x128F JUMP JUMPDEST PUSH1 0x24 CALLDATALOAD PUSH1 0x1 PUSH1 0x1 PUSH1 0xA0 SHL SUB DUP2 DUP2 AND SWAP5 SWAP1 SWAP3 SWAP2 DUP6 SWAP1 SUB PUSH2 0x11CF JUMPI DUP3 PUSH1 0x6 SLOAD AND CALLER SUB PUSH2 0x118C JUMPI POP AND DUP4 MSTORE PUSH1 0x7 PUSH1 0x20 MSTORE DUP3 KECCAK256 DUP1 SLOAD PUSH1 0x1 PUSH1 0x1 PUSH1 0xA0 SHL SUB NOT AND SWAP1 SWAP2 OR SWAP1 SSTORE DUP1 RETURN JUMPDEST PUSH1 0x64 SWAP1 PUSH1 0x20 DUP6 MLOAD SWAP2 PUSH3 0x461BCD PUSH1 0xE5 SHL DUP4 MSTORE DUP3 ADD MSTORE PUSH1 0x1A PUSH1 0x24 DUP3 ADD MSTORE PUSH32 0x4F6E6C7920706C6174666F726D2063616E207265676973746572000000000000 PUSH1 0x44 DUP3 ADD MSTORE REVERT JUMPDEST DUP6 DUP1 REVERT JUMPDEST POP POP CALLVALUE PUSH2 0x11C JUMPI DUP2 PUSH1 0x3 NOT CALLDATASIZE ADD SLT PUSH2 0x11C JUMPI PUSH1 0x20 SWAP1 PUSH1 0x5 SLOAD SWAP1 MLOAD SWAP1 DUP2 MSTORE RETURN JUMPDEST SWAP1 POP CALLVALUE PUSH2 0x327 JUMPI DUP3 PUSH1 0x3 NOT CALLDATASIZE ADD SLT PUSH2 0x327 JUMPI PUSH1 0x20 SWAP3 POP SLOAD SWAP1 MLOAD SWAP1 DUP2 MSTORE RETURN JUMPDEST DUP5 DUP5 CALLVALUE PUSH2 0x11C JUMPI DUP1 PUSH1 0x3 NOT CALLDATASIZE ADD SLT PUSH2 0x11C JUMPI PUSH1 0xC0 SWAP4 PUSH1 0x1 PUSH1 0x1 PUSH1 0xA0 SHL SUB SWAP3 DUP3 SWAP1 DUP5 PUSH2 0x1239 PUSH2 0x128F JUMP JUMPDEST AND DUP2 MSTORE PUSH1 0x2 PUSH1 0x20 MSTORE DUP2 DUP2 KECCAK256 PUSH1 0x24 CALLDATALOAD DUP3 MSTORE PUSH1 0x20 MSTORE KECCAK256 SWAP2 DUP4 DUP4 SLOAD AND SWAP4 PUSH1 0x1 DUP5 ADD SLOAD AND SWAP1 PUSH1 0x2 DUP5 ADD SLOAD SWAP2 PUSH1 0x5 PUSH1 0xFF PUSH1 0x3 DUP8 ADD SLOAD SWAP6 DUP8 ADD SLOAD AND SWAP6 ADD SLOAD SWAP6 DUP8 MSTORE PUSH1 0x20 DUP8 ADD MSTORE DUP6 ADD MSTORE PUSH1 0x60 DUP5 ADD MSTORE ISZERO ISZERO PUSH1 0x80 DUP4 ADD MSTORE PUSH1 0xA0 DUP3 ADD MSTORE RETURN JUMPDEST PUSH1 0x4 CALLDATALOAD SWAP1 PUSH1 0x1 PUSH1 0x1 PUSH1 0xA0 SHL SUB DUP3 AND DUP3 SUB PUSH2 0x12A5 JUMPI JUMP JUMPDEST PUSH1 0x0 DUP1 REVERT JUMPDEST PUSH1 0x60 SWAP1 PUSH1 0x3 NOT ADD SLT PUSH2 0x12A5 JUMPI PUSH1 0x4 CALLDATALOAD PUSH1 0x1 PUSH1 0x1 PUSH1 0xA0 SHL SUB DUP2 AND DUP2 SUB PUSH2 0x12A5 JUMPI SWAP1 PUSH1 0x24 CALLDATALOAD SWAP1 PUSH1 0x44 CALLDATALOAD SWAP1 JUMP JUMPDEST DUP1 SLOAD DUP3 LT ISZERO PUSH2 0x12F0 JUMPI PUSH1 0x0 MSTORE PUSH1 0x20 PUSH1 0x0 KECCAK256 SWAP1 PUSH1 0x2 SHL ADD SWAP1 PUSH1 0x0 SWAP1 JUMP JUMPDEST PUSH4 0x4E487B71 PUSH1 0xE0 SHL PUSH1 0x0 MSTORE PUSH1 0x32 PUSH1 0x4 MSTORE PUSH1 0x24 PUSH1 0x0 REVERT JUMPDEST PUSH8 0xFFFFFFFFFFFFFFFF DUP2 GT PUSH2 0x131A JUMPI PUSH1 0x40 MSTORE JUMP JUMPDEST PUSH4 0x4E487B71 PUSH1 0xE0 SHL PUSH1 0x0 MSTORE PUSH1 0x41 PUSH1 0x4 MSTORE PUSH1 0x24 PUSH1 0x0 REVERT JUMPDEST PUSH1 0x80 DUP2 ADD SWAP1 DUP2 LT PUSH8 0xFFFFFFFFFFFFFFFF DUP3 GT OR PUSH2 0x131A JUMPI PUSH1 0x40 MSTORE JUMP JUMPDEST PUSH1 0xC0 DUP2 ADD SWAP1 DUP2 LT PUSH8 0xFFFFFFFFFFFFFFFF DUP3 GT OR PUSH2 0x131A JUMPI PUSH1 0x40 MSTORE JUMP JUMPDEST SWAP1 PUSH1 0x1F DUP1 NOT SWAP2 ADD AND DUP2 ADD SWAP1 DUP2 LT PUSH8 0xFFFFFFFFFFFFFFFF DUP3 GT OR PUSH2 0x131A JUMPI PUSH1 0x40 MSTORE JUMP JUMPDEST MLOAD SWAP1 PUSH1 0x1 PUSH1 0x1 PUSH1 0xA0 SHL SUB DUP3 AND DUP3 SUB PUSH2 0x12A5 JUMPI JUMP JUMPDEST ISZERO PUSH2 0x13A5 JUMPI JUMP JUMPDEST PUSH1 0x40 MLOAD PUSH3 0x461BCD PUSH1 0xE5 SHL DUP2 MSTORE PUSH1 0x20 PUSH1 0x4 DUP3 ADD MSTORE PUSH1 0xF PUSH1 0x24 DUP3 ADD MSTORE PUSH15 0x2737BA103A37B5B2B71037BBB732B9 PUSH1 0x89 SHL PUSH1 0x44 DUP3 ADD MSTORE PUSH1 0x64 SWAP1 REVERT JUMPDEST PUSH1 0xFF PUSH1 0x1 SLOAD AND PUSH2 0x13E8 JUMPI JUMP JUMPDEST PUSH1 0x40 MLOAD PUSH4 0xD93C0665 PUSH1 0xE0 SHL DUP2 MSTORE PUSH1 0x4 SWAP1 REVERT JUMPDEST SWAP2 SWAP1 DUP3 SUB SWAP2 DUP3 GT PUSH2 0x1407 JUMPI JUMP JUMPDEST PUSH4 0x4E487B71 PUSH1 0xE0 SHL PUSH1 0x0 MSTORE PUSH1 0x11 PUSH1 0x4 MSTORE PUSH1 0x24 PUSH1 0x0 REVERT JUMPDEST RETURNDATASIZE ISZERO PUSH2 0x1458 JUMPI RETURNDATASIZE SWAP1 PUSH8 0xFFFFFFFFFFFFFFFF DUP3 GT PUSH2 0x131A JUMPI PUSH1 0x40 MLOAD SWAP2 PUSH2 0x144C PUSH1 0x1F DUP3 ADD PUSH1 0x1F NOT AND PUSH1 0x20 ADD DUP5 PUSH2 0x1368 JUMP JUMPDEST DUP3 MSTORE RETURNDATASIZE PUSH1 0x0 PUSH1 0x20 DUP5 ADD RETURNDATACOPY JUMP JUMPDEST PUSH1 0x60 SWAP1 JUMP JUMPDEST PUSH1 0x2 PUSH1 0x0 SLOAD EQ PUSH2 0x146E JUMPI PUSH1 0x2 PUSH1 0x0 SSTORE JUMP JUMPDEST PUSH1 0x40 MLOAD PUSH4 0x3EE5AEB5 PUSH1 0xE0 SHL DUP2 MSTORE PUSH1 0x4 SWAP1 REVERT JUMPDEST ISZERO PUSH2 0x1487 JUMPI JUMP JUMPDEST PUSH1 0x40 MLOAD PUSH3 0x461BCD PUSH1 0xE5 SHL DUP2 MSTORE PUSH1 0x20 PUSH1 0x4 DUP3 ADD MSTORE PUSH1 0xA PUSH1 0x24 DUP3 ADD MSTORE PUSH10 0x139BDD081B1A5CDD1959 PUSH1 0xB2 SHL PUSH1 0x44 DUP3 ADD MSTORE PUSH1 0x64 SWAP1 REVERT JUMPDEST ISZERO PUSH2 0x14C0 JUMPI JUMP JUMPDEST PUSH1 0x40 MLOAD PUSH3 0x461BCD PUSH1 0xE5 SHL DUP2 MSTORE PUSH1 0x20 PUSH1 0x4 DUP3 ADD MSTORE PUSH1 0xA PUSH1 0x24 DUP3 ADD MSTORE PUSH10 0x2737BA1039B2B63632B9 PUSH1 0xB1 SHL PUSH1 0x44 DUP3 ADD MSTORE PUSH1 0x64 SWAP1 REVERT JUMPDEST DUP2 DUP2 MUL SWAP3 SWAP2 DUP2 ISZERO SWAP2 DUP5 DIV EQ OR ISZERO PUSH2 0x1407 JUMPI JUMP JUMPDEST SWAP3 SWAP2 PUSH2 0x2710 SWAP3 PUSH1 0x40 DUP5 PUSH2 0x151A PUSH1 0x4 SLOAD DUP6 PUSH2 0x14F2 JUMP JUMPDEST DIV SWAP5 PUSH2 0x1528 PUSH1 0x5 SLOAD DUP6 PUSH2 0x14F2 JUMP JUMPDEST DIV SWAP4 PUSH1 0x44 DUP3 MLOAD DUP1 SWAP9 DUP2 SWAP4 PUSH4 0x152A902D PUSH1 0xE1 SHL DUP4 MSTORE PUSH1 0x4 DUP4 ADD MSTORE DUP7 PUSH1 0x24 DUP4 ADD MSTORE PUSH1 0x1 DUP1 PUSH1 0xA0 SHL SUB AND GAS STATICCALL DUP1 PUSH1 0x0 SWAP7 DUP8 SWAP3 PUSH2 0x15A7 JUMPI JUMPDEST POP SWAP4 DUP6 SWAP7 DUP2 SWAP7 SWAP6 ISZERO PUSH1 0x0 EQ PUSH2 0x1591 JUMPI POP POP POP PUSH2 0x158A PUSH1 0x0 SWAP3 PUSH2 0x1585 DUP7 PUSH2 0x1585 PUSH1 0x0 SWAP8 DUP9 SWAP5 PUSH2 0x13FA JUMP JUMPDEST PUSH2 0x13FA JUMP JUMPDEST SWAP5 SWAP4 SWAP3 SWAP2 SWAP1 JUMP JUMPDEST PUSH2 0x158A SWAP3 SWAP5 SWAP2 PUSH2 0x1585 PUSH2 0x1585 SWAP3 SWAP7 SWAP8 DUP9 SWAP5 PUSH2 0x13FA JUMP JUMPDEST SWAP1 SWAP2 POP PUSH1 0x40 DUP2 RETURNDATASIZE DUP3 GT PUSH2 0x15EE JUMPI JUMPDEST DUP2 PUSH2 0x15C2 PUSH1 0x40 SWAP4 DUP4 PUSH2 0x1368 JUMP JUMPDEST DUP2 ADD SUB SLT PUSH2 0x15EA JUMPI DUP6 SWAP7 POP SWAP4 DUP5 PUSH1 0x20 PUSH2 0x15DC DUP4 SWAP9 SWAP8 PUSH2 0x138A JUMP JUMPDEST SWAP2 ADD MLOAD SWAP3 SWAP2 POP SWAP7 SWAP6 SWAP5 PUSH2 0x155C JUMP JUMPDEST DUP7 DUP1 REVERT JUMPDEST RETURNDATASIZE SWAP2 POP PUSH2 0x15B5 JUMP JUMPDEST SWAP6 SWAP2 SWAP3 SWAP1 SWAP6 PUSH1 0x0 DUP1 DUP1 DUP1 SWAP10 DUP2 SWAP5 GAS CALL PUSH2 0x160D PUSH2 0x141D JUMP JUMPDEST POP ISZERO PUSH2 0x17B2 JUMPI DUP3 DUP7 SWAP4 PUSH2 0x1744 JUMPI JUMPDEST POP DUP1 ISZERO ISZERO DUP1 PUSH2 0x1724 JUMPI JUMPDEST PUSH2 0x16A7 JUMPI JUMPDEST POP POP POP DUP1 ISZERO ISZERO DUP1 PUSH2 0x1695 JUMPI JUMPDEST PUSH2 0x163F JUMPI POP POP POP JUMP JUMPDEST DUP3 DUP1 SWAP3 SWAP2 DUP2 SWAP3 GAS CALL PUSH2 0x164F PUSH2 0x141D JUMP JUMPDEST POP ISZERO PUSH2 0x1657 JUMPI JUMP JUMPDEST PUSH1 0x40 MLOAD PUSH3 0x461BCD PUSH1 0xE5 SHL DUP2 MSTORE PUSH1 0x20 PUSH1 0x4 DUP3 ADD MSTORE PUSH1 0x16 PUSH1 0x24 DUP3 ADD MSTORE PUSH22 0x149BDE585B1D1E481C185E5B595B9D0819985A5B1959 PUSH1 0x52 SHL PUSH1 0x44 DUP3 ADD MSTORE PUSH1 0x64 SWAP1 REVERT JUMPDEST POP PUSH1 0x1 PUSH1 0x1 PUSH1 0xA0 SHL SUB DUP3 AND ISZERO ISZERO PUSH2 0x1636 JUMP JUMPDEST PUSH1 0x1 PUSH1 0x1 PUSH1 0xA0 SHL SUB SWAP2 DUP3 AND DUP4 MSTORE PUSH1 0x7 PUSH1 0x20 MSTORE PUSH1 0x40 DUP4 KECCAK256 SLOAD DUP4 SWAP3 DUP4 SWAP3 DUP4 SWAP3 SWAP1 SWAP2 AND GAS CALL PUSH2 0x16D1 PUSH2 0x141D JUMP JUMPDEST POP ISZERO PUSH2 0x16DF JUMPI DUP3 CODESIZE DUP1 PUSH2 0x162A JUMP JUMPDEST PUSH1 0x40 MLOAD PUSH3 0x461BCD PUSH1 0xE5 SHL DUP2 MSTORE PUSH1 0x20 PUSH1 0x4 DUP3 ADD MSTORE PUSH1 0x18 PUSH1 0x24 DUP3 ADD MSTORE PUSH32 0x4167656E7420666565207061796D656E74206661696C65640000000000000000 PUSH1 0x44 DUP3 ADD MSTORE PUSH1 0x64 SWAP1 REVERT JUMPDEST POP PUSH1 0x1 PUSH1 0x1 PUSH1 0xA0 SHL SUB DUP3 DUP2 AND DUP5 MSTORE PUSH1 0x7 PUSH1 0x20 MSTORE PUSH1 0x40 DUP5 KECCAK256 SLOAD AND ISZERO ISZERO PUSH2 0x1625 JUMP JUMPDEST SWAP3 DUP1 DUP1 DUP1 SWAP4 SWAP6 PUSH1 0x1 DUP1 PUSH1 0xA0 SHL SUB PUSH1 0x6 SLOAD AND GAS CALL PUSH2 0x175F PUSH2 0x141D JUMP JUMPDEST POP ISZERO PUSH2 0x176D JUMPI DUP5 SWAP2 CODESIZE PUSH2 0x161B JUMP JUMPDEST PUSH1 0x40 MLOAD PUSH3 0x461BCD PUSH1 0xE5 SHL DUP2 MSTORE PUSH1 0x20 PUSH1 0x4 DUP3 ADD MSTORE PUSH1 0x1B PUSH1 0x24 DUP3 ADD MSTORE PUSH32 0x506C6174666F726D20666565207061796D656E74206661696C65640000000000 PUSH1 0x44 DUP3 ADD MSTORE PUSH1 0x64 SWAP1 REVERT JUMPDEST PUSH1 0x40 MLOAD PUSH3 0x461BCD PUSH1 0xE5 SHL DUP2 MSTORE PUSH1 0x20 PUSH1 0x4 DUP3 ADD MSTORE PUSH1 0x15 PUSH1 0x24 DUP3 ADD MSTORE PUSH21 0x14D95B1B195C881C185E5B595B9D0819985A5B1959 PUSH1 0x5A SHL PUSH1 0x44 DUP3 ADD MSTORE PUSH1 0x64 SWAP1 REVERT JUMPDEST ISZERO PUSH2 0x17F6 JUMPI JUMP JUMPDEST PUSH1 0x40 MLOAD PUSH3 0x461BCD PUSH1 0xE5 SHL DUP2 MSTORE PUSH1 0x20 PUSH1 0x4 DUP3 ADD MSTORE PUSH1 0xD PUSH1 0x24 DUP3 ADD MSTORE PUSH13 0x4F6E6C7920706C6174666F726D PUSH1 0x98 SHL PUSH1 0x44 DUP3 ADD MSTORE PUSH1 0x64 SWAP1 REVERT JUMPDEST SWAP2 SWAP1 DUP3 ADD DUP1 SWAP3 GT PUSH2 0x1407 JUMPI JUMP JUMPDEST ISZERO PUSH2 0x183F JUMPI JUMP JUMPDEST PUSH1 0x40 MLOAD PUSH3 0x461BCD PUSH1 0xE5 SHL DUP2 MSTORE PUSH1 0x20 PUSH1 0x4 DUP3 ADD MSTORE PUSH1 0x13 PUSH1 0x24 DUP3 ADD MSTORE PUSH19 0xA8DEE8C2D840CCCACAE640E8DEDE40D0D2CED PUSH1 0x6B SHL PUSH1 0x44 DUP3 ADD MSTORE PUSH1 0x64 SWAP1 REVERT INVALID LOG2 PUSH5 0x6970667358 0x22 SLT KECCAK256 0xD6 PREVRANDAO CALLDATALOAD RETURNDATASIZE DUP4 STATICCALL MSIZE SHL 0x27 0x5D 0x49 PUSH20 0x92C534E893DB7B2DE3305159FD296E49D93DF57C PUSH5 0x736F6C6343 STOP ADDMOD EQ STOP CALLER "},"methodIdentifiers":{"acceptOffer(address,uint256,uint256)":"3c6fc817","agentFee()":"34a4cb8f","buyNFT(address,uint256)":"a82ba76f","cancelListing(address,uint256)":"b2ddee06","collectionAgents(address)":"82580e90","getOffers(address,uint256)":"ea98a950","listNFT(address,uint256,uint256)":"ad05f1b4","listings(address,uint256)":"0007df30","makeOffer(address,uint256,uint256)":"7de3bd07","offers(address,uint256,uint256)":"e3b43677","pause()":"8456cb59","paused()":"5c975abb","platformFee()":"26232a2e","platformWallet()":"fa2af9da","registerCollectionAgent(address,address)":"3a2d126d","unpause()":"3f4ba83a","updateAgentFee(uint256)":"6097ff90","updatePlatformFee(uint256)":"aa0b5988","updatePrice(address,uint256,uint256)":"e57d6fb7"}}}}}