{
  "_format": "hh-sol-artifact-1",
  "contractName": "AgentMarketplace",
  "sourceName": "contracts/AgentMarketplace.sol",
  "abi": [
    {
      "inputs": [
        {
          "internalType": "address",
          "name": "_platformWallet",
          "type": "address"
        },
        {
          "internalType": "uint256",
          "name": "_platformFee",
          "type": "uint256"
        },
        {
          "internalType": "uint256",
          "name": "_agentFee",
          "type": "uint256"
        }
      ],
      "stateMutability": "nonpayable",
      "type": "constructor"
    },
    {
      "inputs": [],
      "name": "EnforcedPause",
      "type": "error"
    },
    {
      "inputs": [],
      "name": "ExpectedPause",
      "type": "error"
    },
    {
      "inputs": [],
      "name": "ReentrancyGuardReentrantCall",
      "type": "error"
    },
    {
      "anonymous": false,
      "inputs": [
        {
          "indexed": true,
          "internalType": "address",
          "name": "nftContract",
          "type": "address"
        },
        {
          "indexed": true,
          "internalType": "uint256",
          "name": "tokenId",
          "type": "uint256"
        },
        {
          "indexed": true,
          "internalType": "address",
          "name": "seller",
          "type": "address"
        }
      ],
      "name": "ListingCancelled",
      "type": "event"
    },
    {
      "anonymous": false,
      "inputs": [
        {
          "indexed": true,
          "internalType": "address",
          "name": "nftContract",
          "type": "address"
        },
        {
          "indexed": true,
          "internalType": "uint256",
          "name": "tokenId",
          "type": "uint256"
        },
        {
          "indexed": true,
          "internalType": "address",
          "name": "seller",
          "type": "address"
        },
        {
          "indexed": false,
          "internalType": "uint256",
          "name": "price",
          "type": "uint256"
        },
        {
          "indexed": false,
          "internalType": "uint256",
          "name": "timestamp",
          "type": "uint256"
        }
      ],
      "name": "NFTListed",
      "type": "event"
    },
    {
      "anonymous": false,
      "inputs": [
        {
          "indexed": true,
          "internalType": "address",
          "name": "nftContract",
          "type": "address"
        },
        {
          "indexed": true,
          "internalType": "uint256",
          "name": "tokenId",
          "type": "uint256"
        },
        {
          "indexed": true,
          "internalType": "address",
          "name": "seller",
          "type": "address"
        },
        {
          "indexed": false,
          "internalType": "address",
          "name": "buyer",
          "type": "address"
        },
        {
          "indexed": false,
          "internalType": "uint256",
          "name": "price",
          "type": "uint256"
        },
        {
          "indexed": false,
          "internalType": "uint256",
          "name": "timestamp",
          "type": "uint256"
        }
      ],
      "name": "NFTSold",
      "type": "event"
    },
    {
      "anonymous": false,
      "inputs": [
        {
          "indexed": true,
          "internalType": "address",
          "name": "nftContract",
          "type": "address"
        },
        {
          "indexed": true,
          "internalType": "uint256",
          "name": "tokenId",
          "type": "uint256"
        },
        {
          "indexed": true,
          "internalType": "address",
          "name": "seller",
          "type": "address"
        },
        {
          "indexed": false,
          "internalType": "address",
          "name": "buyer",
          "type": "address"
        },
        {
          "indexed": false,
          "internalType": "uint256",
          "name": "price",
          "type": "uint256"
        }
      ],
      "name": "OfferAccepted",
      "type": "event"
    },
    {
      "anonymous": false,
      "inputs": [
        {
          "indexed": true,
          "internalType": "address",
          "name": "nftContract",
          "type": "address"
        },
        {
          "indexed": true,
          "internalType": "uint256",
          "name": "tokenId",
          "type": "uint256"
        },
        {
          "indexed": true,
          "internalType": "address",
          "name": "offerer",
          "type": "address"
        },
        {
          "indexed": false,
          "internalType": "uint256",
          "name": "price",
          "type": "uint256"
        },
        {
          "indexed": false,
          "internalType": "uint256",
          "name": "expiresAt",
          "type": "uint256"
        }
      ],
      "name": "OfferMade",
      "type": "event"
    },
    {
      "anonymous": false,
      "inputs": [
        {
          "indexed": false,
          "internalType": "address",
          "name": "account",
          "type": "address"
        }
      ],
      "name": "Paused",
      "type": "event"
    },
    {
      "anonymous": false,
      "inputs": [
        {
          "indexed": true,
          "internalType": "address",
          "name": "nftContract",
          "type": "address"
        },
        {
          "indexed": true,
          "internalType": "uint256",
          "name": "tokenId",
          "type": "uint256"
        },
        {
          "indexed": false,
          "internalType": "uint256",
          "name": "oldPrice",
          "type": "uint256"
        },
        {
          "indexed": false,
          "internalType": "uint256",
          "name": "newPrice",
          "type": "uint256"
        }
      ],
      "name": "PriceUpdated",
      "type": "event"
    },
    {
      "anonymous": false,
      "inputs": [
        {
          "indexed": false,
          "internalType": "address",
          "name": "account",
          "type": "address"
        }
      ],
      "name": "Unpaused",
      "type": "event"
    },
    {
      "inputs": [
        {
          "internalType": "address",
          "name": "nftContract",
          "type": "address"
        },
        {
          "internalType": "uint256",
          "name": "tokenId",
          "type": "uint256"
        },
        {
          "internalType": "uint256",
          "name": "offerIndex",
          "type": "uint256"
        }
      ],
      "name": "acceptOffer",
      "outputs": [],
      "stateMutability": "nonpayable",
      "type": "function"
    },
    {
      "inputs": [],
      "name": "agentFee",
      "outputs": [
        {
          "internalType": "uint256",
          "name": "",
          "type": "uint256"
        }
      ],
      "stateMutability": "view",
      "type": "function"
    },
    {
      "inputs": [
        {
          "internalType": "address",
          "name": "nftContract",
          "type": "address"
        },
        {
          "internalType": "uint256",
          "name": "tokenId",
          "type": "uint256"
        }
      ],
      "name": "buyNFT",
      "outputs": [],
      "stateMutability": "payable",
      "type": "function"
    },
    {
      "inputs": [
        {
          "internalType": "address",
          "name": "nftContract",
          "type": "address"
        },
        {
          "internalType": "uint256",
          "name": "tokenId",
          "type": "uint256"
        }
      ],
      "name": "cancelListing",
      "outputs": [],
      "stateMutability": "nonpayable",
      "type": "function"
    },
    {
      "inputs": [
        {
          "internalType": "address",
          "name": "",
          "type": "address"
        }
      ],
      "name": "collectionAgents",
      "outputs": [
        {
          "internalType": "address",
          "name": "",
          "type": "address"
        }
      ],
      "stateMutability": "view",
      "type": "function"
    },
    {
      "inputs": [
        {
          "internalType": "address",
          "name": "nftContract",
          "type": "address"
        },
        {
          "internalType": "uint256",
          "name": "tokenId",
          "type": "uint256"
        }
      ],
      "name": "getOffers",
      "outputs": [
        {
          "components": [
            {
              "internalType": "address",
              "name": "offerer",
              "type": "address"
            },
            {
              "internalType": "uint256",
              "name": "price",
              "type": "uint256"
            },
            {
              "internalType": "uint256",
              "name": "expiresAt",
              "type": "uint256"
            },
            {
              "internalType": "bool",
              "name": "isActive",
              "type": "bool"
            }
          ],
          "internalType": "struct AgentMarketplace.Offer[]",
          "name": "",
          "type": "tuple[]"
        }
      ],
      "stateMutability": "view",
      "type": "function"
    },
    {
      "inputs": [
        {
          "internalType": "address",
          "name": "nftContract",
          "type": "address"
        },
        {
          "internalType": "uint256",
          "name": "tokenId",
          "type": "uint256"
        },
        {
          "internalType": "uint256",
          "name": "price",
          "type": "uint256"
        }
      ],
      "name": "listNFT",
      "outputs": [],
      "stateMutability": "nonpayable",
      "type": "function"
    },
    {
      "inputs": [
        {
          "internalType": "address",
          "name": "",
          "type": "address"
        },
        {
          "internalType": "uint256",
          "name": "",
          "type": "uint256"
        }
      ],
      "name": "listings",
      "outputs": [
        {
          "internalType": "address",
          "name": "seller",
          "type": "address"
        },
        {
          "internalType": "address",
          "name": "nftContract",
          "type": "address"
        },
        {
          "internalType": "uint256",
          "name": "tokenId",
          "type": "uint256"
        },
        {
          "internalType": "uint256",
          "name": "price",
          "type": "uint256"
        },
        {
          "internalType": "bool",
          "name": "isActive",
          "type": "bool"
        },
        {
          "internalType": "uint256",
          "name": "listedAt",
          "type": "uint256"
        }
      ],
      "stateMutability": "view",
      "type": "function"
    },
    {
      "inputs": [
        {
          "internalType": "address",
          "name": "nftContract",
          "type": "address"
        },
        {
          "internalType": "uint256",
          "name": "tokenId",
          "type": "uint256"
        },
        {
          "internalType": "uint256",
          "name": "expiresAt",
          "type": "uint256"
        }
      ],
      "name": "makeOffer",
      "outputs": [],
      "stateMutability": "payable",
      "type": "function"
    },
    {
      "inputs": [
        {
          "internalType": "address",
          "name": "",
          "type": "address"
        },
        {
          "internalType": "uint256",
          "name": "",
          "type": "uint256"
        },
        {
          "internalType": "uint256",
          "name": "",
          "type": "uint256"
        }
      ],
      "name": "offers",
      "outputs": [
        {
          "internalType": "address",
          "name": "offerer",
          "type": "address"
        },
        {
          "internalType": "uint256",
          "name": "price",
          "type": "uint256"
        },
        {
          "internalType": "uint256",
          "name": "expiresAt",
          "type": "uint256"
        },
        {
          "internalType": "bool",
          "name": "isActive",
          "type": "bool"
        }
      ],
      "stateMutability": "view",
      "type": "function"
    },
    {
      "inputs": [],
      "name": "pause",
      "outputs": [],
      "stateMutability": "nonpayable",
      "type": "function"
    },
    {
      "inputs": [],
      "name": "paused",
      "outputs": [
        {
          "internalType": "bool",
          "name": "",
          "type": "bool"
        }
      ],
      "stateMutability": "view",
      "type": "function"
    },
    {
      "inputs": [],
      "name": "platformFee",
      "outputs": [
        {
          "internalType": "uint256",
          "name": "",
          "type": "uint256"
        }
      ],
      "stateMutability": "view",
      "type": "function"
    },
    {
      "inputs": [],
      "name": "platformWallet",
      "outputs": [
        {
          "internalType": "address",
          "name": "",
          "type": "address"
        }
      ],
      "stateMutability": "view",
      "type": "function"
    },
    {
      "inputs": [
        {
          "internalType": "address",
          "name": "nftContract",
          "type": "address"
        },
        {
          "internalType": "address",
          "name": "agentWallet",
          "type": "address"
        }
      ],
      "name": "registerCollectionAgent",
      "outputs": [],
      "stateMutability": "nonpayable",
      "type": "function"
    },
    {
      "inputs": [],
      "name": "unpause",
      "outputs": [],
      "stateMutability": "nonpayable",
      "type": "function"
    },
    {
      "inputs": [
        {
          "internalType": "uint256",
          "name": "newFee",
          "type": "uint256"
        }
      ],
      "name": "updateAgentFee",
      "outputs": [],
      "stateMutability": "nonpayable",
      "type": "function"
    },
    {
      "inputs": [
        {
          "internalType": "uint256",
          "name": "newFee",
          "type": "uint256"
        }
      ],
      "name": "updatePlatformFee",
      "outputs": [],
      "stateMutability": "nonpayable",
      "type": "function"
    },
    {
      "inputs": [
        {
          "internalType": "address",
          "name": "nftContract",
          "type": "address"
        },
        {
          "internalType": "uint256",
          "name": "tokenId",
          "type": "uint256"
        },
        {
          "internalType": "uint256",
          "name": "newPrice",
          "type": "uint256"
        }
      ],
      "name": "updatePrice",
      "outputs": [],
      "stateMutability": "nonpayable",
      "type": "function"
    }
  ],
  "bytecode": "0x60803461014457601f611a1038819003918201601f19168301916001600160401b03831184841017610149578084926060946040528339810103126101445780516001600160a01b0381169190829003610144576040602082015191015191600160005580156100ff578282018083116100e9576103e8106100a457600680546001600160a01b0319169190911790556004556005556040516118b090816101608239f35b60405162461bcd60e51b815260206004820152601360248201527f546f74616c206665657320746f6f2068696768000000000000000000000000006044820152606490fd5b634e487b7160e01b600052601160045260246000fd5b60405162461bcd60e51b815260206004820152601760248201527f496e76616c696420706c6174666f726d2077616c6c65740000000000000000006044820152606490fd5b600080fd5b634e487b7160e01b600052604160045260246000fdfe608060408181526004918236101561001657600080fd5b600092833560e01c91826207df30146112105750816326232a2e146111f257816334a4cb8f146111d35781633a2d126d1461112e5781633c6fc81714610e9c5781633f4ba83a14610e255781635c975abb14610e015781636097ff9014610dc05781637de3bd0714610b5e57816382580e9014610b235781638456cb5914610abc578163a82ba76f146107fe578163aa0b5988146107b6578163ad05f1b414610488578163b2ddee06146103a6578163e3b436771461032b578163e57d6fb714610263578163ea98a95014610120575063fa2af9da146100f557600080fd5b3461011c578160031936011261011c5760065490516001600160a01b039091168152602090f35b5080fd5b8391503461011c578260031936011261011c576001600160a01b03918261014561128f565b168152600390602090828252858120602435825282528581209384549067ffffffffffffffff82116102505787949392945193610187848460051b0186611368565b82855283850190819787528487209087925b8a8c878610610204579650505050505050519481860192828752518093528686019493905b8382106101cb5786860387f35b845180518216875280840151878501528881015189880152606090810151151590870152608090950194938201936001909101906101be565b9760019287928a839c9d9b519161021a83611330565b8854168252858801548483015260028801549082015260ff86880154161515606082015281520193019301929197969597610199565b634e487b7160e01b835260419052602482fd5b90503461032757610273366112aa565b90939160018060a01b038091169384875260026020528387208688526020526102b2848820926102a860ff8486015416611480565b83541633146114b9565b82156102f457509060037f40a2e1011bc4b63fe019abc98ce43b9ae4a22f2072b84f3d14941dc1675979c293920190808254925582519182526020820152a380f35b606490602085519162461bcd60e51b8352820152600d60248201526c496e76616c696420707269636560981b6044820152fd5b8280fd5b8284346103a35761033b366112aa565b9391929060018060a01b03809416825260036020528282209082526020528181209081548510156103a35750608093610373916112d4565b50918254169160018101549160ff6003600284015493015416928151948552602085015283015215156060820152f35b80fd5b919050346103275780600319360112610327576103c161128f565b916024359161044360018060a01b0380951694858752600260205282872085885260205282872061043a8451916103f78361134c565b83815416835283600182015416602084015260028101548684015260038101546060840152600560ff8883015416151591826080860152015460a0840152611480565b511633146114b9565b838552600260205280852083865260205284200160ff19815416905533917f8526cb6d400b8a551983c99e6d6fb1775b7a0deeb5d1e39d3ee65bc59e5eac278480a480f35b9190503461032757610499366112aa565b93916104a69391936113dc565b81516331a9108f60e11b81528084018590526001600160a01b03918216936020929091602490848183818a5afa8015610741578a90610780575b6104ee91508316331461139e565b845163020604bf60e21b8152838101889052848183818a5afa908115610741578a9161074b575b508216301480156106d4575b156106935787156106525785895260028452848920878a52845260ff83868b2001541661062057509260058561060c85948b8b86988c8b7f902e543cfa5843dd67ad404742ff059a71d0a7349e01f2bf410b6f20c62986209c8a519a8b966105888861134c565b338852858801948b86528289019681885260608a0198895260a060808b019a60018c52019c8d42905283526002815283832091835252209a5116906bffffffffffffffffffffffff60a01b91828c5416178b5560018b01925116908254161790555160028801555160038701555115159085019060ff801983541691151516179055565b51910155815195865242908601523394a480f35b600e915060649385519362461bcd60e51b85528401528201526d105b1c9958591e481b1a5cdd195960921b6044820152fd5b601c915060649385519362461bcd60e51b85528401528201527f5072696365206d7573742062652067726561746572207468616e2030000000006044820152fd5b6018915060649385519362461bcd60e51b85528401528201527f4d61726b6574706c616365206e6f7420617070726f76656400000000000000006044820152fd5b50845163e985e9c560e01b81523384820152308282015284816044818a5afa908115610741578a91610707575b50610521565b90508481813d831161073a575b61071e8183611368565b81010312610736575180151581036107365738610701565b8980fd5b503d610714565b86513d8c823e3d90fd5b90508481813d8311610779575b6107628183611368565b81010312610736576107739061138a565b38610515565b503d610758565b508481813d83116107af575b6107968183611368565b81010312610736576107aa6104ee9161138a565b6104e0565b503d61078c565b83903461011c57602036600319011261011c578035906107e160018060a01b036006541633146117ef565b6107fa6103e86107f36005548561182b565b1115611838565b5580f35b918091506003193601126103275761081461128f565b906024359161082161145d565b6108296113dc565b60018060a01b039182821692838752602092600284528288208689528452828820968351916108578361134c565b8389541683528360018a0154168684015260028901548584015260038901549860608401998a52600560ff8483015416159182156080870152015460a0850152610a835788513410610a4957838351163314610a11578990878252600287528582208983528752828683200160ff1981541690556108d78a518a83611505565b9395898994929451168d3b1561011c57818f8f8b8f61092a9585915196879586948593632142170760e11b85523391850160409194939294606082019560018060a01b0380921683521660208201520152565b03925af18015610a07576109ef575b505061094895898951166115f6565b888851803411610997575b505050917f85d6aff492354cbf7fdd7efb2bd8bce059037aef73b968f95d32a417598cbff99391606093511696518151923384528301524290820152a46001815580f35b81806109a48193346113fa565b335af16109af61141d565b50156109bc578881610953565b835162461bcd60e51b8152908101859052600d60248201526c1499599d5b990819985a5b1959609a1b6044820152606490fd5b6109f890611306565b610a03578e38610939565b8e80fd5b8c513d84823e3d90fd5b845162461bcd60e51b8152808301879052601260248201527110d85b9b9bdd08189d5e481bdddb8813919560721b6044820152606490fd5b845162461bcd60e51b81528083018790526014602482015273125b9cdd59999a58da595b9d081c185e5b595b9d60621b6044820152606490fd5b845162461bcd60e51b815280830187905260136024820152724e6f74206c697374656420666f722073616c6560681b6044820152606490fd5b50503461011c578160031936011261011c5760207f62e78cea01bee320cd4e420270b5ea74000d11b0c9f74754ebdbfc544b05a25891610b0760018060a01b036006541633146117ef565b610b0f6113dc565b600160ff198154161760015551338152a180f35b50503461011c57602036600319011261011c576020916001600160a01b0390829082610b4d61128f565b168152600785522054169051908152f35b919050610b6a366112aa565b9391939290923415610d7d5742811115610d455781516331a9108f60e11b81528084018590526020956001600160a01b0390811694918781602481895afa908115610d3b578991610d02575b5081163314610cbf5784885260038752838820868952875283882090845190610bde82611330565b338252888201903482528683019286845260608101946001865280549068010000000000000000821015610cac5790610c1c916001820181556112d4565b969096610c9a575092600392610c8b95927ece0a712e4e277ac7b34942865f0de7a5629dffe0539b70423ad5ff1ed6ab429998979551166bffffffffffffffffffffffff60a01b86541617855551600185015551600284015551151591019060ff801983541691151516179055565b8151953487528601523394a480f35b634e487b7160e01b8d528c905260248cfd5b634e487b7160e01b8e526041885260248efd5b835162461bcd60e51b8152808301889052601760248201527f43616e6e6f74206f66666572206f6e206f776e204e46540000000000000000006044820152606490fd5b90508781813d8311610d34575b610d198183611368565b81010312610d3057610d2a9061138a565b38610bb6565b8880fd5b503d610d0f565b85513d8b823e3d90fd5b815162461bcd60e51b8152602081850152601260248201527124b73b30b634b21032bc3834b930ba34b7b760711b6044820152606490fd5b815162461bcd60e51b8152602081850152601c60248201527f4f66666572206d7573742062652067726561746572207468616e2030000000006044820152606490fd5b83903461011c57602036600319011261011c57610dfb6103e86107f383358094610df560018060a01b036006541633146117ef565b5461182b565b60055580f35b50503461011c578160031936011261011c5760209060ff6001541690519015158152f35b905034610327578260031936011261032757610e4c60018060a01b036006541633146117ef565b6001549060ff821615610e8e575060ff1916600155513381527f5db9ee0a495bf2e6ff9c91a7834c1ba4fdd244a5e8aa4e537bd38aeae4b073aa90602090a180f35b8251638dfc202b60e01b8152fd5b83833461011c57610eac366112aa565b909192610eb761145d565b610ebf6113dc565b80516331a9108f60e11b81528681018490526001600160a01b03858116936020928381602481895afa908115610d3b5789916110f0575b5090610f09610f2092843391161461139e565b85895260038452848920878a5284528489206112d4565b506003810180549060ff8216156110ba5760028301544210156110875760ff19918216905585895260028452848920878a5284528489208a015460ff16611067575b506001810196610f7488548883611505565b939d87879492945416908b3b15610a03578a51632142170760e11b8152339181019182526001600160a01b03929092166020820152604081018d90528e90829081900360600181838f5af1801561105b57611016575b5090610fff949392917f47b97c7cbd7d3ec9d5cc511f0b698f7fe0b891454fc558e49eb656c216b445979a9b9c9d9e336115f6565b541695549082519687528601523394a46001815580f35b907f47b97c7cbd7d3ec9d5cc511f0b698f7fe0b891454fc558e49eb656c216b445979a9b9c9d61104c610fff9796959493611306565b9d9c9b9a509091929394610fca565b8e8b51903d90823e3d90fd5b85895260028452848920878a52845289858a200190815416905589610f62565b855162461bcd60e51b8152808c01869052600d60248201526c13d999995c88195e1c1a5c9959609a1b6044820152606490fd5b855162461bcd60e51b8152808c01869052601060248201526f4f66666572206e6f742061637469766560801b6044820152606490fd5b90508381813d8311611127575b6111078183611368565b81010312610d305790610f0961111f610f209361138a565b919250610ef6565b503d6110fd565b9190503461032757806003193601126103275761114961128f565b6024356001600160a01b03818116949092918590036111cf578260065416330361118c57501683526007602052822080546001600160a01b031916909117905580f35b606490602085519162461bcd60e51b8352820152601a60248201527f4f6e6c7920706c6174666f726d2063616e2072656769737465720000000000006044820152fd5b8580fd5b50503461011c578160031936011261011c576020906005549051908152f35b90503461032757826003193601126103275760209250549051908152f35b84843461011c578060031936011261011c5760c0936001600160a01b039282908461123961128f565b168152600260205281812060243582526020522091838354169360018401541690600284015491600560ff60038701549587015416950154958752602087015285015260608401521515608083015260a0820152f35b600435906001600160a01b03821682036112a557565b600080fd5b60609060031901126112a5576004356001600160a01b03811681036112a557906024359060443590565b80548210156112f05760005260206000209060021b0190600090565b634e487b7160e01b600052603260045260246000fd5b67ffffffffffffffff811161131a57604052565b634e487b7160e01b600052604160045260246000fd5b6080810190811067ffffffffffffffff82111761131a57604052565b60c0810190811067ffffffffffffffff82111761131a57604052565b90601f8019910116810190811067ffffffffffffffff82111761131a57604052565b51906001600160a01b03821682036112a557565b156113a557565b60405162461bcd60e51b815260206004820152600f60248201526e2737ba103a37b5b2b71037bbb732b960891b6044820152606490fd5b60ff600154166113e857565b60405163d93c066560e01b8152600490fd5b9190820391821161140757565b634e487b7160e01b600052601160045260246000fd5b3d15611458573d9067ffffffffffffffff821161131a576040519161144c601f8201601f191660200184611368565b82523d6000602084013e565b606090565b60026000541461146e576002600055565b604051633ee5aeb560e01b8152600490fd5b1561148757565b60405162461bcd60e51b815260206004820152600a602482015269139bdd081b1a5cdd195960b21b6044820152606490fd5b156114c057565b60405162461bcd60e51b815260206004820152600a6024820152692737ba1039b2b63632b960b11b6044820152606490fd5b8181029291811591840414171561140757565b92916127109260408461151a600454856114f2565b0494611528600554856114f2565b0493604482518098819363152a902d60e11b8352600483015286602483015260018060a01b03165afa8060009687926115a7575b50938596819695156000146115915750505061158a6000926115858661158560009788946113fa565b6113fa565b9493929190565b61158a92949161158561158592969788946113fa565b9091506040813d82116115ee575b816115c260409383611368565b810103126115ea57859650938460206115dc83989761138a565b91015192915096959461155c565b8680fd5b3d91506115b5565b959192909560008080809981945af161160d61141d565b50156117b257828693611744575b5080151580611724575b6116a7575b50505080151580611695575b61163f57505050565b8280929181925af161164f61141d565b501561165757565b60405162461bcd60e51b8152602060048201526016602482015275149bde585b1d1e481c185e5b595b9d0819985a5b195960521b6044820152606490fd5b506001600160a01b0382161515611636565b6001600160a01b039182168352600760205260408320548392839283929091165af16116d161141d565b50156116df5782388061162a565b60405162461bcd60e51b815260206004820152601860248201527f4167656e7420666565207061796d656e74206661696c656400000000000000006044820152606490fd5b506001600160a01b03828116845260076020526040842054161515611625565b92808080939560018060a01b03600654165af161175f61141d565b501561176d5784913861161b565b60405162461bcd60e51b815260206004820152601b60248201527f506c6174666f726d20666565207061796d656e74206661696c656400000000006044820152606490fd5b60405162461bcd60e51b815260206004820152601560248201527414d95b1b195c881c185e5b595b9d0819985a5b1959605a1b6044820152606490fd5b156117f657565b60405162461bcd60e51b815260206004820152600d60248201526c4f6e6c7920706c6174666f726d60981b6044820152606490fd5b9190820180921161140757565b1561183f57565b60405162461bcd60e51b81526020600482015260136024820152720a8dee8c2d840cccacae640e8dede40d0d2ced606b1b6044820152606490fdfea2646970667358221220d644353d83fa591b275d497392c534e893db7b2de3305159fd296e49d93df57c64736f6c63430008140033",
  "linkReferences": {},
  "deployedLinkReferences": {}
}