{
  "_format": "hh-sol-artifact-1",
  "contractName": "AgentNFTFactory",
  "sourceName": "contracts/AgentNFTFactory.sol",
  "abi": [
    {
      "inputs": [
        {
          "internalType": "address",
          "name": "_platformWallet",
          "type": "address"
        },
        {
          "internalType": "uint256",
          "name": "_deploymentFee",
          "type": "uint256"
        }
      ],
      "stateMutability": "nonpayable",
      "type": "constructor"
    },
    {
      "anonymous": false,
      "inputs": [
        {
          "indexed": true,
          "internalType": "address",
          "name": "collectionAddress",
          "type": "address"
        }
      ],
      "name": "CollectionDeactivated",
      "type": "event"
    },
    {
      "anonymous": false,
      "inputs": [
        {
          "indexed": true,
          "internalType": "address",
          "name": "collectionAddress",
          "type": "address"
        },
        {
          "indexed": true,
          "internalType": "address",
          "name": "agentWallet",
          "type": "address"
        },
        {
          "indexed": false,
          "internalType": "string",
          "name": "name",
          "type": "string"
        },
        {
          "indexed": false,
          "internalType": "string",
          "name": "symbol",
          "type": "string"
        },
        {
          "indexed": false,
          "internalType": "uint256",
          "name": "timestamp",
          "type": "uint256"
        }
      ],
      "name": "CollectionDeployed",
      "type": "event"
    },
    {
      "anonymous": false,
      "inputs": [
        {
          "indexed": false,
          "internalType": "uint256",
          "name": "newFee",
          "type": "uint256"
        }
      ],
      "name": "DeploymentFeeUpdated",
      "type": "event"
    },
    {
      "anonymous": false,
      "inputs": [
        {
          "indexed": true,
          "internalType": "address",
          "name": "newWallet",
          "type": "address"
        }
      ],
      "name": "PlatformWalletUpdated",
      "type": "event"
    },
    {
      "inputs": [
        {
          "internalType": "address",
          "name": "",
          "type": "address"
        },
        {
          "internalType": "uint256",
          "name": "",
          "type": "uint256"
        }
      ],
      "name": "agentCollections",
      "outputs": [
        {
          "internalType": "address",
          "name": "",
          "type": "address"
        }
      ],
      "stateMutability": "view",
      "type": "function"
    },
    {
      "inputs": [
        {
          "internalType": "uint256",
          "name": "",
          "type": "uint256"
        }
      ],
      "name": "allCollections",
      "outputs": [
        {
          "internalType": "address",
          "name": "",
          "type": "address"
        }
      ],
      "stateMutability": "view",
      "type": "function"
    },
    {
      "inputs": [
        {
          "internalType": "address",
          "name": "",
          "type": "address"
        }
      ],
      "name": "collections",
      "outputs": [
        {
          "internalType": "address",
          "name": "collectionAddress",
          "type": "address"
        },
        {
          "internalType": "address",
          "name": "agentWallet",
          "type": "address"
        },
        {
          "internalType": "string",
          "name": "name",
          "type": "string"
        },
        {
          "internalType": "string",
          "name": "symbol",
          "type": "string"
        },
        {
          "internalType": "uint256",
          "name": "deployedAt",
          "type": "uint256"
        },
        {
          "internalType": "bool",
          "name": "isActive",
          "type": "bool"
        }
      ],
      "stateMutability": "view",
      "type": "function"
    },
    {
      "inputs": [
        {
          "internalType": "address",
          "name": "collectionAddress",
          "type": "address"
        }
      ],
      "name": "deactivateCollection",
      "outputs": [],
      "stateMutability": "nonpayable",
      "type": "function"
    },
    {
      "inputs": [
        {
          "internalType": "string",
          "name": "name",
          "type": "string"
        },
        {
          "internalType": "string",
          "name": "symbol",
          "type": "string"
        },
        {
          "internalType": "string",
          "name": "collectionURI",
          "type": "string"
        },
        {
          "internalType": "address",
          "name": "agentWallet",
          "type": "address"
        },
        {
          "internalType": "uint96",
          "name": "royaltyFee",
          "type": "uint96"
        }
      ],
      "name": "deployCollection",
      "outputs": [
        {
          "internalType": "address",
          "name": "",
          "type": "address"
        }
      ],
      "stateMutability": "payable",
      "type": "function"
    },
    {
      "inputs": [],
      "name": "deploymentFee",
      "outputs": [
        {
          "internalType": "uint256",
          "name": "",
          "type": "uint256"
        }
      ],
      "stateMutability": "view",
      "type": "function"
    },
    {
      "inputs": [
        {
          "internalType": "address",
          "name": "agentWallet",
          "type": "address"
        }
      ],
      "name": "getAgentCollections",
      "outputs": [
        {
          "internalType": "address[]",
          "name": "",
          "type": "address[]"
        }
      ],
      "stateMutability": "view",
      "type": "function"
    },
    {
      "inputs": [],
      "name": "getAllCollections",
      "outputs": [
        {
          "internalType": "address[]",
          "name": "",
          "type": "address[]"
        }
      ],
      "stateMutability": "view",
      "type": "function"
    },
    {
      "inputs": [
        {
          "internalType": "address",
          "name": "collectionAddress",
          "type": "address"
        }
      ],
      "name": "getCollectionInfo",
      "outputs": [
        {
          "components": [
            {
              "internalType": "address",
              "name": "collectionAddress",
              "type": "address"
            },
            {
              "internalType": "address",
              "name": "agentWallet",
              "type": "address"
            },
            {
              "internalType": "string",
              "name": "name",
              "type": "string"
            },
            {
              "internalType": "string",
              "name": "symbol",
              "type": "string"
            },
            {
              "internalType": "uint256",
              "name": "deployedAt",
              "type": "uint256"
            },
            {
              "internalType": "bool",
              "name": "isActive",
              "type": "bool"
            }
          ],
          "internalType": "struct AgentNFTFactory.CollectionInfo",
          "name": "",
          "type": "tuple"
        }
      ],
      "stateMutability": "view",
      "type": "function"
    },
    {
      "inputs": [],
      "name": "getTotalCollections",
      "outputs": [
        {
          "internalType": "uint256",
          "name": "",
          "type": "uint256"
        }
      ],
      "stateMutability": "view",
      "type": "function"
    },
    {
      "inputs": [],
      "name": "platformWallet",
      "outputs": [
        {
          "internalType": "address",
          "name": "",
          "type": "address"
        }
      ],
      "stateMutability": "view",
      "type": "function"
    },
    {
      "inputs": [
        {
          "internalType": "uint256",
          "name": "newFee",
          "type": "uint256"
        }
      ],
      "name": "updateDeploymentFee",
      "outputs": [],
      "stateMutability": "nonpayable",
      "type": "function"
    },
    {
      "inputs": [
        {
          "internalType": "address",
          "name": "newWallet",
          "type": "address"
        }
      ],
      "name": "updatePlatformWallet",
      "outputs": [],
      "stateMutability": "nonpayable",
      "type": "function"
    }
  ],
  "bytecode": "0x6080346100c857601f61342638819003918201601f19168301916001600160401b038311848410176100cd5780849260409485528339810103126100c85780516001600160a01b03811691908290036100c8576020015190801561008357600480546001600160a01b03191691909117905560035560405161334290816100e48239f35b60405162461bcd60e51b815260206004820152601760248201527f496e76616c696420706c6174666f726d2077616c6c65740000000000000000006044820152606490fd5b600080fd5b634e487b7160e01b600052604160045260246000fdfe60808060405260043610156200001457600080fd5b60003560e01c908163167ef4951462000e7b575080632db42c80146200072b5780633a4618a2146200061c57806343add2e6146200056a57806347a10c7f146200050a578063499200db146200046a57806362b2150f14620003e65780636804a958146200034a5780639056a04b1462000222578063939bf6dd1462000202578063ada4ef30146200010c578063f2cff57f14620000ec5763fa2af9da14620000bc57600080fd5b34620000e7576000366003190112620000e7576004546040516001600160a01b039091168152602090f35b600080fd5b34620000e7576000366003190112620000e7576020600354604051908152f35b34620000e7576020366003190112620000e7576200012962000f9a565b600454906001600160a01b03908183163303620001bd57169081156200017f576001600160a01b03191681176004557f73238e3ae0a71b401b31ae67204506d074de41bd5c084082fba9b64b1c7fa28f600080a2005b60405162461bcd60e51b8152602060048201526016602482015275496e76616c69642077616c6c6574206164647265737360501b6044820152606490fd5b60405162461bcd60e51b815260206004820152601f60248201527f4f6e6c7920706c6174666f726d2063616e207570646174652077616c6c6574006044820152606490fd5b34620000e7576000366003190112620000e7576020600254604051908152f35b34620000e757602080600319360112620000e7576200024062000f9a565b90600060a0604051620002538162000ef0565b828152828482015260606040820152606080820152826080820152015260018060a01b0380921660005260008152604060002060405191620002958362000ef0565b838254168352620003378460018401541682850190815262000323620002be6002860162000fee565b6040870190815287620002d46003880162000fee565b936060890194855260ff600560048a01549960808c019a8b520154169660a08a0197151588526040519a8b9a828c525116908a0152511660408801525160c0606088015260e0870190620010a0565b9051858203601f19016080870152620010a0565b915160a084015251151560c08301520390f35b34620000e7576000366003190112620000e757604051806002549182815260208091019260026000527f405787fa12a823e0f2b7631cc41b3ba8828b3321ca811111fa75cd3aa3bb5ace916000905b828210620003c557620003c185620003b48189038262000f0d565b60405191829182620010e2565b0390f35b83546001600160a01b03168652948501946001938401939091019062000399565b34620000e757602080600319360112620000e7576001600160a01b03806200040d62000f9a565b16600052600191828152604060002092604051809383865492838152019560005283600020936000915b8383106200045257620003c187620003b4818b038262000f0d565b85548116885296810196948401949184019162000437565b34620000e7576020366003190112620000e757600480549035906001600160a01b03163303620004c5576020817f40bd824d588484917db8fa4fc894c1e0feae5a75885290ba7b97521cebf82a8092600355604051908152a1005b60405162461bcd60e51b815260206004820152601c60248201527f4f6e6c7920706c6174666f726d2063616e2075706461746520666565000000006044820152606490fd5b34620000e7576040366003190112620000e7576200052762000f9a565b6024359060018060a01b03809116600052600160205260406000208054831015620000e7576020926200055a9162000ed7565b9190546040519260031b1c168152f35b34620000e7576020366003190112620000e7576001600160a01b03806200059062000f9a565b166000526000602052604060002090808254169060018301541691620005b96002820162000fee565b6200060b620005cb6003840162000fee565b620005fc60ff6005600487015496015416936040519788978852602088015260c0604088015260c0870190620010a0565b908582036060870152620010a0565b916080840152151560a08301520390f35b34620000e7576020366003190112620000e7576200063962000f9a565b6004546001600160a01b03919082163303620006e6571680600052600060205260ff6005604060002001541615620006ab57806000526000602052600560406000200160ff1981541690557f8aaa4d9743e4c5f1379c29290b8c89bd18c6c832a7b0deb6498c0d44b6678785600080a2005b60405162461bcd60e51b8152602060048201526013602482015272105b1c9958591e4819195858dd1a5d985d1959606a1b6044820152606490fd5b60405162461bcd60e51b815260206004820152601c60248201527f4f6e6c7920706c6174666f726d2063616e2064656163746976617465000000006044820152606490fd5b60a0366003190112620000e75760043567ffffffffffffffff8111620000e7576200075b90369060040162000f4d565b60243567ffffffffffffffff8111620000e7576200077e90369060040162000f4d565b9060443567ffffffffffffffff8111620000e757620007a290369060040162000f4d565b60643591906001600160a01b0383168303620000e7576084356bffffffffffffffffffffffff8116809103620000e757600354341062000e36576001600160a01b0384161562000dfa5782511562000dbe5784511562000d8057604051916121e4918284019184831067ffffffffffffffff84111762000bb15762000860608091869562001129873960a08552620008516200084260a087018a620010a0565b86810360208801528b620010a0565b908582036040870152620010a0565b6001600160a01b038816606085015292015203906000f091821562000d74576040516200088d8162000ef0565b6001600160a01b0384811680835283821660208085019182526040808601888152606087018b9052426080880152600160a088018190526000958652928590529320855181549086166001600160a01b0319918216178255925191810180549290951691909216179092555180519067ffffffffffffffff821162000bb15781906200091d600285015462000fb1565b601f811162000d1c575b50602090601f831160011462000ca55760009262000c99575b50508160011b916000199060031b1c19161760028201555b606082015180519067ffffffffffffffff821162000bb1576200097f600384015462000fb1565b601f811162000c4d575b50602090601f831160011462000bd357918060a0949260059460009262000bc7575b50508160011b916000199060031b1c19161760038201555b6080840151600482015501910151151560ff8019835416911617905560018060a01b038116600052600160205260406000208054600160401b81101562000bb15762000a159160018201815562000ed7565b81546001600160a01b0386811660039390931b92831b921b1916179055600254600160401b81101562000bb157600181018060025581101562000b9b5760026000527f405787fa12a823e0f2b7631cc41b3ba8828b3321ca811111fa75cd3aa3bb5ace0180546001600160a01b0319166001600160a01b0385161790553462000b14575b7f23d72f97db8df2a1ee9857064a1330256a60d5f470b2240756f2ca33a649830a62000ae660209562000ad860405195606087526060870190620010a0565b9085820388870152620010a0565b4260408501526001600160a01b0392831693928516929081900390a36040516001600160a01b039091168152f35b60008080803460018060a01b03600454165af13d1562000b95573d62000b3a8162000f30565b9062000b4a604051928362000f0d565b8152600060203d92013e5b62000a995760405162461bcd60e51b8152602060048201526013602482015272119959481d1c985b9cd9995c8819985a5b1959606a1b6044820152606490fd5b62000b55565b634e487b7160e01b600052603260045260246000fd5b634e487b7160e01b600052604160045260246000fd5b015190508a80620009ab565b906003840160005260206000209160005b601f198516811062000c3457509260a0949260019260059583601f1981161062000c1a575b505050811b016003820155620009c3565b015160001960f88460031b161c191690558a808062000c09565b9192602060018192868501518155019401920162000be4565b600384016000526020600020601f840160051c81016020851062000c91575b601f830160051c8201811062000c8457505062000989565b6000815560010162000c6c565b508062000c6c565b01519050888062000940565b9250600284016000526020600020906000935b601f198416851062000d00576001945083601f1981161062000ce6575b505050811b01600282015562000958565b015160001960f88460031b161c1916905588808062000cd5565b8181015183556020948501946001909301929091019062000cb8565b909150600284016000526020600020601f840160051c81016020851062000d6c575b90849392915b601f830160051c8201811062000d5c57505062000927565b6000815585945060010162000d44565b508062000d3e565b6040513d6000823e3d90fd5b60405162461bcd60e51b815260206004820152601660248201527553796d626f6c2063616e6e6f7420626520656d70747960501b6044820152606490fd5b60405162461bcd60e51b81526020600482015260146024820152734e616d652063616e6e6f7420626520656d70747960601b6044820152606490fd5b60405162461bcd60e51b8152602060048201526014602482015273125b9d985b1a59081859d95b9d081dd85b1b195d60621b6044820152606490fd5b60405162461bcd60e51b815260206004820152601b60248201527f496e73756666696369656e74206465706c6f796d656e742066656500000000006044820152606490fd5b34620000e7576020366003190112620000e75760043590600254821015620000e75760026000527f405787fa12a823e0f2b7631cc41b3ba8828b3321ca811111fa75cd3aa3bb5ace909101546001600160a01b03168152602090f35b805482101562000b9b5760005260206000200190600090565b60c0810190811067ffffffffffffffff82111762000bb157604052565b90601f8019910116810190811067ffffffffffffffff82111762000bb157604052565b67ffffffffffffffff811162000bb157601f01601f191660200190565b81601f82011215620000e75780359062000f678262000f30565b9262000f77604051948562000f0d565b82845260208383010111620000e757816000926020809301838601378301015290565b600435906001600160a01b0382168203620000e757565b90600182811c9216801562000fe3575b602083101462000fcd57565b634e487b7160e01b600052602260045260246000fd5b91607f169162000fc1565b9060405191826000825492620010048462000fb1565b9081845260019485811690816000146200107b575060011462001034575b5050620010329250038362000f0d565b565b9093915060005260209081600020936000915b81831062001062575050620010329350820101388062001022565b8554888401850152948501948794509183019162001047565b9150506200103294506020925060ff191682840152151560051b820101388062001022565b919082519283825260005b848110620010cd575050826000602080949584010152601f8019910116010190565b602081830181015184830182015201620010ab565b6020908160408183019282815285518094520193019160005b8281106200110a575050505090565b83516001600160a01b031685529381019392810192600101620010fb56fe60406080815234620005c257620021e4803803806200001e81620005c7565b92833981019060a081830312620005c25780516001600160401b039290838111620005c2578162000051918401620005ed565b9060209182840151858111620005c257826200006f918601620005ed565b918685015190868211620005c2576200008a918601620005ed565b9360608101519160018060a01b0391828416809403620005c257608001516001600160601b03811696909190878303620005c2578151898111620005ac576000968754916001948584811c94168015620005a1575b8b851014620004a75781908b601f958681116200054b575b50508b90858311600114620004e6578b92620004da575b5050600019600383901b1c191690851b1788555b8051908b8211620004c65784548581811c91168015620004bb575b8b821014620004a75790818484931162000454575b508a90848311600114620003ef578a92620003e3575b5050600019600383901b1c191690841b1783555b8515620003cb57600980546001600160a01b0319808216891790925590958791167f8be0079c531659141344cd1fd0a4f28419497f9722a3daafe3b4186f6b6457e08980a36103e8891162000387578151918a83116200037357600b548481811c9116801562000368575b8a82101462000354578281116200030b575b5088918311600114620002a557928293918392899462000299575b50501b916000199060031b1c191617600b555b60a01b1681179485600c556127108086116200027c57508651928388019182118483101762000268575086528152015260075551611b849081620006608239f35b634e487b7160e01b81526041600452602490fd5b85604491895191636f483d0960e01b835260048301526024820152fd5b01519250388062000214565b600b8852888820919083601f1981168a5b8c88838310620002f35750505010620002d9575b505050811b01600b5562000227565b015160001960f88460031b161c19169055388080620002ca565b868601518855909601959485019487935001620002b6565b600b89528989208380860160051c8201928c87106200034a575b0160051c019085905b8281106200033e575050620001f9565b8a81550185906200032e565b9250819262000325565b634e487b7160e01b89526022600452602489fd5b90607f1690620001e7565b634e487b7160e01b88526041600452602488fd5b8a5162461bcd60e51b815260048101899052601460248201527f526f79616c74792066656520746f6f20686967680000000000000000000000006044820152606490fd5b8a51631e4fbdf760e01b815260048101889052602490fd5b01519050388062000168565b868b528b8b208794509190601f1984168c8e5b8282106200043c575050841162000422575b505050811b0183556200017c565b015160001960f88460031b161c1916905538808062000414565b8385015186558a979095019493840193018e62000402565b909150858a528a8a208480850160051c8201928d86106200049d575b918891869594930160051c01915b8281106200048e57505062000152565b8c81558594508891016200047e565b9250819262000470565b634e487b7160e01b8a52602260045260248afd5b90607f16906200013d565b634e487b7160e01b89526041600452602489fd5b0151905038806200010e565b8b80528c8c208894509190601f1984168d8f5b82821062000533575050841162000519575b505050811b01885562000122565b015160001960f88460031b161c191690553880806200050b565b8385015186558b979095019493840193018f620004f9565b909192508b805285828d209181860160051c830193861062000597575b918991869594930160051c01915b8281106200058857508d9150620000f7565b8d815585945089910162000576565b9250819262000568565b93607f1693620000df565b634e487b7160e01b600052604160045260246000fd5b600080fd5b6040519190601f01601f191682016001600160401b03811183821017620005ac57604052565b919080601f84011215620005c25782516001600160401b038111620005ac5760209062000623601f8201601f19168301620005c7565b92818452828287010111620005c25760005b8181106200064b57508260009394955001015290565b85810183015184820184015282016200063556fe6080604081815260048036101561001557600080fd5b600092833560e01c90816301ffc9a71461110f5750806306fdde0314611067578063081812fc1461102c578063095ea7b314610f5057806318160ddd14610f3157806323b872dd14610f195780632a55205a14610e785780633f4ba83a14610e095780633f6dfdbc14610de057806342842e0e14610db15780635c975abb14610d8a5780636352211e14610d5957806364ba144e14610ab857806370a0823114610a63578063715018a614610a065780637910af6f1461081c5780638456cb59146107bb5780638da5cb5b1461079257806395d89b41146106ea578063a22cb46514610649578063a5097ebf14610564578063b88d4fde146104f5578063b8997a97146104d3578063c87b56dd146103de578063d0def5211461038d578063daa83c6d14610236578063e985e9c5146101e45763f2fde38b1461015757600080fd5b346101e05760203660031901126101e0576101706111ef565b9061017961136c565b6001600160a01b039182169283156101ca575050600954826001600160601b0360a01b821617600955167f8be0079c531659141344cd1fd0a4f28419497f9722a3daafe3b4186f6b6457e08380a380f35b51631e4fbdf760e01b8152908101849052602490fd5b8280fd5b50503461023257806003193601126102325760ff816020936102046111ef565b61020c61120a565b6001600160a01b0391821683526005875283832091168252855220549151911615158152f35b5080fd5b5090346101e057806003193601126101e0576102506111ef565b90602435916001600160601b038316928381036103895761026f61136c565b6103e8841161034f5761271080851161033357506001600160a01b0391821694851561031c578351908482019082821067ffffffffffffffff8311176103095750918560207f8039bd6e4e7dba001c8840eb2e118d9d131246faa7d0d04335f7305127ec0b10979593879582985289815201526001600160601b0360a01b9060a01b1690818717600755600c541617600c5551908152a280f35b634e487b7160e01b895260419052602488fd5b8351635b6cc80560e11b8152908101879052602490fd5b8560449186865192636f483d0960e01b84528301526024820152fd5b825162461bcd60e51b815260208187015260146024820152730a4def2c2d8e8f240cccaca40e8dede40d0d2ced60631b6044820152606490fd5b8580fd5b50346101e057816003193601126101e0576103a66111ef565b926024359067ffffffffffffffff82116103db5750926103ce6103d492602095369101611314565b906116bf565b9051908152f35b80fd5b5090346101e057602091826003193601126104cf57356103fd8161153a565b5083526006825280832092815180948290805461041981611332565b918285526001918883821691826000146104a857505060011461046a575b50505061046693929161044b910386611287565b815161045681611255565b52519282849384528301906111af565b0390f35b8552868520879350859291905b828410610490575050508201018161044b610466610437565b8054848b018601528995508894909301928101610477565b60ff19168782015293151560051b8601909301935084925061044b91506104669050610437565b8380fd5b505034610232578160031936011261023257602090600c5460a01c9051908152f35b838234610232576080366003190112610232576105106111ef565b61051861120a565b6044359060643567ffffffffffffffff81116103895736602382011215610389576105619481602461054f933693013591016112dd565b9261055b838383611398565b33611575565b80f35b50503461023257816003193601126102325780519082600b5461058681611332565b8085529160019180831690811561062157506001146105c4575b5050506105b282610466940383611287565b519182916020835260208301906111af565b9450600b85527f0175b7a638427703f0dbe7bb9bbf987a2551717b34e79f33b5b1008d1fa01db95b828610610609575050506105b282602061046695820101946105a0565b805460208787018101919091529095019481016105ec565b6104669750869350602092506105b294915060ff191682840152151560051b820101946105a0565b5090346101e057806003193601126101e0576106636111ef565b90602435918215158093036106e6576001600160a01b03169283156106d15750338452600560205280842083855260205280842060ff1981541660ff8416179055519081527f17307eab39ab6107e8899845ad3d59bd9653f200f220920489ca2b5937696c3160203392a380f35b836024925191630b61174360e31b8352820152fd5b8480fd5b50503461023257816003193601126102325780519082600180549161070e83611332565b808652928281169081156106215750600114610736575050506105b282610466940383611287565b94508085527fb10e2d527612073b26eecdfd717e6a320cf44b4afac2b0732d9fcbe2b7fa0cf65b82861061077a575050506105b282602061046695820101946105a0565b8054602087870181019190915290950194810161075d565b50503461023257816003193601126102325760095490516001600160a01b039091168152602090f35b50503461023257816003193601126102325760207f62e78cea01bee320cd4e420270b5ea74000d11b0c9f74754ebdbfc544b05a258916107f961136c565b610801611b03565b6009805460ff60a01b1916600160a01b17905551338152a180f35b5082903461023257602092836003193601126101e05767ffffffffffffffff82358181116106e6576108519036908501611314565b9261085a61136c565b83519182116109f3575061086f600b54611332565b601f8111610991575b5084601f82116001146108eb5791816108da928697947f88200832d1fe27eee076bea36a10a1eb73b9d27d9e6e5e2626a83d62ffc9ae5c97916108e0575b508160011b916000199060031b1c191617600b555b519282849384528301906111af565b0390a180f35b9050850151886108b6565b600b85527f0175b7a638427703f0dbe7bb9bbf987a2551717b34e79f33b5b1008d1fa01db990601f198316865b81811061097a5750927f88200832d1fe27eee076bea36a10a1eb73b9d27d9e6e5e2626a83d62ffc9ae5c96979492600192826108da9610610961575b5050811b01600b556108cb565b87015160001960f88460031b161c191690558880610954565b91928860018192868a015181550194019201610918565b600b85527f0175b7a638427703f0dbe7bb9bbf987a2551717b34e79f33b5b1008d1fa01db9601f830160051c8101918784106109e9575b601f0160051c01905b8181106109de5750610878565b8581556001016109d1565b90915081906109c8565b634e487b7160e01b855260419052602484fd5b83346103db57806003193601126103db57610a1f61136c565b600980546001600160a01b0319811690915581906001600160a01b03167f8be0079c531659141344cd1fd0a4f28419497f9722a3daafe3b4186f6b6457e08280a380f35b5091346103db5760203660031901126103db576001600160a01b03610a866111ef565b16928315610aa35750806020938392526003845220549051908152f35b91516322718ad960e21b815291820152602490fd5b5082903461023257826003193601126102325780359067ffffffffffffffff938483116104cf57366023840112156104cf578282013591610af8836112a9565b92610b0583519485611287565b8084526020948585016024809360051b83010191368311610d55578301905b828210610d3657505050803596808811610d325736602389011215610d325787830135610b50816112a9565b98610b5d86519a8b611287565b818a5283888b019260051b82010192368411610d2e57848201925b848410610d04575050505050610b8c61136c565b610b94611b03565b8351875103610ccc57835115610c9d576064845111610c6b575050815192610bd3610bbe856112a9565b94610bcb84519687611287565b8086526112a9565b8482019190601f1901368337855b8451811015610c2b57610c2690610c166001600160a01b03610c038389611b24565b5116610c0f838c611b24565b51906116bf565b610c208289611b24565b52611ade565b610be1565b509190858583519485948186019282875251809352850193925b828110610c5457505050500390f35b835185528695509381019392810192600101610c45565b600f9085606494519362461bcd60e51b85528401528201526e426174636820746f6f206c6172676560881b6044820152fd5b600c9085606494519362461bcd60e51b85528401528201526b456d7074792061727261797360a01b6044820152fd5b60159085606494519362461bcd60e51b855284015282015274082e4e4c2f240d8cadccee8d040dad2e6dac2e8c6d605b1b6044820152fd5b8335828111610d2a578a91610d1f8392893691880101611314565b815201930192610b78565b8b80fd5b8980fd5b8680fd5b81356001600160a01b0381168103610d2e578152908701908701610b24565b8880fd5b5091346103db5760203660031901126103db5750610d796020923561153a565b90516001600160a01b039091168152f35b50503461023257816003193601126102325760209060ff60095460a01c1690519015158152f35b5050346102325761056190610dc536611220565b91925192610dd284611255565b85845261055b838383611398565b505034610232578160031936011261023257600c5490516001600160a01b039091168152602090f35b50346101e057826003193601126101e057610e2261136c565b6009549060ff8260a01c1615610e6a575060ff60a01b1916600955513381527f5db9ee0a495bf2e6ff9c91a7834c1ba4fdd244a5e8aa4e537bd38aeae4b073aa90602090a180f35b8251638dfc202b60e01b8152fd5b5091346103db57816003193601126103db5782358152600860205281812054602435926001600160a01b0380831693919260a01c908415610eff575b506001600160601b031693848102948186041490151715610eec5781516001600160a01b038416815261271085046020820152604090f35b634e487b7160e01b815260118552602490fd5b600754908116945060a01c90506001600160601b03610eb4565b83346103db57610561610f2b36611220565b91611398565b505034610232578160031936011261023257602090600a549051908152f35b5090346101e057806003193601126101e057610f6a6111ef565b91602435610f778161153a565b33151580611019575b80610ff0575b610fda576001600160a01b039485169482918691167f8c5be1e5ebec7d5bd14f71427d1e84f3dd0314c0f7b2291e5b200ac8c7c3b9258880a48452602052822080546001600160a01b031916909117905580f35b835163a9fbf51f60e01b81523381850152602490fd5b506001600160a01b03811686526005602090815284872033885290528386205460ff1615610f86565b506001600160a01b038116331415610f80565b50346101e05760203660031901126101e05791826020933561104d8161153a565b50825283528190205490516001600160a01b039091168152f35b50503461023257816003193601126102325780519082805461108881611332565b8085529160019180831690811561062157506001146110b3575050506105b282610466940383611287565b80809650527f290decd9548b62a8d60345a988386fc84ba6bc95484008f6362f93160ef3e5635b8286106110f7575050506105b282602061046695820101946105a0565b805460208787018101919091529095019481016110da565b925050346101e05760203660031901126101e0573563ffffffff60e01b81168091036101e0576020925063152a902d60e11b8114908115611152575b5015158152f35b632483248360e11b81149150811561116c575b503861114b565b6380ac58cd60e01b81149150811561119e575b811561118d575b5038611165565b6301ffc9a760e01b14905038611186565b635b5e139f60e01b8114915061117f565b919082519283825260005b8481106111db575050826000602080949584010152601f8019910116010190565b6020818301810151848301820152016111ba565b600435906001600160a01b038216820361120557565b600080fd5b602435906001600160a01b038216820361120557565b6060906003190112611205576001600160a01b0390600435828116810361120557916024359081168103611205579060443590565b6020810190811067ffffffffffffffff82111761127157604052565b634e487b7160e01b600052604160045260246000fd5b90601f8019910116810190811067ffffffffffffffff82111761127157604052565b67ffffffffffffffff81116112715760051b60200190565b67ffffffffffffffff811161127157601f01601f191660200190565b9291926112e9826112c1565b916112f76040519384611287565b829481845281830111611205578281602093846000960137010152565b9080601f830112156112055781602061132f933591016112dd565b90565b90600182811c92168015611362575b602083101461134c57565b634e487b7160e01b600052602260045260246000fd5b91607f1691611341565b6009546001600160a01b0316330361138057565b60405163118cdaa760e01b8152336004820152602490fd5b6001600160a01b03918216929091831561152157600092828452826020956002875260409684888820541696879133151580611488575b509060027fddf252ad1be2c89b69c2b068fc378daa952ba7f163c4a11628f55a4df523b3ef9284611455575b858352600381528b8320805460010190558683525289812080546001600160a01b0319168517905580a416928383036114345750505050565b6064945051926364283d7b60e01b8452600484015260248301526044820152fd5b600087815260046020526040902080546001600160a01b0319169055848352600381528b832080546000190190556113fb565b919394509150806114e0575b156114a4578592918791386113cf565b8786886114c1576024915190637e27328960e01b82526004820152fd5b905163177e802f60e01b81523360048201526024810191909152604490fd5b503387148015611505575b806114945750858252600481523385898420541614611494565b5086825260058152878220338352815260ff88832054166114eb565b604051633250574960e11b815260006004820152602490fd5b6000818152600260205260409020546001600160a01b031690811561155d575090565b60249060405190637e27328960e01b82526004820152fd5b90939192833b611587575b5050505050565b604051630a85bd0160e11b8082526001600160a01b0393841660048301529583166024820152604481019190915260806064820152949216926020929185906115d49060848301906111af565b039483816000978189895af186918161167f575b50611649575050503d600014611640573d611602816112c1565b906116106040519283611287565b81528093823d92013e5b8251928361163b57604051633250574960e11b815260048101849052602490fd5b019050fd5b6060925061161a565b919450915063ffffffff60e01b160361166757503880808080611580565b60249060405190633250574960e11b82526004820152fd5b9091508481813d83116116b8575b6116978183611287565b81010312610d3257516001600160e01b031981168103610d325790386115e8565b503d61168d565b9190916116ca61136c565b6116d2611b03565b600a54906116df82611ade565b600a5560409384516116f081611255565b6000808252956001600160a01b03848116949092908515611ac65790889493929187865260209360028552838720541688888215159283611a93575b818a52600388527fddf252ad1be2c89b69c2b068fc378daa952ba7f163c4a11628f55a4df523b3ef878b209a60019b8c815401905584815260028a52888120846001600160601b0360a01b82541617905580a4611a7b579089913b611950575b50869052600682528088209383519067ffffffffffffffff821161193c578798996117ba8798999754611332565b601f81116118e5575b508490601f841160011461185d5792807f06becd955c918828f6e985541acbf49cc842c9e9bd569fffc7698e721ef13575989993819361184c979693611852575b501b916000199060031b1c19161790555b7ff8e1a15aba9398e019f0b49df1a4fde98ee17ae345cb5f6b5e2c27f5033e8ce7838251888152a1519282849384528301906111af565b0390a390565b890151925038611804565b979290601f198216848a52868a20995b8181106118cd575098829161184c969594937f06becd955c918828f6e985541acbf49cc842c9e9bd569fffc7698e721ef135759a9b106118b4575b5050811b019055611815565b88015160001960f88460031b161c1916905538806118a8565b828901518b55998401998c995091870191870161186d565b9091929394959650878252858220601f850160051c810191878610611932575b90601f8c99989796959493920160051c01905b81811061192557506117c3565b8281558b98508301611918565b9091508190611905565b634e487b7160e01b8a52604160045260248afd5b8361199191849996949a9795989a5180938192630a85bd0160e11b9687845233600485015260248401528960448401526080606484015260848301906111af565b03818d8d5af18a9181611a37575b50611a02575050505050503d6000146119f9573d6119bc816112c1565b906119c984519283611287565b81528094823d92013e5b835193846119f3578251633250574960e11b815260048101859052602490fd5b84925001fd5b606093506119d3565b63ffffffff60e09997949699989395981b1603611a2057873861178c565b51633250574960e11b815260048101859052602490fd5b9091508781813d8311611a74575b611a4f8183611287565b81010312611a7057516001600160e01b031981168103611a7057903861199f565b8a80fd5b503d611a45565b82516339e3563760e11b8152600481018b9052602490fd5b600083815260046020526040902080546001600160a01b0319169055808a5260038852868a20805460001901905561172c565b8251633250574960e11b8152600481018a9052602490fd5b6000198114611aed5760010190565b634e487b7160e01b600052601160045260246000fd5b60ff60095460a01c16611b1257565b60405163d93c066560e01b8152600490fd5b8051821015611b385760209160051b010190565b634e487b7160e01b600052603260045260246000fdfea26469706673582212203ef4abd3e64ed1049d806cc39b548c3ff90bf913bcc80d8a3b5dcbdeca7385ed64736f6c63430008140033a2646970667358221220b641948bf5d53b7e0c866ee5f50c46574ff6645d6c8bee478d674d453936733364736f6c63430008140033",
  "linkReferences": {},
  "deployedLinkReferences": {}
}