{
  "_format": "hh-sol-artifact-1",
  "contractName": "AgentNFTCollection",
  "sourceName": "contracts/AgentNFTCollection.sol",
  "abi": [
    {
      "inputs": [
        {
          "internalType": "string",
          "name": "name",
          "type": "string"
        },
        {
          "internalType": "string",
          "name": "symbol",
          "type": "string"
        },
        {
          "internalType": "string",
          "name": "_collectionURI",
          "type": "string"
        },
        {
          "internalType": "address",
          "name": "_agentWallet",
          "type": "address"
        },
        {
          "internalType": "uint96",
          "name": "_royaltyFee",
          "type": "uint96"
        }
      ],
      "stateMutability": "nonpayable",
      "type": "constructor"
    },
    {
      "inputs": [
        {
          "internalType": "uint256",
          "name": "numerator",
          "type": "uint256"
        },
        {
          "internalType": "uint256",
          "name": "denominator",
          "type": "uint256"
        }
      ],
      "name": "ERC2981InvalidDefaultRoyalty",
      "type": "error"
    },
    {
      "inputs": [
        {
          "internalType": "address",
          "name": "receiver",
          "type": "address"
        }
      ],
      "name": "ERC2981InvalidDefaultRoyaltyReceiver",
      "type": "error"
    },
    {
      "inputs": [
        {
          "internalType": "uint256",
          "name": "tokenId",
          "type": "uint256"
        },
        {
          "internalType": "uint256",
          "name": "numerator",
          "type": "uint256"
        },
        {
          "internalType": "uint256",
          "name": "denominator",
          "type": "uint256"
        }
      ],
      "name": "ERC2981InvalidTokenRoyalty",
      "type": "error"
    },
    {
      "inputs": [
        {
          "internalType": "uint256",
          "name": "tokenId",
          "type": "uint256"
        },
        {
          "internalType": "address",
          "name": "receiver",
          "type": "address"
        }
      ],
      "name": "ERC2981InvalidTokenRoyaltyReceiver",
      "type": "error"
    },
    {
      "inputs": [
        {
          "internalType": "address",
          "name": "sender",
          "type": "address"
        },
        {
          "internalType": "uint256",
          "name": "tokenId",
          "type": "uint256"
        },
        {
          "internalType": "address",
          "name": "owner",
          "type": "address"
        }
      ],
      "name": "ERC721IncorrectOwner",
      "type": "error"
    },
    {
      "inputs": [
        {
          "internalType": "address",
          "name": "operator",
          "type": "address"
        },
        {
          "internalType": "uint256",
          "name": "tokenId",
          "type": "uint256"
        }
      ],
      "name": "ERC721InsufficientApproval",
      "type": "error"
    },
    {
      "inputs": [
        {
          "internalType": "address",
          "name": "approver",
          "type": "address"
        }
      ],
      "name": "ERC721InvalidApprover",
      "type": "error"
    },
    {
      "inputs": [
        {
          "internalType": "address",
          "name": "operator",
          "type": "address"
        }
      ],
      "name": "ERC721InvalidOperator",
      "type": "error"
    },
    {
      "inputs": [
        {
          "internalType": "address",
          "name": "owner",
          "type": "address"
        }
      ],
      "name": "ERC721InvalidOwner",
      "type": "error"
    },
    {
      "inputs": [
        {
          "internalType": "address",
          "name": "receiver",
          "type": "address"
        }
      ],
      "name": "ERC721InvalidReceiver",
      "type": "error"
    },
    {
      "inputs": [
        {
          "internalType": "address",
          "name": "sender",
          "type": "address"
        }
      ],
      "name": "ERC721InvalidSender",
      "type": "error"
    },
    {
      "inputs": [
        {
          "internalType": "uint256",
          "name": "tokenId",
          "type": "uint256"
        }
      ],
      "name": "ERC721NonexistentToken",
      "type": "error"
    },
    {
      "inputs": [],
      "name": "EnforcedPause",
      "type": "error"
    },
    {
      "inputs": [],
      "name": "ExpectedPause",
      "type": "error"
    },
    {
      "inputs": [
        {
          "internalType": "address",
          "name": "owner",
          "type": "address"
        }
      ],
      "name": "OwnableInvalidOwner",
      "type": "error"
    },
    {
      "inputs": [
        {
          "internalType": "address",
          "name": "account",
          "type": "address"
        }
      ],
      "name": "OwnableUnauthorizedAccount",
      "type": "error"
    },
    {
      "anonymous": false,
      "inputs": [
        {
          "indexed": true,
          "internalType": "address",
          "name": "owner",
          "type": "address"
        },
        {
          "indexed": true,
          "internalType": "address",
          "name": "approved",
          "type": "address"
        },
        {
          "indexed": true,
          "internalType": "uint256",
          "name": "tokenId",
          "type": "uint256"
        }
      ],
      "name": "Approval",
      "type": "event"
    },
    {
      "anonymous": false,
      "inputs": [
        {
          "indexed": true,
          "internalType": "address",
          "name": "owner",
          "type": "address"
        },
        {
          "indexed": true,
          "internalType": "address",
          "name": "operator",
          "type": "address"
        },
        {
          "indexed": false,
          "internalType": "bool",
          "name": "approved",
          "type": "bool"
        }
      ],
      "name": "ApprovalForAll",
      "type": "event"
    },
    {
      "anonymous": false,
      "inputs": [
        {
          "indexed": false,
          "internalType": "uint256",
          "name": "_fromTokenId",
          "type": "uint256"
        },
        {
          "indexed": false,
          "internalType": "uint256",
          "name": "_toTokenId",
          "type": "uint256"
        }
      ],
      "name": "BatchMetadataUpdate",
      "type": "event"
    },
    {
      "anonymous": false,
      "inputs": [
        {
          "indexed": false,
          "internalType": "string",
          "name": "newURI",
          "type": "string"
        }
      ],
      "name": "CollectionURIUpdated",
      "type": "event"
    },
    {
      "anonymous": false,
      "inputs": [
        {
          "indexed": false,
          "internalType": "uint256",
          "name": "_tokenId",
          "type": "uint256"
        }
      ],
      "name": "MetadataUpdate",
      "type": "event"
    },
    {
      "anonymous": false,
      "inputs": [
        {
          "indexed": true,
          "internalType": "uint256",
          "name": "tokenId",
          "type": "uint256"
        },
        {
          "indexed": true,
          "internalType": "address",
          "name": "to",
          "type": "address"
        },
        {
          "indexed": false,
          "internalType": "string",
          "name": "tokenURI",
          "type": "string"
        }
      ],
      "name": "NFTMinted",
      "type": "event"
    },
    {
      "anonymous": false,
      "inputs": [
        {
          "indexed": true,
          "internalType": "address",
          "name": "previousOwner",
          "type": "address"
        },
        {
          "indexed": true,
          "internalType": "address",
          "name": "newOwner",
          "type": "address"
        }
      ],
      "name": "OwnershipTransferred",
      "type": "event"
    },
    {
      "anonymous": false,
      "inputs": [
        {
          "indexed": false,
          "internalType": "address",
          "name": "account",
          "type": "address"
        }
      ],
      "name": "Paused",
      "type": "event"
    },
    {
      "anonymous": false,
      "inputs": [
        {
          "indexed": true,
          "internalType": "address",
          "name": "receiver",
          "type": "address"
        },
        {
          "indexed": false,
          "internalType": "uint96",
          "name": "feeNumerator",
          "type": "uint96"
        }
      ],
      "name": "RoyaltyUpdated",
      "type": "event"
    },
    {
      "anonymous": false,
      "inputs": [
        {
          "indexed": true,
          "internalType": "address",
          "name": "from",
          "type": "address"
        },
        {
          "indexed": true,
          "internalType": "address",
          "name": "to",
          "type": "address"
        },
        {
          "indexed": true,
          "internalType": "uint256",
          "name": "tokenId",
          "type": "uint256"
        }
      ],
      "name": "Transfer",
      "type": "event"
    },
    {
      "anonymous": false,
      "inputs": [
        {
          "indexed": false,
          "internalType": "address",
          "name": "account",
          "type": "address"
        }
      ],
      "name": "Unpaused",
      "type": "event"
    },
    {
      "inputs": [],
      "name": "agentWallet",
      "outputs": [
        {
          "internalType": "address",
          "name": "",
          "type": "address"
        }
      ],
      "stateMutability": "view",
      "type": "function"
    },
    {
      "inputs": [
        {
          "internalType": "address",
          "name": "to",
          "type": "address"
        },
        {
          "internalType": "uint256",
          "name": "tokenId",
          "type": "uint256"
        }
      ],
      "name": "approve",
      "outputs": [],
      "stateMutability": "nonpayable",
      "type": "function"
    },
    {
      "inputs": [
        {
          "internalType": "address",
          "name": "owner",
          "type": "address"
        }
      ],
      "name": "balanceOf",
      "outputs": [
        {
          "internalType": "uint256",
          "name": "",
          "type": "uint256"
        }
      ],
      "stateMutability": "view",
      "type": "function"
    },
    {
      "inputs": [
        {
          "internalType": "address[]",
          "name": "recipients",
          "type": "address[]"
        },
        {
          "internalType": "string[]",
          "name": "uris",
          "type": "string[]"
        }
      ],
      "name": "batchMint",
      "outputs": [
        {
          "internalType": "uint256[]",
          "name": "",
          "type": "uint256[]"
        }
      ],
      "stateMutability": "nonpayable",
      "type": "function"
    },
    {
      "inputs": [],
      "name": "collectionURI",
      "outputs": [
        {
          "internalType": "string",
          "name": "",
          "type": "string"
        }
      ],
      "stateMutability": "view",
      "type": "function"
    },
    {
      "inputs": [
        {
          "internalType": "uint256",
          "name": "tokenId",
          "type": "uint256"
        }
      ],
      "name": "getApproved",
      "outputs": [
        {
          "internalType": "address",
          "name": "",
          "type": "address"
        }
      ],
      "stateMutability": "view",
      "type": "function"
    },
    {
      "inputs": [
        {
          "internalType": "address",
          "name": "owner",
          "type": "address"
        },
        {
          "internalType": "address",
          "name": "operator",
          "type": "address"
        }
      ],
      "name": "isApprovedForAll",
      "outputs": [
        {
          "internalType": "bool",
          "name": "",
          "type": "bool"
        }
      ],
      "stateMutability": "view",
      "type": "function"
    },
    {
      "inputs": [
        {
          "internalType": "address",
          "name": "to",
          "type": "address"
        },
        {
          "internalType": "string",
          "name": "uri",
          "type": "string"
        }
      ],
      "name": "mint",
      "outputs": [
        {
          "internalType": "uint256",
          "name": "",
          "type": "uint256"
        }
      ],
      "stateMutability": "nonpayable",
      "type": "function"
    },
    {
      "inputs": [],
      "name": "name",
      "outputs": [
        {
          "internalType": "string",
          "name": "",
          "type": "string"
        }
      ],
      "stateMutability": "view",
      "type": "function"
    },
    {
      "inputs": [],
      "name": "owner",
      "outputs": [
        {
          "internalType": "address",
          "name": "",
          "type": "address"
        }
      ],
      "stateMutability": "view",
      "type": "function"
    },
    {
      "inputs": [
        {
          "internalType": "uint256",
          "name": "tokenId",
          "type": "uint256"
        }
      ],
      "name": "ownerOf",
      "outputs": [
        {
          "internalType": "address",
          "name": "",
          "type": "address"
        }
      ],
      "stateMutability": "view",
      "type": "function"
    },
    {
      "inputs": [],
      "name": "pause",
      "outputs": [],
      "stateMutability": "nonpayable",
      "type": "function"
    },
    {
      "inputs": [],
      "name": "paused",
      "outputs": [
        {
          "internalType": "bool",
          "name": "",
          "type": "bool"
        }
      ],
      "stateMutability": "view",
      "type": "function"
    },
    {
      "inputs": [],
      "name": "renounceOwnership",
      "outputs": [],
      "stateMutability": "nonpayable",
      "type": "function"
    },
    {
      "inputs": [],
      "name": "royaltyFee",
      "outputs": [
        {
          "internalType": "uint96",
          "name": "",
          "type": "uint96"
        }
      ],
      "stateMutability": "view",
      "type": "function"
    },
    {
      "inputs": [
        {
          "internalType": "uint256",
          "name": "tokenId",
          "type": "uint256"
        },
        {
          "internalType": "uint256",
          "name": "salePrice",
          "type": "uint256"
        }
      ],
      "name": "royaltyInfo",
      "outputs": [
        {
          "internalType": "address",
          "name": "receiver",
          "type": "address"
        },
        {
          "internalType": "uint256",
          "name": "amount",
          "type": "uint256"
        }
      ],
      "stateMutability": "view",
      "type": "function"
    },
    {
      "inputs": [
        {
          "internalType": "address",
          "name": "from",
          "type": "address"
        },
        {
          "internalType": "address",
          "name": "to",
          "type": "address"
        },
        {
          "internalType": "uint256",
          "name": "tokenId",
          "type": "uint256"
        }
      ],
      "name": "safeTransferFrom",
      "outputs": [],
      "stateMutability": "nonpayable",
      "type": "function"
    },
    {
      "inputs": [
        {
          "internalType": "address",
          "name": "from",
          "type": "address"
        },
        {
          "internalType": "address",
          "name": "to",
          "type": "address"
        },
        {
          "internalType": "uint256",
          "name": "tokenId",
          "type": "uint256"
        },
        {
          "internalType": "bytes",
          "name": "data",
          "type": "bytes"
        }
      ],
      "name": "safeTransferFrom",
      "outputs": [],
      "stateMutability": "nonpayable",
      "type": "function"
    },
    {
      "inputs": [
        {
          "internalType": "address",
          "name": "operator",
          "type": "address"
        },
        {
          "internalType": "bool",
          "name": "approved",
          "type": "bool"
        }
      ],
      "name": "setApprovalForAll",
      "outputs": [],
      "stateMutability": "nonpayable",
      "type": "function"
    },
    {
      "inputs": [
        {
          "internalType": "bytes4",
          "name": "interfaceId",
          "type": "bytes4"
        }
      ],
      "name": "supportsInterface",
      "outputs": [
        {
          "internalType": "bool",
          "name": "",
          "type": "bool"
        }
      ],
      "stateMutability": "view",
      "type": "function"
    },
    {
      "inputs": [],
      "name": "symbol",
      "outputs": [
        {
          "internalType": "string",
          "name": "",
          "type": "string"
        }
      ],
      "stateMutability": "view",
      "type": "function"
    },
    {
      "inputs": [
        {
          "internalType": "uint256",
          "name": "tokenId",
          "type": "uint256"
        }
      ],
      "name": "tokenURI",
      "outputs": [
        {
          "internalType": "string",
          "name": "",
          "type": "string"
        }
      ],
      "stateMutability": "view",
      "type": "function"
    },
    {
      "inputs": [],
      "name": "totalSupply",
      "outputs": [
        {
          "internalType": "uint256",
          "name": "",
          "type": "uint256"
        }
      ],
      "stateMutability": "view",
      "type": "function"
    },
    {
      "inputs": [
        {
          "internalType": "address",
          "name": "from",
          "type": "address"
        },
        {
          "internalType": "address",
          "name": "to",
          "type": "address"
        },
        {
          "internalType": "uint256",
          "name": "tokenId",
          "type": "uint256"
        }
      ],
      "name": "transferFrom",
      "outputs": [],
      "stateMutability": "nonpayable",
      "type": "function"
    },
    {
      "inputs": [
        {
          "internalType": "address",
          "name": "newOwner",
          "type": "address"
        }
      ],
      "name": "transferOwnership",
      "outputs": [],
      "stateMutability": "nonpayable",
      "type": "function"
    },
    {
      "inputs": [],
      "name": "unpause",
      "outputs": [],
      "stateMutability": "nonpayable",
      "type": "function"
    },
    {
      "inputs": [
        {
          "internalType": "string",
          "name": "newURI",
          "type": "string"
        }
      ],
      "name": "updateCollectionURI",
      "outputs": [],
      "stateMutability": "nonpayable",
      "type": "function"
    },
    {
      "inputs": [
        {
          "internalType": "address",
          "name": "receiver",
          "type": "address"
        },
        {
          "internalType": "uint96",
          "name": "feeNumerator",
          "type": "uint96"
        }
      ],
      "name": "updateRoyalty",
      "outputs": [],
      "stateMutability": "nonpayable",
      "type": "function"
    }
  ],
  "bytecode": "0x60406080815234620005c257620021e4803803806200001e81620005c7565b92833981019060a081830312620005c25780516001600160401b039290838111620005c2578162000051918401620005ed565b9060209182840151858111620005c257826200006f918601620005ed565b918685015190868211620005c2576200008a918601620005ed565b9360608101519160018060a01b0391828416809403620005c257608001516001600160601b03811696909190878303620005c2578151898111620005ac576000968754916001948584811c94168015620005a1575b8b851014620004a75781908b601f958681116200054b575b50508b90858311600114620004e6578b92620004da575b5050600019600383901b1c191690851b1788555b8051908b8211620004c65784548581811c91168015620004bb575b8b821014620004a75790818484931162000454575b508a90848311600114620003ef578a92620003e3575b5050600019600383901b1c191690841b1783555b8515620003cb57600980546001600160a01b0319808216891790925590958791167f8be0079c531659141344cd1fd0a4f28419497f9722a3daafe3b4186f6b6457e08980a36103e8891162000387578151918a83116200037357600b548481811c9116801562000368575b8a82101462000354578281116200030b575b5088918311600114620002a557928293918392899462000299575b50501b916000199060031b1c191617600b555b60a01b1681179485600c556127108086116200027c57508651928388019182118483101762000268575086528152015260075551611b849081620006608239f35b634e487b7160e01b81526041600452602490fd5b85604491895191636f483d0960e01b835260048301526024820152fd5b01519250388062000214565b600b8852888820919083601f1981168a5b8c88838310620002f35750505010620002d9575b505050811b01600b5562000227565b015160001960f88460031b161c19169055388080620002ca565b868601518855909601959485019487935001620002b6565b600b89528989208380860160051c8201928c87106200034a575b0160051c019085905b8281106200033e575050620001f9565b8a81550185906200032e565b9250819262000325565b634e487b7160e01b89526022600452602489fd5b90607f1690620001e7565b634e487b7160e01b88526041600452602488fd5b8a5162461bcd60e51b815260048101899052601460248201527f526f79616c74792066656520746f6f20686967680000000000000000000000006044820152606490fd5b8a51631e4fbdf760e01b815260048101889052602490fd5b01519050388062000168565b868b528b8b208794509190601f1984168c8e5b8282106200043c575050841162000422575b505050811b0183556200017c565b015160001960f88460031b161c1916905538808062000414565b8385015186558a979095019493840193018e62000402565b909150858a528a8a208480850160051c8201928d86106200049d575b918891869594930160051c01915b8281106200048e57505062000152565b8c81558594508891016200047e565b9250819262000470565b634e487b7160e01b8a52602260045260248afd5b90607f16906200013d565b634e487b7160e01b89526041600452602489fd5b0151905038806200010e565b8b80528c8c208894509190601f1984168d8f5b82821062000533575050841162000519575b505050811b01885562000122565b015160001960f88460031b161c191690553880806200050b565b8385015186558b979095019493840193018f620004f9565b909192508b805285828d209181860160051c830193861062000597575b918991869594930160051c01915b8281106200058857508d9150620000f7565b8d815585945089910162000576565b9250819262000568565b93607f1693620000df565b634e487b7160e01b600052604160045260246000fd5b600080fd5b6040519190601f01601f191682016001600160401b03811183821017620005ac57604052565b919080601f84011215620005c25782516001600160401b038111620005ac5760209062000623601f8201601f19168301620005c7565b92818452828287010111620005c25760005b8181106200064b57508260009394955001015290565b85810183015184820184015282016200063556fe6080604081815260048036101561001557600080fd5b600092833560e01c90816301ffc9a71461110f5750806306fdde0314611067578063081812fc1461102c578063095ea7b314610f5057806318160ddd14610f3157806323b872dd14610f195780632a55205a14610e785780633f4ba83a14610e095780633f6dfdbc14610de057806342842e0e14610db15780635c975abb14610d8a5780636352211e14610d5957806364ba144e14610ab857806370a0823114610a63578063715018a614610a065780637910af6f1461081c5780638456cb59146107bb5780638da5cb5b1461079257806395d89b41146106ea578063a22cb46514610649578063a5097ebf14610564578063b88d4fde146104f5578063b8997a97146104d3578063c87b56dd146103de578063d0def5211461038d578063daa83c6d14610236578063e985e9c5146101e45763f2fde38b1461015757600080fd5b346101e05760203660031901126101e0576101706111ef565b9061017961136c565b6001600160a01b039182169283156101ca575050600954826001600160601b0360a01b821617600955167f8be0079c531659141344cd1fd0a4f28419497f9722a3daafe3b4186f6b6457e08380a380f35b51631e4fbdf760e01b8152908101849052602490fd5b8280fd5b50503461023257806003193601126102325760ff816020936102046111ef565b61020c61120a565b6001600160a01b0391821683526005875283832091168252855220549151911615158152f35b5080fd5b5090346101e057806003193601126101e0576102506111ef565b90602435916001600160601b038316928381036103895761026f61136c565b6103e8841161034f5761271080851161033357506001600160a01b0391821694851561031c578351908482019082821067ffffffffffffffff8311176103095750918560207f8039bd6e4e7dba001c8840eb2e118d9d131246faa7d0d04335f7305127ec0b10979593879582985289815201526001600160601b0360a01b9060a01b1690818717600755600c541617600c5551908152a280f35b634e487b7160e01b895260419052602488fd5b8351635b6cc80560e11b8152908101879052602490fd5b8560449186865192636f483d0960e01b84528301526024820152fd5b825162461bcd60e51b815260208187015260146024820152730a4def2c2d8e8f240cccaca40e8dede40d0d2ced60631b6044820152606490fd5b8580fd5b50346101e057816003193601126101e0576103a66111ef565b926024359067ffffffffffffffff82116103db5750926103ce6103d492602095369101611314565b906116bf565b9051908152f35b80fd5b5090346101e057602091826003193601126104cf57356103fd8161153a565b5083526006825280832092815180948290805461041981611332565b918285526001918883821691826000146104a857505060011461046a575b50505061046693929161044b910386611287565b815161045681611255565b52519282849384528301906111af565b0390f35b8552868520879350859291905b828410610490575050508201018161044b610466610437565b8054848b018601528995508894909301928101610477565b60ff19168782015293151560051b8601909301935084925061044b91506104669050610437565b8380fd5b505034610232578160031936011261023257602090600c5460a01c9051908152f35b838234610232576080366003190112610232576105106111ef565b61051861120a565b6044359060643567ffffffffffffffff81116103895736602382011215610389576105619481602461054f933693013591016112dd565b9261055b838383611398565b33611575565b80f35b50503461023257816003193601126102325780519082600b5461058681611332565b8085529160019180831690811561062157506001146105c4575b5050506105b282610466940383611287565b519182916020835260208301906111af565b9450600b85527f0175b7a638427703f0dbe7bb9bbf987a2551717b34e79f33b5b1008d1fa01db95b828610610609575050506105b282602061046695820101946105a0565b805460208787018101919091529095019481016105ec565b6104669750869350602092506105b294915060ff191682840152151560051b820101946105a0565b5090346101e057806003193601126101e0576106636111ef565b90602435918215158093036106e6576001600160a01b03169283156106d15750338452600560205280842083855260205280842060ff1981541660ff8416179055519081527f17307eab39ab6107e8899845ad3d59bd9653f200f220920489ca2b5937696c3160203392a380f35b836024925191630b61174360e31b8352820152fd5b8480fd5b50503461023257816003193601126102325780519082600180549161070e83611332565b808652928281169081156106215750600114610736575050506105b282610466940383611287565b94508085527fb10e2d527612073b26eecdfd717e6a320cf44b4afac2b0732d9fcbe2b7fa0cf65b82861061077a575050506105b282602061046695820101946105a0565b8054602087870181019190915290950194810161075d565b50503461023257816003193601126102325760095490516001600160a01b039091168152602090f35b50503461023257816003193601126102325760207f62e78cea01bee320cd4e420270b5ea74000d11b0c9f74754ebdbfc544b05a258916107f961136c565b610801611b03565b6009805460ff60a01b1916600160a01b17905551338152a180f35b5082903461023257602092836003193601126101e05767ffffffffffffffff82358181116106e6576108519036908501611314565b9261085a61136c565b83519182116109f3575061086f600b54611332565b601f8111610991575b5084601f82116001146108eb5791816108da928697947f88200832d1fe27eee076bea36a10a1eb73b9d27d9e6e5e2626a83d62ffc9ae5c97916108e0575b508160011b916000199060031b1c191617600b555b519282849384528301906111af565b0390a180f35b9050850151886108b6565b600b85527f0175b7a638427703f0dbe7bb9bbf987a2551717b34e79f33b5b1008d1fa01db990601f198316865b81811061097a5750927f88200832d1fe27eee076bea36a10a1eb73b9d27d9e6e5e2626a83d62ffc9ae5c96979492600192826108da9610610961575b5050811b01600b556108cb565b87015160001960f88460031b161c191690558880610954565b91928860018192868a015181550194019201610918565b600b85527f0175b7a638427703f0dbe7bb9bbf987a2551717b34e79f33b5b1008d1fa01db9601f830160051c8101918784106109e9575b601f0160051c01905b8181106109de5750610878565b8581556001016109d1565b90915081906109c8565b634e487b7160e01b855260419052602484fd5b83346103db57806003193601126103db57610a1f61136c565b600980546001600160a01b0319811690915581906001600160a01b03167f8be0079c531659141344cd1fd0a4f28419497f9722a3daafe3b4186f6b6457e08280a380f35b5091346103db5760203660031901126103db576001600160a01b03610a866111ef565b16928315610aa35750806020938392526003845220549051908152f35b91516322718ad960e21b815291820152602490fd5b5082903461023257826003193601126102325780359067ffffffffffffffff938483116104cf57366023840112156104cf578282013591610af8836112a9565b92610b0583519485611287565b8084526020948585016024809360051b83010191368311610d55578301905b828210610d3657505050803596808811610d325736602389011215610d325787830135610b50816112a9565b98610b5d86519a8b611287565b818a5283888b019260051b82010192368411610d2e57848201925b848410610d04575050505050610b8c61136c565b610b94611b03565b8351875103610ccc57835115610c9d576064845111610c6b575050815192610bd3610bbe856112a9565b94610bcb84519687611287565b8086526112a9565b8482019190601f1901368337855b8451811015610c2b57610c2690610c166001600160a01b03610c038389611b24565b5116610c0f838c611b24565b51906116bf565b610c208289611b24565b52611ade565b610be1565b509190858583519485948186019282875251809352850193925b828110610c5457505050500390f35b835185528695509381019392810192600101610c45565b600f9085606494519362461bcd60e51b85528401528201526e426174636820746f6f206c6172676560881b6044820152fd5b600c9085606494519362461bcd60e51b85528401528201526b456d7074792061727261797360a01b6044820152fd5b60159085606494519362461bcd60e51b855284015282015274082e4e4c2f240d8cadccee8d040dad2e6dac2e8c6d605b1b6044820152fd5b8335828111610d2a578a91610d1f8392893691880101611314565b815201930192610b78565b8b80fd5b8980fd5b8680fd5b81356001600160a01b0381168103610d2e578152908701908701610b24565b8880fd5b5091346103db5760203660031901126103db5750610d796020923561153a565b90516001600160a01b039091168152f35b50503461023257816003193601126102325760209060ff60095460a01c1690519015158152f35b5050346102325761056190610dc536611220565b91925192610dd284611255565b85845261055b838383611398565b505034610232578160031936011261023257600c5490516001600160a01b039091168152602090f35b50346101e057826003193601126101e057610e2261136c565b6009549060ff8260a01c1615610e6a575060ff60a01b1916600955513381527f5db9ee0a495bf2e6ff9c91a7834c1ba4fdd244a5e8aa4e537bd38aeae4b073aa90602090a180f35b8251638dfc202b60e01b8152fd5b5091346103db57816003193601126103db5782358152600860205281812054602435926001600160a01b0380831693919260a01c908415610eff575b506001600160601b031693848102948186041490151715610eec5781516001600160a01b038416815261271085046020820152604090f35b634e487b7160e01b815260118552602490fd5b600754908116945060a01c90506001600160601b03610eb4565b83346103db57610561610f2b36611220565b91611398565b505034610232578160031936011261023257602090600a549051908152f35b5090346101e057806003193601126101e057610f6a6111ef565b91602435610f778161153a565b33151580611019575b80610ff0575b610fda576001600160a01b039485169482918691167f8c5be1e5ebec7d5bd14f71427d1e84f3dd0314c0f7b2291e5b200ac8c7c3b9258880a48452602052822080546001600160a01b031916909117905580f35b835163a9fbf51f60e01b81523381850152602490fd5b506001600160a01b03811686526005602090815284872033885290528386205460ff1615610f86565b506001600160a01b038116331415610f80565b50346101e05760203660031901126101e05791826020933561104d8161153a565b50825283528190205490516001600160a01b039091168152f35b50503461023257816003193601126102325780519082805461108881611332565b8085529160019180831690811561062157506001146110b3575050506105b282610466940383611287565b80809650527f290decd9548b62a8d60345a988386fc84ba6bc95484008f6362f93160ef3e5635b8286106110f7575050506105b282602061046695820101946105a0565b805460208787018101919091529095019481016110da565b925050346101e05760203660031901126101e0573563ffffffff60e01b81168091036101e0576020925063152a902d60e11b8114908115611152575b5015158152f35b632483248360e11b81149150811561116c575b503861114b565b6380ac58cd60e01b81149150811561119e575b811561118d575b5038611165565b6301ffc9a760e01b14905038611186565b635b5e139f60e01b8114915061117f565b919082519283825260005b8481106111db575050826000602080949584010152601f8019910116010190565b6020818301810151848301820152016111ba565b600435906001600160a01b038216820361120557565b600080fd5b602435906001600160a01b038216820361120557565b6060906003190112611205576001600160a01b0390600435828116810361120557916024359081168103611205579060443590565b6020810190811067ffffffffffffffff82111761127157604052565b634e487b7160e01b600052604160045260246000fd5b90601f8019910116810190811067ffffffffffffffff82111761127157604052565b67ffffffffffffffff81116112715760051b60200190565b67ffffffffffffffff811161127157601f01601f191660200190565b9291926112e9826112c1565b916112f76040519384611287565b829481845281830111611205578281602093846000960137010152565b9080601f830112156112055781602061132f933591016112dd565b90565b90600182811c92168015611362575b602083101461134c57565b634e487b7160e01b600052602260045260246000fd5b91607f1691611341565b6009546001600160a01b0316330361138057565b60405163118cdaa760e01b8152336004820152602490fd5b6001600160a01b03918216929091831561152157600092828452826020956002875260409684888820541696879133151580611488575b509060027fddf252ad1be2c89b69c2b068fc378daa952ba7f163c4a11628f55a4df523b3ef9284611455575b858352600381528b8320805460010190558683525289812080546001600160a01b0319168517905580a416928383036114345750505050565b6064945051926364283d7b60e01b8452600484015260248301526044820152fd5b600087815260046020526040902080546001600160a01b0319169055848352600381528b832080546000190190556113fb565b919394509150806114e0575b156114a4578592918791386113cf565b8786886114c1576024915190637e27328960e01b82526004820152fd5b905163177e802f60e01b81523360048201526024810191909152604490fd5b503387148015611505575b806114945750858252600481523385898420541614611494565b5086825260058152878220338352815260ff88832054166114eb565b604051633250574960e11b815260006004820152602490fd5b6000818152600260205260409020546001600160a01b031690811561155d575090565b60249060405190637e27328960e01b82526004820152fd5b90939192833b611587575b5050505050565b604051630a85bd0160e11b8082526001600160a01b0393841660048301529583166024820152604481019190915260806064820152949216926020929185906115d49060848301906111af565b039483816000978189895af186918161167f575b50611649575050503d600014611640573d611602816112c1565b906116106040519283611287565b81528093823d92013e5b8251928361163b57604051633250574960e11b815260048101849052602490fd5b019050fd5b6060925061161a565b919450915063ffffffff60e01b160361166757503880808080611580565b60249060405190633250574960e11b82526004820152fd5b9091508481813d83116116b8575b6116978183611287565b81010312610d3257516001600160e01b031981168103610d325790386115e8565b503d61168d565b9190916116ca61136c565b6116d2611b03565b600a54906116df82611ade565b600a5560409384516116f081611255565b6000808252956001600160a01b03848116949092908515611ac65790889493929187865260209360028552838720541688888215159283611a93575b818a52600388527fddf252ad1be2c89b69c2b068fc378daa952ba7f163c4a11628f55a4df523b3ef878b209a60019b8c815401905584815260028a52888120846001600160601b0360a01b82541617905580a4611a7b579089913b611950575b50869052600682528088209383519067ffffffffffffffff821161193c578798996117ba8798999754611332565b601f81116118e5575b508490601f841160011461185d5792807f06becd955c918828f6e985541acbf49cc842c9e9bd569fffc7698e721ef13575989993819361184c979693611852575b501b916000199060031b1c19161790555b7ff8e1a15aba9398e019f0b49df1a4fde98ee17ae345cb5f6b5e2c27f5033e8ce7838251888152a1519282849384528301906111af565b0390a390565b890151925038611804565b979290601f198216848a52868a20995b8181106118cd575098829161184c969594937f06becd955c918828f6e985541acbf49cc842c9e9bd569fffc7698e721ef135759a9b106118b4575b5050811b019055611815565b88015160001960f88460031b161c1916905538806118a8565b828901518b55998401998c995091870191870161186d565b9091929394959650878252858220601f850160051c810191878610611932575b90601f8c99989796959493920160051c01905b81811061192557506117c3565b8281558b98508301611918565b9091508190611905565b634e487b7160e01b8a52604160045260248afd5b8361199191849996949a9795989a5180938192630a85bd0160e11b9687845233600485015260248401528960448401526080606484015260848301906111af565b03818d8d5af18a9181611a37575b50611a02575050505050503d6000146119f9573d6119bc816112c1565b906119c984519283611287565b81528094823d92013e5b835193846119f3578251633250574960e11b815260048101859052602490fd5b84925001fd5b606093506119d3565b63ffffffff60e09997949699989395981b1603611a2057873861178c565b51633250574960e11b815260048101859052602490fd5b9091508781813d8311611a74575b611a4f8183611287565b81010312611a7057516001600160e01b031981168103611a7057903861199f565b8a80fd5b503d611a45565b82516339e3563760e11b8152600481018b9052602490fd5b600083815260046020526040902080546001600160a01b0319169055808a5260038852868a20805460001901905561172c565b8251633250574960e11b8152600481018a9052602490fd5b6000198114611aed5760010190565b634e487b7160e01b600052601160045260246000fd5b60ff60095460a01c16611b1257565b60405163d93c066560e01b8152600490fd5b8051821015611b385760209160051b010190565b634e487b7160e01b600052603260045260246000fdfea26469706673582212203ef4abd3e64ed1049d806cc39b548c3ff90bf913bcc80d8a3b5dcbdeca7385ed64736f6c63430008140033",
  "linkReferences": {},
  "deployedLinkReferences": {}
}